{"contracts/AvaxGods.sol":{"AVAXGods":{"abi":[{"inputs":[{"internalType":"string","name":"_metadataURI","type":"string"}],"stateMutability":"nonpayable","type":"constructor"},{"anonymous":false,"inputs":[{"indexed":true,"internalType":"address","name":"account","type":"address"},{"indexed":true,"internalType":"address","name":"operator","type":"address"},{"indexed":false,"internalType":"bool","name":"approved","type":"bool"}],"name":"ApprovalForAll","type":"event"},{"anonymous":false,"inputs":[{"indexed":false,"internalType":"string","name":"battleName","type":"string"},{"indexed":true,"internalType":"address","name":"winner","type":"address"},{"indexed":true,"internalType":"address","name":"loser","type":"address"}],"name":"BattleEnded","type":"event"},{"anonymous":false,"inputs":[{"indexed":true,"internalType":"string","name":"battleName","type":"string"},{"indexed":true,"internalType":"bool","name":"isFirstMove","type":"bool"}],"name":"BattleMove","type":"event"},{"anonymous":false,"inputs":[{"indexed":false,"internalType":"string","name":"battleName","type":"string"},{"indexed":true,"internalType":"address","name":"player1","type":"address"},{"indexed":true,"internalType":"address","name":"player2","type":"address"}],"name":"NewBattle","type":"event"},{"anonymous":false,"inputs":[{"indexed":true,"internalType":"address","name":"owner","type":"address"},{"indexed":false,"internalType":"uint256","name":"id","type":"uint256"},{"indexed":false,"internalType":"uint256","name":"attackStrength","type":"uint256"},{"indexed":false,"internalType":"uint256","name":"defenseStrength","type":"uint256"}],"name":"NewGameToken","type":"event"},{"anonymous":false,"inputs":[{"indexed":true,"internalType":"address","name":"owner","type":"address"},{"indexed":false,"internalType":"string","name":"name","type":"string"}],"name":"NewPlayer","type":"event"},{"anonymous":false,"inputs":[{"indexed":true,"internalType":"address","name":"previousOwner","type":"address"},{"indexed":true,"internalType":"address","name":"newOwner","type":"address"}],"name":"OwnershipTransferred","type":"event"},{"anonymous":false,"inputs":[{"indexed":false,"internalType":"address[2]","name":"damagedPlayers","type":"address[2]"}],"name":"RoundEnded","type":"event"},{"anonymous":false,"inputs":[{"indexed":true,"internalType":"address","name":"operator","type":"address"},{"indexed":true,"internalType":"address","name":"from","type":"address"},{"indexed":true,"internalType":"address","name":"to","type":"address"},{"indexed":false,"internalType":"uint256[]","name":"ids","type":"uint256[]"},{"indexed":false,"internalType":"uint256[]","name":"values","type":"uint256[]"}],"name":"TransferBatch","type":"event"},{"anonymous":false,"inputs":[{"indexed":true,"internalType":"address","name":"operator","type":"address"},{"indexed":true,"internalType":"address","name":"from","type":"address"},{"indexed":true,"internalType":"address","name":"to","type":"address"},{"indexed":false,"internalType":"uint256","name":"id","type":"uint256"},{"indexed":false,"internalType":"uint256","name":"value","type":"uint256"}],"name":"TransferSingle","type":"event"},{"anonymous":false,"inputs":[{"indexed":false,"internalType":"string","name":"value","type":"string"},{"indexed":true,"internalType":"uint256","name":"id","type":"uint256"}],"name":"URI","type":"event"},{"inputs":[],"name":"CELESTION","outputs":[{"internalType":"uint256","name":"","type":"uint256"}],"stateMutability":"view","type":"function"},{"inputs":[],"name":"DEVIL","outputs":[{"internalType":"uint256","name":"","type":"uint256"}],"stateMutability":"view","type":"function"},{"inputs":[],"name":"FIREBIRD","outputs":[{"internalType":"uint256","name":"","type":"uint256"}],"stateMutability":"view","type":"function"},{"inputs":[],"name":"GRIFFIN","outputs":[{"internalType":"uint256","name":"","type":"uint256"}],"stateMutability":"view","type":"function"},{"inputs":[],"name":"KAMO","outputs":[{"internalType":"uint256","name":"","type":"uint256"}],"stateMutability":"view","type":"function"},{"inputs":[],"name":"KUKULKAN","outputs":[{"internalType":"uint256","name":"","type":"uint256"}],"stateMutability":"view","type":"function"},{"inputs":[],"name":"MAX_ATTACK_DEFEND_STRENGTH","outputs":[{"internalType":"uint256","name":"","type":"uint256"}],"stateMutability":"view","type":"function"},{"inputs":[{"internalType":"uint8","name":"_choice","type":"uint8"},{"internalType":"string","name":"_battleName","type":"string"}],"name":"attackOrDefendChoice","outputs":[],"stateMutability":"nonpayable","type":"function"},{"inputs":[{"internalType":"address","name":"account","type":"address"},{"internalType":"uint256","name":"id","type":"uint256"}],"name":"balanceOf","outputs":[{"internalType":"uint256","name":"","type":"uint256"}],"stateMutability":"view","type":"function"},{"inputs":[{"internalType":"address[]","name":"accounts","type":"address[]"},{"internalType":"uint256[]","name":"ids","type":"uint256[]"}],"name":"balanceOfBatch","outputs":[{"internalType":"uint256[]","name":"","type":"uint256[]"}],"stateMutability":"view","type":"function"},{"inputs":[],"name":"baseURI","outputs":[{"internalType":"string","name":"","type":"string"}],"stateMutability":"view","type":"function"},{"inputs":[{"internalType":"string","name":"","type":"string"}],"name":"battleInfo","outputs":[{"internalType":"uint256","name":"","type":"uint256"}],"stateMutability":"view","type":"function"},{"inputs":[{"internalType":"uint256","name":"","type":"uint256"}],"name":"battles","outputs":[{"internalType":"enum AVAXGods.BattleStatus","name":"battleStatus","type":"uint8"},{"internalType":"bytes32","name":"battleHash","type":"bytes32"},{"internalType":"string","name":"name","type":"string"},{"internalType":"address","name":"winner","type":"address"}],"stateMutability":"view","type":"function"},{"inputs":[{"internalType":"string","name":"_name","type":"string"}],"name":"createBattle","outputs":[{"components":[{"internalType":"enum AVAXGods.BattleStatus","name":"battleStatus","type":"uint8"},{"internalType":"bytes32","name":"battleHash","type":"bytes32"},{"internalType":"string","name":"name","type":"string"},{"internalType":"address[2]","name":"players","type":"address[2]"},{"internalType":"uint8[2]","name":"moves","type":"uint8[2]"},{"internalType":"address","name":"winner","type":"address"}],"internalType":"struct AVAXGods.Battle","name":"","type":"tuple"}],"stateMutability":"nonpayable","type":"function"},{"inputs":[{"internalType":"string","name":"_name","type":"string"}],"name":"createRandomGameToken","outputs":[],"stateMutability":"nonpayable","type":"function"},{"inputs":[{"internalType":"uint256","name":"id","type":"uint256"}],"name":"exists","outputs":[{"internalType":"bool","name":"","type":"bool"}],"stateMutability":"view","type":"function"},{"inputs":[{"internalType":"uint256","name":"","type":"uint256"}],"name":"gameTokens","outputs":[{"internalType":"string","name":"name","type":"string"},{"internalType":"uint256","name":"id","type":"uint256"},{"internalType":"uint256","name":"attackStrength","type":"uint256"},{"internalType":"uint256","name":"defenseStrength","type":"uint256"}],"stateMutability":"view","type":"function"},{"inputs":[],"name":"getAllBattles","outputs":[{"components":[{"internalType":"enum AVAXGods.BattleStatus","name":"battleStatus","type":"uint8"},{"internalType":"bytes32","name":"battleHash","type":"bytes32"},{"internalType":"string","name":"name","type":"string"},{"internalType":"address[2]","name":"players","type":"address[2]"},{"internalType":"uint8[2]","name":"moves","type":"uint8[2]"},{"internalType":"address","name":"winner","type":"address"}],"internalType":"struct AVAXGods.Battle[]","name":"","type":"tuple[]"}],"stateMutability":"view","type":"function"},{"inputs":[],"name":"getAllPlayerTokens","outputs":[{"components":[{"internalType":"string","name":"name","type":"string"},{"internalType":"uint256","name":"id","type":"uint256"},{"internalType":"uint256","name":"attackStrength","type":"uint256"},{"internalType":"uint256","name":"defenseStrength","type":"uint256"}],"internalType":"struct AVAXGods.GameToken[]","name":"","type":"tuple[]"}],"stateMutability":"view","type":"function"},{"inputs":[],"name":"getAllPlayers","outputs":[{"components":[{"internalType":"address","name":"playerAddress","type":"address"},{"internalType":"string","name":"playerName","type":"string"},{"internalType":"uint256","name":"playerMana","type":"uint256"},{"internalType":"uint256","name":"playerHealth","type":"uint256"},{"internalType":"bool","name":"inBattle","type":"bool"}],"internalType":"struct AVAXGods.Player[]","name":"","type":"tuple[]"}],"stateMutability":"view","type":"function"},{"inputs":[{"internalType":"string","name":"_name","type":"string"}],"name":"getBattle","outputs":[{"components":[{"internalType":"enum AVAXGods.BattleStatus","name":"battleStatus","type":"uint8"},{"internalType":"bytes32","name":"battleHash","type":"bytes32"},{"internalType":"string","name":"name","type":"string"},{"internalType":"address[2]","name":"players","type":"address[2]"},{"internalType":"uint8[2]","name":"moves","type":"uint8[2]"},{"internalType":"address","name":"winner","type":"address"}],"internalType":"struct AVAXGods.Battle","name":"","type":"tuple"}],"stateMutability":"view","type":"function"},{"inputs":[{"internalType":"string","name":"_battleName","type":"string"}],"name":"getBattleMoves","outputs":[{"internalType":"uint256","name":"P1Move","type":"uint256"},{"internalType":"uint256","name":"P2Move","type":"uint256"}],"stateMutability":"view","type":"function"},{"inputs":[{"internalType":"address","name":"addr","type":"address"}],"name":"getPlayer","outputs":[{"components":[{"internalType":"address","name":"playerAddress","type":"address"},{"internalType":"string","name":"playerName","type":"string"},{"internalType":"uint256","name":"playerMana","type":"uint256"},{"internalType":"uint256","name":"playerHealth","type":"uint256"},{"internalType":"bool","name":"inBattle","type":"bool"}],"internalType":"struct AVAXGods.Player","name":"","type":"tuple"}],"stateMutability":"view","type":"function"},{"inputs":[{"internalType":"address","name":"addr","type":"address"}],"name":"getPlayerToken","outputs":[{"components":[{"internalType":"string","name":"name","type":"string"},{"internalType":"uint256","name":"id","type":"uint256"},{"internalType":"uint256","name":"attackStrength","type":"uint256"},{"internalType":"uint256","name":"defenseStrength","type":"uint256"}],"internalType":"struct AVAXGods.GameToken","name":"","type":"tuple"}],"stateMutability":"view","type":"function"},{"inputs":[],"name":"getTotalSupply","outputs":[{"internalType":"uint256","name":"","type":"uint256"}],"stateMutability":"view","type":"function"},{"inputs":[{"internalType":"address","name":"account","type":"address"},{"internalType":"address","name":"operator","type":"address"}],"name":"isApprovedForAll","outputs":[{"internalType":"bool","name":"","type":"bool"}],"stateMutability":"view","type":"function"},{"inputs":[{"internalType":"string","name":"_name","type":"string"}],"name":"isBattle","outputs":[{"internalType":"bool","name":"","type":"bool"}],"stateMutability":"view","type":"function"},{"inputs":[{"internalType":"address","name":"addr","type":"address"}],"name":"isPlayer","outputs":[{"internalType":"bool","name":"","type":"bool"}],"stateMutability":"view","type":"function"},{"inputs":[{"internalType":"address","name":"addr","type":"address"}],"name":"isPlayerToken","outputs":[{"internalType":"bool","name":"","type":"bool"}],"stateMutability":"view","type":"function"},{"inputs":[{"internalType":"string","name":"_name","type":"string"}],"name":"joinBattle","outputs":[{"components":[{"internalType":"enum AVAXGods.BattleStatus","name":"battleStatus","type":"uint8"},{"internalType":"bytes32","name":"battleHash","type":"bytes32"},{"internalType":"string","name":"name","type":"string"},{"internalType":"address[2]","name":"players","type":"address[2]"},{"internalType":"uint8[2]","name":"moves","type":"uint8[2]"},{"internalType":"address","name":"winner","type":"address"}],"internalType":"struct AVAXGods.Battle","name":"","type":"tuple"}],"stateMutability":"nonpayable","type":"function"},{"inputs":[],"name":"owner","outputs":[{"internalType":"address","name":"","type":"address"}],"stateMutability":"view","type":"function"},{"inputs":[{"internalType":"address","name":"","type":"address"}],"name":"playerInfo","outputs":[{"internalType":"uint256","name":"","type":"uint256"}],"stateMutability":"view","type":"function"},{"inputs":[{"internalType":"address","name":"","type":"address"}],"name":"playerTokenInfo","outputs":[{"internalType":"uint256","name":"","type":"uint256"}],"stateMutability":"view","type":"function"},{"inputs":[{"internalType":"uint256","name":"","type":"uint256"}],"name":"players","outputs":[{"internalType":"address","name":"playerAddress","type":"address"},{"internalType":"string","name":"playerName","type":"string"},{"internalType":"uint256","name":"playerMana","type":"uint256"},{"internalType":"uint256","name":"playerHealth","type":"uint256"},{"internalType":"bool","name":"inBattle","type":"bool"}],"stateMutability":"view","type":"function"},{"inputs":[{"internalType":"string","name":"_battleName","type":"string"}],"name":"quitBattle","outputs":[],"stateMutability":"nonpayable","type":"function"},{"inputs":[{"internalType":"string","name":"_name","type":"string"},{"internalType":"string","name":"_gameTokenName","type":"string"}],"name":"registerPlayer","outputs":[],"stateMutability":"nonpayable","type":"function"},{"inputs":[],"name":"renounceOwnership","outputs":[],"stateMutability":"nonpayable","type":"function"},{"inputs":[{"internalType":"address","name":"from","type":"address"},{"internalType":"address","name":"to","type":"address"},{"internalType":"uint256[]","name":"ids","type":"uint256[]"},{"internalType":"uint256[]","name":"amounts","type":"uint256[]"},{"internalType":"bytes","name":"data","type":"bytes"}],"name":"safeBatchTransferFrom","outputs":[],"stateMutability":"nonpayable","type":"function"},{"inputs":[{"internalType":"address","name":"from","type":"address"},{"internalType":"address","name":"to","type":"address"},{"internalType":"uint256","name":"id","type":"uint256"},{"internalType":"uint256","name":"amount","type":"uint256"},{"internalType":"bytes","name":"data","type":"bytes"}],"name":"safeTransferFrom","outputs":[],"stateMutability":"nonpayable","type":"function"},{"inputs":[{"internalType":"address","name":"operator","type":"address"},{"internalType":"bool","name":"approved","type":"bool"}],"name":"setApprovalForAll","outputs":[],"stateMutability":"nonpayable","type":"function"},{"inputs":[{"internalType":"string","name":"newuri","type":"string"}],"name":"setURI","outputs":[],"stateMutability":"nonpayable","type":"function"},{"inputs":[{"internalType":"bytes4","name":"interfaceId","type":"bytes4"}],"name":"supportsInterface","outputs":[{"internalType":"bool","name":"","type":"bool"}],"stateMutability":"view","type":"function"},{"inputs":[{"internalType":"uint256","name":"tokenId","type":"uint256"}],"name":"tokenURI","outputs":[{"internalType":"string","name":"","type":"string"}],"stateMutability":"view","type":"function"},{"inputs":[],"name":"totalSupply","outputs":[{"internalType":"uint256","name":"","type":"uint256"}],"stateMutability":"view","type":"function"},{"inputs":[{"internalType":"uint256","name":"id","type":"uint256"}],"name":"totalSupply","outputs":[{"internalType":"uint256","name":"","type":"uint256"}],"stateMutability":"view","type":"function"},{"inputs":[{"internalType":"address","name":"newOwner","type":"address"}],"name":"transferOwnership","outputs":[],"stateMutability":"nonpayable","type":"function"},{"inputs":[{"internalType":"uint256","name":"","type":"uint256"}],"name":"uri","outputs":[{"internalType":"string","name":"","type":"string"}],"stateMutability":"view","type":"function"}],"evm":{"bytecode":{"linkReferences":{},"object":"60806040523462000ab45762004ff5803803806200001d8162000af9565b92833981019060208183031262000ab4578051906001600160401b03821162000ab4570181601f8201121562000ab4578051906001600160401b0382116200073c5762000074601f8301601f191660200162000af9565b928284526020838301011162000ab45760005b82811062000a9e57600083850160200152835184906001600160401b0381116200073c57600254600181811c9116801562000a93575b60208210146200071b57601f811162000a51575b50806020601f8211600114620009d957600091620009cd575b508160011b916000199060031b1c1916176002555b60038054336001600160a01b0319821681179092556040516001600160a01b03909116907f8be0079c531659141344cd1fd0a4f28419497f9722a3daafe3b4186f6b6457e090600090a380516001600160401b0381116200073c57600554600181811c91168015620009c2575b60208210146200071b57601f81116200098b575b50602091601f8211600114620009215791819260009262000915575b50508160011b916000199060031b1c1916176005555b604051608081016001600160401b038111828210176200073c57604052620001d962000ad9565b6000815281526020810190600082526040810160008152606082019060008252600b54680100000000000000008110156200073c576001810180600b558110156200076857600b600052925180519460029490941b7f0175b7a638427703f0dbe7bb9bbf987a2551717b34e79f33b5b1008d1fa01db90193906001600160401b0386116200073c578454600181811c911680156200090a575b60208210146200071b57601f8111620008d4575b50602090601f871160011462000865579580916003969760009262000859575b50508160011b9160001990871b1c19161785555b5160018501555160028401555191015560405160a081016001600160401b038111828210176200073c5760405260008152620002f562000ad9565b600081526020820152600060408201526000606082015260006080820152600a5490680100000000000000008210156200073c576001820180600a558210156200076857600a6000528051600583027fc65a7bb8d6351c1cf70c95a316cc6a92839c986682d98bc35f958f4883f9d2a890810180546001600160a01b0319166001600160a01b039390931692909217909155602082015180519093906001600160401b0381116200073c5760016005830284010154600181811c911680156200084e575b60208210146200071b57601f811162000810575b506020601f82116001146200078a57918160059260049594608097986000926200077e575b50508160011b916000199060031b1c1916176001838302850101555b60408601516002838302850101556060860151600383830285010155020101910151151560ff801983541691161790556200044862000ab9565b60008152600060208201526200045d62000ab9565b60008082526020820152604051916001600160401b0360c08401908111908411176200073c5760c0830160405260008352600060208401526200049f62000ad9565b60008152604084015260608301526080820152600060a0820152600c5490680100000000000000008210156200073c576001820180600c558210156200076857600c60005280517fdf6966c971051c3d54ec59162606531493a51404a002842f56009d7e5cf4a8c79060038110156200075257600784028201805460ff191660ff929092169190911781556020830151600182015560408301518051600290920191906001600160401b0382116200073c57825490600182811c9216801562000731575b60208310146200071b5781601f849311620006d9575b50602090601f83116001146200066e5760009262000662575b50508160011b916000199060031b1c19161790555b606082015160005b600281106200063c575050608082015192600093845b6002811062000614576007830284016005810187905560a086015160069190910180546001600160a01b0319166001600160a01b039290921691909117905560405161449c908162000b398239f35b9094602060019160ff885116908460031b60ff811b9283911b169119161796019101620005c5565b81516001600160a01b0316600360078702850183010155602090910190600101620005af565b01519050868062000592565b6000858152602081209350601f198516905b818110620006c05750908460019594939210620006a6575b505050811b019055620005a7565b015160001960f88460031b161c1916905586808062000698565b9293602060018192878601518155019501930162000680565b6200070990856000526020600020601f850160051c8101916020861062000710575b601f0160051c019062000b1f565b8762000579565b9091508190620006fb565b634e487b7160e01b600052602260045260246000fd5b91607f169162000563565b634e487b7160e01b600052604160045260246000fd5b634e487b7160e01b600052602160045260246000fd5b634e487b7160e01b600052603260045260246000fd5b015190508880620003f2565b60016005840285010160005260206000209560005b601f1984168110620007f7575082608096976004969593600193600596601f19811610620007dd575b505050811b016001838302850101556200040e565b015160001960f88460031b161c19169055888080620007c8565b828201518855600190970196602092830192016200079f565b62000847906001600585028601016000526020600020601f840160051c810191602085106200071057601f0160051c019062000b1f565b85620003cd565b90607f1690620003b9565b015190508780620002a6565b90601f198716918660005260206000209260005b818110620008bb57509160019391896003999a9410620008a2575b505050811b018555620002ba565b015160001983891b60f8161c1916905587808062000894565b9293602060018192878601518155019501930162000879565b6200090390866000526020600020601f890160051c81019160208a106200071057601f0160051c019062000b1f565b8662000286565b90607f169062000272565b0151905082806200019c565b601f19821692600560005260206000209160005b858110620009725750836001951062000958575b505050811b01600555620001b2565b015160001960f88460031b161c1916905582808062000949565b9192602060018192868501518155019401920162000935565b620009bb9060056000526020600020601f840160051c810191602085106200071057601f0160051c019062000b1f565b8262000180565b90607f16906200016c565b905082015183620000ea565b6002600090815260008051602062004fd58339815191529250601f198416905b81811062000a385750908360019493921062000a1e575b5050811b01600255620000ff565b84015160001960f88460031b161c19169055838062000a10565b91926020600181928689015181550194019201620009f9565b600260005262000a8c9060008051602062004fd5833981519152601f840160051c810191602085106200071057601f0160051c019062000b1f565b82620000d1565b90607f1690620000bd565b8060208092840101518282870101520162000087565b600080fd5b60408051919082016001600160401b038111838210176200073c57604052565b60405190602082016001600160401b038111838210176200073c57604052565b6040519190601f01601f191682016001600160401b038111838210176200073c57604052565b81811062000b2b575050565b6000815560010162000b1f56fe6080604052600436101561001257600080fd5b60003560e01c8062fdd58e14612e06578063015a379214612d1d57806301ffc9a714612caf57806302fe530514612b885780630677aa4e14612b6c57806309c95e1014612b495780630daea2cd14612b2d5780630e89341c14612a7c57806310898e4c14612a445780631107ae3d14612a0a57806316801d17146129c057806318160ddd146109e35780632711162e146129865780632ca04522146128095780632eb2c2d6146123c85780633835e2b51461236c5780634b114691146123325780634e1273f4146121945780634f558e79146121665780635c12cd4b1461212e5780635c93fc3d14612045578063606d2e9614611fbe5780636c0360eb14611edc578063703730a514611ec0578063715018a614611e5e578063845f433b14611b6d5780638da5cb5b14611b44578063996d7bea14611a715780639b09cc8714611a1b5780639e4ecd11146119ff5780639ec40aa3146119c7578063a1b4f57c146117ad578063a22cb465146116c0578063ba27495614610ae9578063bd85b03914610abd578063bf034b6914610a2e578063bf103a4d14610a01578063c4e41b22146109e3578063c87b56dd146108d7578063d2198cc5146108bb578063de96cefc1461089f578063e985e9c514610849578063efa1c48214610760578063f1da733914610744578063f242432a1461037b578063f2fde38b146102af5763f71d96cb1461022057600080fd5b346102aa5760203660031901126102aa57600435600a548110156102aa57600a6000526005602060002091020160018060a01b03815416610263600183016131e8565b9160028101549060ff600460038301549201541690610294604051958695865260a0602087015260a0860190612e84565b9260408501526060840152151560808301520390f35b600080fd5b346102aa5760203660031901126102aa576102c8612e35565b6102d06132cc565b6001600160a01b0390811690811561032757600380546001600160a01b03198116841790915560405160009390929091167f8be0079c531659141344cd1fd0a4f28419497f9722a3daafe3b4186f6b6457e08484a3f35b60405162461bcd60e51b815260206004820152602660248201527f4f776e61626c653a206e6577206f776e657220697320746865207a65726f206160448201526564647265737360d01b6064820152608490fd5b346102aa5760a03660031901126102aa57610394612e35565b61039c612e4b565b90608480356001600160401b0381116102aa576103bd903690600401612f85565b6001600160a01b03919083831633148015610719575b6103dc906133ef565b828516156103ea8115613452565b6103f5604435613665565b610400606435613665565b91858716156106b9575b6105f9575b5050604435600052602094600086526040600020848616600052865260406000205461043f6064358210156134ac565b604435600052600087526040600020858716600052875260643590036040600020556044356000526000865260406000208482166000528652604060002061048a606435825461350b565b905560405160443581526064358782015284821690858716907fc3d58168c5ae7397731d063d5bbf3d657854427343f4c083240f7aacaa2d0f6260403392a4803b6104d2575b005b60a0600061051c958895604051978896879586938563f23a6e6160e01b9d8e87523360048801521660248601526044356044860152606435606486015284015260a4830190612e84565b0393165af1600091816105ca575b506105a057505060019061053c613581565b6308c379a01461056b575b5061054e57005b60405162461bcd60e51b81528061056760048201613610565b0390fd5b61057361359f565b908161057f5750610547565b61056760405192839262461bcd60e51b845260048401526024830190612e84565b6001600160e01b0319161490506104d05760405162461bcd60e51b81528061056760048201613538565b6105eb919250843d86116105f2575b6105e38183612f49565b810190613518565b908461052a565b503d6105d9565b92959194909360005b84518110156106aa5761061581866133db565b519061062181886133db565b5182600052600460205260406000205481811061065557610650936000526004602052036040600020556133a9565b610602565b60405162461bcd60e51b815260206004820152602860248201527f455243313135353a206275726e20616d6f756e74206578636565647320746f74604482015267616c537570706c7960c01b60648201528b90fd5b5093509390949150858061040f565b959260009794919592975b865181101561070b57806106db610706928b6133db565b516106e6828a6133db565b5160005260046020526106ff604060002091825461350b565b90556133a9565b6106c4565b50929596919490939661040a565b5082841660005260016020526040600020336000526020526103dc60ff6040600020541690506103d3565b346102aa5760003660031901126102aa57602060405160048152f35b346102aa5760003660031901126102aa57600a5461077d81613088565b9061078b6040519283612f49565b808252600a6000908152602091828401917fc65a7bb8d6351c1cf70c95a316cc6a92839c986682d98bc35f958f4883f9d2a8835b8383106108265750505050604051918083019381845251809452604083019360408160051b85010192916000955b8287106107fa5785850386f35b909192938280610816600193603f198a82030186528851613131565b96019201960195929190926107ed565b600586600192610838859a999a6136b0565b8152019201920191909594956107bf565b346102aa5760403660031901126102aa57610862612e35565b61086a612e4b565b9060018060a01b03809116600052600160205260406000209116600052602052602060ff604060002054166040519015158152f35b346102aa5760003660031901126102aa57602060405160018152f35b346102aa5760003660031901126102aa57602060405160008152f35b346102aa576020806003193601126102aa576108f460043561437f565b9060405191826000916005549261090a846131ae565b6001948686821691826000146109be57505060011461097c575b509264173539b7b760d91b6006939285602f60f81b6109649752610950825180938a8785019101612e61565b019182015203601919810185520183612f49565b610978604051928284938452830190612e84565b0390f35b8591506005600052816000206000905b8282106109a657505083010164173539b7b760d91b610924565b8054898301850152889550879390910190860161098c565b60ff1916818701528215159092028501909101915064173539b7b760d91b9050610924565b346102aa5760003660031901126102aa576020600654604051908152f35b346102aa5760203660031901126102aa576020610a24610a1f612e35565b6137a0565b6040519015158152f35b346102aa5760203660031901126102aa57600435600b548110156102aa57600b600052610aa99060021b7f0175b7a638427703f0dbe7bb9bbf987a2551717b34e79f33b5b1008d1fa01db901610a83816131e8565b906001810154906003600282015491015490604051948594608086526080860190612e84565b926020850152604084015260608301520390f35b346102aa5760203660031901126102aa5760043560005260046020526020604060002054604051908152f35b346102aa5760403660031901126102aa5760043560ff81168091036102aa5760249081356001600160401b0381116102aa57610b29903690600401612f85565b90610b33826139de565b805160038110156116375760010361164c5780516003811015611637576002146115f8576060810190815160018060a01b0381511633149081156115e1575b501561159d57608001518151516001600160a01b03163303611595576000905b600260ff8316101561149157611fe060ff9260051b160151166115515751516001600160a01b0316330361154a5760005b60018214808015611540575b156114fc57156114f55760036040610be633613700565b015110155b156114a65760405191610c1c84519360208181880196610c0c81838a612e61565b8101600981520301902054613179565b5090600260ff8416101561149157601f6005610c5293600786831c160101931683549060031b60ff811b9283911b169119161790565b90556080610c5f836139de565b0180515160ff166114885760ff60005b166002039060ff821161120b57516020015160ff1661147e5760ff8060005b1691160360ff811161112b5760ff16906001820361147357610cbe6001915b604051809281928751928391612e61565b8101039020901515907f54b82b77e7ae55a8e6c9e89deba70c7191dea2a3b08ae647b380e9f981d6a0f86000604051a315610cf557005b610cfe906139de565b606081015180516001600160a01b0316331490811561145c575b501561140457608081015160ff815116151590816113f3575b50156113a55760018060a01b0360608201515116600052600760205260406000205460ff608083015151166060610d7360018060a01b03828601515116613700565b0151606084015151604090610d90906001600160a01b031661381f565b015160608581015151919291610dae906001600160a01b031661381f565b01519260405194610dbe86612f13565b8552602085015260408401526060830152608082015260018060a01b0360206060840151015116600052600760205260406000205460ff602060808501510151166060610e1960018060a01b03602083880151015116613700565b0151606085015160200151604090610e39906001600160a01b031661381f565b015160608681015160200151919291610e5a906001600160a01b031661381f565b01519260405194610e6a86612f13565b8552602085015260408401526060830152608082015260405191610e8d83612edd565b600083526000602084015282602082015160018114808091611397575b1561115557505050606081015160408301511161107a575050606082015151610edd9083906001600160a01b031661421c565b505b604051906000825b6002821061105a5750505060407fc6bf860cbc15f7020f73993a671f01bbb1831a8a7a12c126ca735eb632e7577591a160006080820151526000602060808301510152610f388160408101516141b2565b606081015151610f50906001600160a01b0316613f96565b60018060a01b03606083015151166000526008602052806002610f7760406000205461328e565b500155600a03600a81116110455760018060a01b036060830151511660005260086020526003610fab60406000205461328e565b500155606081015160200151610fc9906001600160a01b0316613f96565b60018060a01b03602060608401510151166000526008602052806002610ff360406000205461328e565b500155600a0391600a831161103157506020606060018060a01b039201510151166000526008602052600361102c60406000205461328e565b500155005b634e487b7160e01b60009081526011600452fd5b82634e487b7160e01b60005260116004526000fd5b82516001600160a01b031681526020928301926001929092019101610ee7565b6060820151604082015181106110b0575050506060820151602001516110aa9083906001600160a01b031661421c565b50610edf565b6002929350906110f1916110d360036110c984516132ad565b5001918254613f89565b905560608101516110e960036110c987516132ad565b9055516132ad565b500180546002199283820192918311611140576002926111129255516132ad565b5001805491820191821161112b57556060810151610edf565b83634e487b7160e01b60005260116004526000fd5b85634e487b7160e01b60005260116004526000fd5b80611389575b156112435750611174604084015160808501519061350b565b6060830151909290918383106111a3575050506060840151516110aa92508491506001600160a01b031661421c565b6002936111d693806080880151116000146112205750505060408401515b60036111cd86516132ad565b500155516132ad565b50018054600219810192908311611140576002926111f59255516132ad565b50018054906003820180921161120b5755610edf565b84634e487b7160e01b60005260116004526000fd5b61122991613f89565b6060880151602001516001600160a01b03169091526111c1565b600214808061137b575b156113175750611266604083015160808401519061350b565b606084015190929091838310611298575050506060840151602001516110aa92508491506001600160a01b031661421c565b6002936112c293806080850151116000146112f75750505060408101515b60036111cd83516132ad565b500180549160038301809311611140576002926112e09255516132ad565b5001805460021981019190821161120b5755610edf565b61130091613f89565b6060880151516001600160a01b03169091526112b6565b90508061136d575b61132b575b5050610edf565b611337600291516132ad565b500180549160038301809311611140576002926113559255516132ad565b50018054906003820180921161120b57558380611324565b50600260208301511461131f565b50600160208501511461124d565b50600260208501511461115b565b506001602086015114610eaa565b60405162461bcd60e51b8152602060048201526021818401527f506c6179657273207374696c6c206e65656420746f206d616b652061206d6f766044820152606560f81b6064820152608490fd5b60ff91506020015116151583610d31565b60405162461bcd60e51b815260206004820152602b818401527f4f6e6c7920706c617965727320696e207468697320626174746c652063616e2060448201526a6d616b652061206d6f766560a81b6064820152608490fd5b602001516001600160a01b03163314905083610d18565b610cbe600091610cad565b60ff806001610c8e565b60ff6001610c6f565b85634e487b7160e01b60005260326004526000fd5b60405162461bcd60e51b8152602060048201526022818601527f4d616e61206e6f742073756666696369656e7420666f722061747461636b696e604482015261672160f01b6064820152608490fd5b6001610beb565b60405162461bcd60e51b815260206004820152601f818701527f43686f6963652073686f756c64206265206569746865722031206f72203221006044820152606490fd5b5060028314610bcf565b6001610bc3565b60405162461bcd60e51b815260206004820152601d818601527f596f75206861766520616c7265616479206d6164652061206d6f7665210000006044820152606490fd5b600190610b92565b60405162461bcd60e51b815260206004820152601a818701527f596f7520617265206e6f7420696e207468697320626174746c650000000000006044820152606490fd5b602001516001600160a01b03163314905086610b72565b60405162461bcd60e51b8152602060048201526018818601527710985d1d1b19481a185cc8185b1c9958591e48195b99195960421b6044820152606490fd5b84634e487b7160e01b60005260216004526000fd5b60405162461bcd60e51b8152602060048201526041818601527f426174746c65206e6f7420737461727465642e20506c656173652074656c6c2060448201527f616e6f7468657220706c6179657220746f206a6f696e2074686520626174746c6064820152606560f81b608482015260a490fd5b346102aa5760403660031901126102aa576116d9612e35565b60243590811515908183036102aa576001600160a01b031691338314611756576117289033600052600160205260406000208460005260205260406000209060ff801983541691151516179055565b6040519081527f17307eab39ab6107e8899845ad3d59bd9653f200f220920489ca2b5937696c3160203392a3005b60405162461bcd60e51b815260206004820152602960248201527f455243313135353a2073657474696e6720617070726f76616c20737461747573604482015268103337b91039b2b63360b91b6064820152608490fd5b346102aa576020806003193601126102aa576004356001600160401b0381116102aa576117de903690600401612f85565b906117e76138cf565b506117f1826139de565b91825160038110156119b157611972576060830180515190916001600160a01b03918216331461192357608061182633613700565b01516118ea578461184091600182523386865101526141b2565b808251511660005260078352600461185c6040600020546132ad565b500160ff199060018282541617905581848451015116600052600784526001600461188b6040600020546132ad565b5001918254161790556040840151915151167f024187b16c217a79f8d8e6252b542ec6e278fa91304acd9cfd866f2bbf00bd08604051848152806118d3339587830190612e84565b0390a3610978604051928284938452830190612fd9565b60405162461bcd60e51b8152600481018590526011602482015270416c726561647920696e20626174746c6560781b6044820152606490fd5b60405162461bcd60e51b815260048101859052602160248201527f4f6e6c7920706c617965722074776f2063616e206a6f696e206120626174746c6044820152606560f81b6064820152608490fd5b60405162461bcd60e51b8152600481018390526017602482015276426174746c6520616c726561647920737461727465642160481b6044820152606490fd5b634e487b7160e01b600052602160045260246000fd5b346102aa5760203660031901126102aa576004356001600160401b0381116102aa576119fa6104d0913690600401612f85565b613aba565b346102aa5760003660031901126102aa57602060405160058152f35b346102aa5760203660031901126102aa576004356001600160401b0381116102aa576080611a57611a526040933690600401612f85565b6139de565b015160ff6020818351169201511682519182526020820152f35b346102aa5760203660031901126102aa576004356001600160401b0381116102aa57611a52611aa4913690600401612f85565b6060810190815160018060a01b0390818151163314908115611b34575b5015611aef578251518116338103611ae3575060206104d0935101511661421c565b90506104d0925061421c565b60405162461bcd60e51b815260206004820152601b60248201527f596f7520617265206e6f7420696e207468697320626174746c652100000000006044820152606490fd5b6020015182163314905084611ac1565b346102aa5760003660031901126102aa576003546040516001600160a01b039091168152602090f35b346102aa5760403660031901126102aa576001600160401b036004358181116102aa57611b9e903690600401612f85565b6024358281116102aa57611bb6903690600401612f85565b611bbf3361368a565b611e1d57600a54604051611bd281612f13565b33815260209485820185815260408301600a8152606084019160198352608085019360008552600160401b871015611df15760018701600a55611c14876132ad565b969096611e07575186546001600160a01b0319166001600160a01b03919091161786559051805160018701929091908211611df157611c5383546131ae565b8b601f8211611db5575b50508a90601f8311600114611d195794611ce394611cf6989484600495611d099d9a957f81ef79d1cda814a60c0fc60792e648a06d9c6bae67176346d1cc8b63030bfccd9f9d9a600092611d0e575b50508160011b916000199060031b1c19161790555b51600285015551600384015551151591019060ff801983541691151516179055565b3360005260078752604060002055613aba565b6040519182918583523395830190612e84565b0390a2005b015190503880611cac565b60008481528c8120929190601f198516908e5b828210611d9d57505094600185611d099d9a957f81ef79d1cda814a60c0fc60792e648a06d9c6bae67176346d1cc8b63030bfccd9f9d9a95611ce39a95600499611cf69f9b10611d84575b505050811b019055611cc1565b015160001960f88460031b161c19169055388080611d77565b80600186978294978701518155019601940190611d2c565b611de091856000528160002090601f860160051c8201928610611de7575b601f0160051c0190613a57565b8b8b611c5d565b9091508190611dd3565b634e487b7160e01b600052604160045260246000fd5b634e487b7160e01b600052600060045260246000fd5b60405162461bcd60e51b8152602060048201526019602482015278141b185e595c88185b1c9958591e481c9959da5cdd195c9959603a1b6044820152606490fd5b346102aa5760003660031901126102aa57611e776132cc565b600380546001600160a01b0319811690915560405160009182906001600160a01b03167f8be0079c531659141344cd1fd0a4f28419497f9722a3daafe3b4186f6b6457e08284a3f35b346102aa5760003660031901126102aa57602060405160028152f35b346102aa5760003660031901126102aa57604051600090600554611eff816131ae565b808352600191808316908115611f965750600114611f3c575b61097883611f2881870382612f49565b604051918291602083526020830190612e84565b6005600090815260209450917f036b6384b5eca791c62761152d0c79bb0604c104a5fb6f4eb0703f3154bb3db05b828410611f8357505050810190910190611f2881611f18565b8054858501870152928501928101611f6a565b6109789550611f2893506020915091849260ff191682840152151560051b8201019350611f18565b346102aa5760203660031901126102aa57600435600c548110156102aa5761202590600c6000526007602060002091020160ff8154169061203b60018201549161200a600282016131e8565b90600660018060a01b03910154169260405195868096612fcc565b6020850152608060408501526080840190612e84565b9060608301520390f35b346102aa5760003660031901126102aa57600c5461206281613088565b906120706040519283612f49565b808252600c6000908152602091828401917fdf6966c971051c3d54ec59162606531493a51404a002842f56009d7e5cf4a8c7835b83831061210b5750505050604051918083019381845251809452604083019360408160051b85010192916000955b8287106120df5785850386f35b9091929382806120fb600193603f198a82030186528851612fd9565b96019201960195929190926120d2565b60078660019261211d859a999a61391e565b8152019201920191909594956120a4565b346102aa5760203660031901126102aa5761097861215261214d612e35565b613700565b604051918291602083526020830190613131565b346102aa5760203660031901126102aa57600435600052600460205260206040600020541515604051908152f35b346102aa5760403660031901126102aa576004356001600160401b038082116102aa57366023830112156102aa578160040135906121d182613088565b926121df6040519485612f49565b82845260209260248486019160051b830101913683116102aa57602401905b828210612313575050506024359081116102aa5761222090369060040161309f565b82518151036122bc5782519261223584613088565b936122436040519586612f49565b808552612252601f1991613088565b01368486013760005b81518110156122a5576122a0906122906001600160a01b0361227d83866133db565b511661228983876133db565b5190613324565b61229a82886133db565b526133a9565b61225b565b5050506109786040519282849384528301906130fd565b60405162461bcd60e51b815260048101839052602960248201527f455243313135353a206163636f756e747320616e6420696473206c656e677468604482015268040dad2e6dac2e8c6d60bb1b6064820152608490fd5b81356001600160a01b03811681036102aa5781529084019084016121fe565b346102aa5760203660031901126102aa576001600160a01b03612353612e35565b1660005260076020526020604060002054604051908152f35b346102aa5760203660031901126102aa576004356001600160401b0381116102aa576123b560206123a281933690600401612f85565b8160405193828580945193849201612e61565b8101600981520301902054604051908152f35b346102aa5760031960a0368201126102aa576123e2612e35565b906123eb612e4b565b906001600160401b03604480358281116102aa5761240d90369060040161309f565b9060649081358481116102aa5761242890369060040161309f565b9460849485359081116102aa57612443903690600401612f85565b6001600160a01b0398891698909190338a1480156127e0575b612465906133ef565b855188510361278d57881695861561247d8115613452565b8a1561274a575b612685575b60005b865181101561251c57806124a361251792896133db565b518c6124af838d6133db565b51918060005282602092600084526040600020816000528452604060002054906124db838310156134ac565b8360005260008552604060002090600052845203604060002055600052600081526040600020908b600052526106ff604060002091825461350b565b61248c565b5090919293968998878a604051604081527f4a39dc06d4c0dbc64b70af90fd698a233a518aa5d07e595d983b8c0526c8f7fb61255b604083018c6130fd565b918083036020820152806125703394896130fd565b0390a43b61257a57005b604051978896879663bc197c8160e01b9b8c89523360048a01526024890152870160a0905260a487016125ac916130fd565b908487830301908701526125bf916130fd565b9184830301908401526125d191612e84565b03815a602094600091f160009181612665575b5061263d57505060016125f5613581565b6308c379a014612606575b61054e57005b61260e61359f565b806126195750612600565b60405162461bcd60e51b815260206004820152908190610567906024830190612e84565b6001600160e01b031916146104d05760405162461bcd60e51b81528061056760048201613538565b61267e91925060203d81116105f2576105e38183612f49565b90836125e4565b96949398929590979160005b855181101561273b576126a481876133db565b516126af82896133db565b519080600052602060048152604060002054918383106126e8576126e39493929160049160005252036040600020556133a9565b612691565b508b9067616c537570706c7960c01b8f7f455243313135353a206275726e20616d6f756e74206578636565647320746f748e6040519462461bcd60e51b8652600486015260286024860152840152820152fd5b50919790959298939496612489565b98959996949392919060005b8b5181101561277e57808c6106e682612772612779958f6133db565b51926133db565b612756565b50909192939496999598612484565b60405162461bcd60e51b815260206004820152602860248201527f455243313135353a2069647320616e6420616d6f756e7473206c656e6774682081860152670dad2e6dac2e8c6d60c31b818701528790fd5b5089600052600160205260406000203360005260205261246560ff60406000205416905061245c565b346102aa576020806003193601126102aa576004356001600160401b0381116102aa5761283a903690600401612f85565b906128436138cf565b506128556128503361368a565b613a6e565b61285e8261389e565b61294957806040518181019082825261288c8161287e6040820188612e84565b03601f198101835282612f49565b5190209260405161289c81612edd565b338152600083820152604051906128b282612edd565b60008252600084830152604051956128c987612ef8565b600087528487015282604087015260608601526080850152600060a0850152612904600c549283928160405193828580945193849201612e61565b8101600981520301902055600160401b811015611df1578261292f8260016129359401600c55613179565b90613fe2565b610978604051928284938452830190612fd9565b6064906040519062461bcd60e51b825260048201526016602482015275426174746c6520616c7265616479206578697374732160501b6044820152fd5b346102aa5760203660031901126102aa576001600160a01b036129a7612e35565b1660005260086020526020604060002054604051908152f35b346102aa5760203660031901126102aa576004356001600160401b0381116102aa576129f6611a52610978923690600401612f85565b604051918291602083526020830190612fd9565b346102aa5760203660031901126102aa576004356001600160401b0381116102aa57610a24612a3f6020923690600401612f85565b61389e565b346102aa5760203660031901126102aa57610978612a68612a63612e35565b61381f565b604051918291602083526020830190612ea9565b346102aa576020806003193601126102aa576040519060008260025491612aa2836131ae565b92838352600190858282169182600014612b0d575050600114612acd575b5061096492500383612f49565b849150600260005281600020906000915b858310612af5575050610964935082010185612ac0565b80548389018501528794508693909201918101612ade565b60ff19168582015261096495151560051b8501019250879150612ac09050565b346102aa5760003660031901126102aa576020604051600a8152f35b346102aa5760203660031901126102aa576020610a24612b67612e35565b61368a565b346102aa5760003660031901126102aa57602060405160038152f35b346102aa576020806003193601126102aa576001600160401b036004358181116102aa57612bba903690600401612f85565b91612bc36132cc565b8251918211611df157612bd76002546131ae565b601f8111612c7e575b5080601f8311600114612c1a57508192600092612c0f575b50508160011b916000199060031b1c191617600255005b015190508280612bf8565b90601f19831693600260005282600020926000905b868210612c665750508360019510612c4d575b505050811b01600255005b015160001960f88460031b161c19169055828080612c42565b80600185968294968601518155019501930190612c2f565b612ca990600260005282600020601f850160051c810191848610611de757601f0160051c0190613a57565b83612be0565b346102aa5760203660031901126102aa5760043563ffffffff60e01b81168091036102aa57602090636cdb3d1360e11b8114908115612d0c575b8115612cfb575b506040519015158152f35b6301ffc9a760e01b14905082612cf0565b6303a24d0760e21b81149150612ce9565b346102aa5760003660031901126102aa57600b54612d3a81613088565b90612d486040519283612f49565b808252600b6000908152602091828401917f0175b7a638427703f0dbe7bb9bbf987a2551717b34e79f33b5b1008d1fa01db9835b838310612de35750505050604051918083019381845251809452604083019360408160051b85010192916000955b828710612db75785850386f35b909192938280612dd3600193603f198a82030186528851612ea9565b9601920196019592919092612daa565b600486600192612df5859a999a6137e6565b815201920192019190959495612d7c565b346102aa5760403660031901126102aa576020612e2d612e24612e35565b60243590613324565b604051908152f35b600435906001600160a01b03821682036102aa57565b602435906001600160a01b03821682036102aa57565b60005b838110612e745750506000910152565b8181015183820152602001612e64565b90602091612e9d81518092818552858086019101612e61565b601f01601f1916010190565b90606080612ec08451608085526080850190612e84565b936020810151602085015260408101516040850152015191015290565b604081019081106001600160401b03821117611df157604052565b60c081019081106001600160401b03821117611df157604052565b60a081019081106001600160401b03821117611df157604052565b608081019081106001600160401b03821117611df157604052565b90601f801991011681019081106001600160401b03821117611df157604052565b6001600160401b038111611df157601f01601f191660200190565b81601f820112156102aa57803590612f9c82612f6a565b92612faa6040519485612f49565b828452602083830101116102aa57816000926020809301838601378301015290565b9060038210156119b15752565b90612fe5818351612fcc565b60209182810151838301526130096040820151610100806040860152840190612e84565b926060820151606084016000905b836002831061306a5750505050608082015190600060a085015b60028210613052575050505060e09060a0600180821b039101511691015290565b828060019260ff875116815201940191019092613031565b83516001600160a01b03168252928301926001929092019101613017565b6001600160401b038111611df15760051b60200190565b81601f820112156102aa578035916130b683613088565b926130c46040519485612f49565b808452602092838086019260051b8201019283116102aa578301905b8282106130ee575050505090565b813581529083019083016130e0565b90815180825260208080930193019160005b82811061311d575050505090565b83518552938101939281019260010161310f565b9060018060a01b03825116815260808061315a602085015160a0602086015260a0850190612e84565b9360408101516040850152606081015160608501520151151591015290565b600c5481101561319857600c6000526007602060002091020190600090565b634e487b7160e01b600052603260045260246000fd5b90600182811c921680156131de575b60208310146131c857565b634e487b7160e01b600052602260045260246000fd5b91607f16916131bd565b90604051918260008254926131fc846131ae565b90818452600194858116908160001461326b5750600114613228575b505061322692500383612f49565b565b9093915060005260209081600020936000915b81831061325357505061322693508201013880613218565b8554888401850152948501948794509183019161323b565b91505061322694506020925060ff191682840152151560051b8201013880613218565b600b5481101561319857600b60005260206000209060021b0190600090565b600a5481101561319857600a6000526005602060002091020190600090565b6003546001600160a01b031633036132e057565b606460405162461bcd60e51b815260206004820152602060248201527f4f776e61626c653a2063616c6c6572206973206e6f7420746865206f776e65726044820152fd5b6001600160a01b031690811561335157600052600060205260406000209060005260205260406000205490565b60405162461bcd60e51b815260206004820152602a60248201527f455243313135353a2061646472657373207a65726f206973206e6f742061207660448201526930b634b21037bbb732b960b11b6064820152608490fd5b60001981146133b85760010190565b634e487b7160e01b600052601160045260246000fd5b8051156131985760200190565b80518210156131985760209160051b010190565b156133f657565b60405162461bcd60e51b815260206004820152602e60248201527f455243313135353a2063616c6c6572206973206e6f7420746f6b656e206f776e60448201526d195c881bdc88185c1c1c9bdd995960921b6064820152608490fd5b1561345957565b60405162461bcd60e51b815260206004820152602560248201527f455243313135353a207472616e7366657220746f20746865207a65726f206164604482015264647265737360d81b6064820152608490fd5b156134b357565b60405162461bcd60e51b815260206004820152602a60248201527f455243313135353a20696e73756666696369656e742062616c616e636520666f60448201526939103a3930b739b332b960b11b6064820152608490fd5b919082018092116133b857565b908160209103126102aa57516001600160e01b0319811681036102aa5790565b60809060208152602860208201527f455243313135353a204552433131353552656365697665722072656a656374656040820152676420746f6b656e7360c01b60608201520190565b60009060033d1161358e57565b905060046000803e60005160e01c90565b600060443d106135fc57604051600319913d83016004833e81516001600160401b03918282113d6024840111176135ff57818401948551938411613607573d850101602084870101116135ff57506135fc92910160200190612f49565b90565b949350505050565b50949350505050565b60809060208152603460208201527f455243313135353a207472616e7366657220746f206e6f6e2d455243313135356040820152732932b1b2b4bb32b91034b6b83632b6b2b73a32b960611b60608201520190565b6040519061367282612edd565b6001825260203681840137613686826133ce565b5290565b6001600160a01b03166000908152600760205260409020546136ab57600090565b600190565b906040516136bd81612f13565b608060ff6004839560018060a01b0381541685526136dd600182016131e8565b602086015260028101546040860152600381015460608601520154161515910152565b608060405161370e81612f13565b60009181838093526060602082015282604082015282606082015201526137348261368a565b15613763576001600160a01b039091168152600760205260409020546135fc9061375d906132ad565b506136b0565b60405162461bcd60e51b8152602060048201526015602482015274506c6179657220646f65736e27742065786973742160581b6044820152606490fd5b6001600160a01b03166000908152600860205260409020546136ab57600090565b604051906137ce82612f2e565b60006060838181528260208201528260408201520152565b906040516137f381612f2e565b606060038294613802816131e8565b845260018101546020850152600281015460408501520154910152565b6138276137c1565b50613831816137a0565b1561385d5760018060a01b031660005260086020526135fc61385760406000205461328e565b506137e6565b60405162461bcd60e51b815260206004820152601960248201527847616d6520746f6b656e20646f65736e27742065786973742160381b6044820152606490fd5b60206138b7918160405193828580945193849201612e61565b8101600981520301902054156000146136ab57600090565b604090600060a083516138e181612ef8565b809483825283602083015260608183015280516138fd81612edd565b81368237606083015280519061391282612edd565b36823760808201520152565b9060405161392b81612ef8565b809260ff81541660038110156119b157825260018082015490602091828501526002906139598285016131e8565b60408601526040519182600386016000915b8383106139c2575050505050908161398560a09493612edd565b60608501526040519060ff6005840154818116845260081c16908201526139ab81612edd565b6080840152600601546000196001831b0116910152565b81546001600160a01b031681529184019190840190860161396b565b6139e66138cf565b506139f08161389e565b15613a1a57613a14610c0c60206135fc938160405193828580945193849201612e61565b5061391e565b60405162461bcd60e51b8152602060048201526015602482015274426174746c6520646f65736e27742065786973742160581b6044820152606490fd5b818110613a62575050565b60008155600101613a57565b15613a7557565b60405162461bcd60e51b815260206004820152601c60248201527f506c6561736520526567697374657220506c61796572204669727374000000006044820152606490fd5b6080613ac533613700565b0151613f4c57613ad76128503361368a565b613adf6137c1565b50613ae933613f96565b80600a0390600a82116133b8576040908151602090818101904282523360601b858201526034815260608101966001600160401b0392828910848a1117611df15760ff60646006928b8a528551902006160660ff8116918215613f36575b60ff9250613b548a612f2e565b89521696608082019188835260c060a08201918783520190888252600b5493600160401b851015611df157600195868601600b55613b918661328e565b959095611e0757518051918211611df157613bac86546131ae565b601f8111613f06575b508890601f8311600114613e9e576003959493929160009183613e93575b505060001982871b1c191690881b1785555b518685015551600284015551910155336000526008835284600020558351613c0c81612edd565b600381526203078360ec1b838201523315613e4557613c2a87613665565b82865191613c3783612edd565b81835285368185013781613c4a846133ce565b526000825b613e01575b50505050866000526000835284600020336000528352846000208054908382018092116133b8575584518781528284820152600033917fc3d58168c5ae7397731d063d5bbf3d657854427343f4c083240f7aacaa2d0f62883392a4333b613cf9575b5050613cc36006546133a9565b60065582519485528401528201527fca8ab07e9ed17d119729fc652dd24df9d8430ca862dda4631925b5b4b99da36260603392a2565b8451838180613d3763f23a6e6160e01b95868352336004840152600060248401528c604484015287606484015260a0608484015260a4830190612e84565b03816000335af160009181613de2575b50613db9575050613d56613581565b6308c379a014613d85575b613d6d575b3880613cb6565b825162461bcd60e51b81528061056760048201613610565b613d8d61359f565b80613d985750613d61565b82610567865192839262461bcd60e51b845260048401526024830190612e84565b6001600160e01b031916149050613d6657825162461bcd60e51b81528061056760048201613538565b613dfa919250853d87116105f2576105e38183612f49565b9038613d47565b8151811015613e405780613e18613e3a92866133db565b51613e2382856133db565b51600052600489526106ff8b60002091825461350b565b82613c4f565b613c54565b845162461bcd60e51b815260048101849052602160248201527f455243313135353a206d696e7420746f20746865207a65726f206164647265736044820152607360f81b6064820152608490fd5b015190503880613bd3565b949392918891601f19821690886000528b6000209160005b8d828210613ef0575050978360039910613ed8575b505050811b018555613be5565b015160001983891b60f8161c19169055388080613ecb565b838b015185558d96909401939283019201613eb6565b613f3090876000528a600020601f850160051c8101918c8610611de757601f0160051c0190613a57565b38613bb5565b905060ff82146133b857600160ff920190613b47565b60405162461bcd60e51b8152602060048201526015602482015274506c6179657220697320696e206120626174746c6560581b6044820152606490fd5b919082039182116133b857565b600a9060405160208101914483524260408301526bffffffffffffffffffffffff199060601b16606082015260548152613fcf81612f2e565b519020068015613fdc5790565b50600590565b929190611e07578051926003808510156119b15760ff1982541660ff80961617825560209081840151906001918285015560029081850160408701518051906001600160401b038211611df157819061403b84546131ae565b601f8111614182575b508790601f831160011461412057600092614115575b505060001982851b1c191690851b1790555b606086015160005b8381106140f95750505090608085015191600093845b8281106140c9575050505050600582015560a09091015160069190910180546001600160a01b0319166001600160a01b03929092169190911790559050565b909192826140ed8697848d85995116919060031b60ff811b9283911b169119161790565b9601949392910161408a565b81516001600160a01b0316878201840155908501908401614074565b01519050388061405a565b90879350601f1983169185600052896000209260005b8b82821061416c5750508411614154575b505050811b01905561406c565b015160001983871b60f8161c19169055388080614147565b8385015186558b97909501949384019301614136565b6141ac908560005289600020601f850160051c8101918b8610611de757601f0160051c0190613a57565b38614044565b906141bc8261389e565b156141e05761292f610c0c6020613226948160405193828580945193849201612e61565b60405162461bcd60e51b815260206004820152601460248201527310985d1d1b1948191bd95cdb89dd08195e1a5cdd60621b6044820152606490fd5b6142246138cf565b50815160038110156119b157600214614343576002825260018060a01b038091168060a08401527fae6e5eafb6cd1cb4b139e7a0b9140aa182ee7d50e99f50d660156f79212acbc0604084019261427c8585516141b2565b806060860181815151166000526007602052600a600261430260406000205485602086510151166000526040600020549084846142df60046142bd856132ad565b50019360ff1994858154169055601960036142d7836132ad565b5001556132ad565b50015560046142ed836132ad565b5001908154169055601960036142d7836132ad565b500155518051821685810361433a57506020015116935b51936143346040519283926020845216956020830190612e84565b0390a390565b91505093614319565b60405162461bcd60e51b815260206004820152601460248201527310985d1d1b1948185b1c9958591e48195b99195960621b6044820152606490fd5b8015614448579060009082805b61442e575061439a82612f6a565b916143a86040519384612f49565b808352601f196143b782612f6a565b01366020850137925b83811561442757600019918286019586116133b85785600a8083048095048111851515166133b8576143f860ff938492870290613f89565b166030019182116133b857855111156131985760f81b6001600160f81b03191660001a908401601f01536143c0565b5050915090565b9161443d600a919492946133a9565b92048093919361438c565b5060405161445581612edd565b60018152600360fc1b60208201529056fea26469706673582212200cb860262378a834dec91a8eb6ab466ee95f627d29cc17b3cb868f47b3f4fa4364736f6c63430008100033405787fa12a823e0f2b7631cc41b3ba8828b3321ca811111fa75cd3aa3bb5ace","opcodes":"PUSH1 0x80 PUSH1 0x40 MSTORE CALLVALUE PUSH3 0xAB4 JUMPI PUSH3 0x4FF5 DUP1 CODESIZE SUB DUP1 PUSH3 0x1D DUP2 PUSH3 0xAF9 JUMP JUMPDEST SWAP3 DUP4 CODECOPY DUP2 ADD SWAP1 PUSH1 0x20 DUP2 DUP4 SUB SLT PUSH3 0xAB4 JUMPI DUP1 MLOAD SWAP1 PUSH1 0x1 PUSH1 0x1 PUSH1 0x40 SHL SUB DUP3 GT PUSH3 0xAB4 JUMPI ADD DUP2 PUSH1 0x1F DUP3 ADD SLT ISZERO PUSH3 0xAB4 JUMPI DUP1 MLOAD SWAP1 PUSH1 0x1 PUSH1 0x1 PUSH1 0x40 SHL SUB DUP3 GT PUSH3 0x73C JUMPI PUSH3 0x74 PUSH1 0x1F DUP4 ADD PUSH1 0x1F NOT AND PUSH1 0x20 ADD PUSH3 0xAF9 JUMP JUMPDEST SWAP3 DUP3 DUP5 MSTORE PUSH1 0x20 DUP4 DUP4 ADD ADD GT PUSH3 0xAB4 JUMPI PUSH1 0x0 JUMPDEST DUP3 DUP2 LT PUSH3 0xA9E JUMPI PUSH1 0x0 DUP4 DUP6 ADD PUSH1 0x20 ADD MSTORE DUP4 MLOAD DUP5 SWAP1 PUSH1 0x1 PUSH1 0x1 PUSH1 0x40 SHL SUB DUP2 GT PUSH3 0x73C JUMPI PUSH1 0x2 SLOAD PUSH1 0x1 DUP2 DUP2 SHR SWAP2 AND DUP1 ISZERO PUSH3 0xA93 JUMPI JUMPDEST PUSH1 0x20 DUP3 LT EQ PUSH3 0x71B JUMPI PUSH1 0x1F DUP2 GT PUSH3 0xA51 JUMPI JUMPDEST POP DUP1 PUSH1 0x20 PUSH1 0x1F DUP3 GT PUSH1 0x1 EQ PUSH3 0x9D9 JUMPI PUSH1 0x0 SWAP2 PUSH3 0x9CD JUMPI JUMPDEST POP DUP2 PUSH1 0x1 SHL SWAP2 PUSH1 0x0 NOT SWAP1 PUSH1 0x3 SHL SHR NOT AND OR PUSH1 0x2 SSTORE JUMPDEST PUSH1 0x3 DUP1 SLOAD CALLER PUSH1 0x1 PUSH1 0x1 PUSH1 0xA0 SHL SUB NOT DUP3 AND DUP2 OR SWAP1 SWAP3 SSTORE PUSH1 0x40 MLOAD PUSH1 0x1 PUSH1 0x1 PUSH1 0xA0 SHL SUB SWAP1 SWAP2 AND SWAP1 PUSH32 0x8BE0079C531659141344CD1FD0A4F28419497F9722A3DAAFE3B4186F6B6457E0 SWAP1 PUSH1 0x0 SWAP1 LOG3 DUP1 MLOAD PUSH1 0x1 PUSH1 0x1 PUSH1 0x40 SHL SUB DUP2 GT PUSH3 0x73C JUMPI PUSH1 0x5 SLOAD PUSH1 0x1 DUP2 DUP2 SHR SWAP2 AND DUP1 ISZERO PUSH3 0x9C2 JUMPI JUMPDEST PUSH1 0x20 DUP3 LT EQ PUSH3 0x71B JUMPI PUSH1 0x1F DUP2 GT PUSH3 0x98B JUMPI JUMPDEST POP PUSH1 0x20 SWAP2 PUSH1 0x1F DUP3 GT PUSH1 0x1 EQ PUSH3 0x921 JUMPI SWAP2 DUP2 SWAP3 PUSH1 0x0 SWAP3 PUSH3 0x915 JUMPI JUMPDEST POP POP DUP2 PUSH1 0x1 SHL SWAP2 PUSH1 0x0 NOT SWAP1 PUSH1 0x3 SHL SHR NOT AND OR PUSH1 0x5 SSTORE JUMPDEST PUSH1 0x40 MLOAD PUSH1 0x80 DUP2 ADD PUSH1 0x1 PUSH1 0x1 PUSH1 0x40 SHL SUB DUP2 GT DUP3 DUP3 LT OR PUSH3 0x73C JUMPI PUSH1 0x40 MSTORE PUSH3 0x1D9 PUSH3 0xAD9 JUMP JUMPDEST PUSH1 0x0 DUP2 MSTORE DUP2 MSTORE PUSH1 0x20 DUP2 ADD SWAP1 PUSH1 0x0 DUP3 MSTORE PUSH1 0x40 DUP2 ADD PUSH1 0x0 DUP2 MSTORE PUSH1 0x60 DUP3 ADD SWAP1 PUSH1 0x0 DUP3 MSTORE PUSH1 0xB SLOAD PUSH9 0x10000000000000000 DUP2 LT ISZERO PUSH3 0x73C JUMPI PUSH1 0x1 DUP2 ADD DUP1 PUSH1 0xB SSTORE DUP2 LT ISZERO PUSH3 0x768 JUMPI PUSH1 0xB PUSH1 0x0 MSTORE SWAP3 MLOAD DUP1 MLOAD SWAP5 PUSH1 0x2 SWAP5 SWAP1 SWAP5 SHL PUSH32 0x175B7A638427703F0DBE7BB9BBF987A2551717B34E79F33B5B1008D1FA01DB9 ADD SWAP4 SWAP1 PUSH1 0x1 PUSH1 0x1 PUSH1 0x40 SHL SUB DUP7 GT PUSH3 0x73C JUMPI DUP5 SLOAD PUSH1 0x1 DUP2 DUP2 SHR SWAP2 AND DUP1 ISZERO PUSH3 0x90A JUMPI JUMPDEST PUSH1 0x20 DUP3 LT EQ PUSH3 0x71B JUMPI PUSH1 0x1F DUP2 GT PUSH3 0x8D4 JUMPI JUMPDEST POP PUSH1 0x20 SWAP1 PUSH1 0x1F DUP8 GT PUSH1 0x1 EQ PUSH3 0x865 JUMPI SWAP6 DUP1 SWAP2 PUSH1 0x3 SWAP7 SWAP8 PUSH1 0x0 SWAP3 PUSH3 0x859 JUMPI JUMPDEST POP POP DUP2 PUSH1 0x1 SHL SWAP2 PUSH1 0x0 NOT SWAP1 DUP8 SHL SHR NOT AND OR DUP6 SSTORE JUMPDEST MLOAD PUSH1 0x1 DUP6 ADD SSTORE MLOAD PUSH1 0x2 DUP5 ADD SSTORE MLOAD SWAP2 ADD SSTORE PUSH1 0x40 MLOAD PUSH1 0xA0 DUP2 ADD PUSH1 0x1 PUSH1 0x1 PUSH1 0x40 SHL SUB DUP2 GT DUP3 DUP3 LT OR PUSH3 0x73C JUMPI PUSH1 0x40 MSTORE PUSH1 0x0 DUP2 MSTORE PUSH3 0x2F5 PUSH3 0xAD9 JUMP JUMPDEST PUSH1 0x0 DUP2 MSTORE PUSH1 0x20 DUP3 ADD MSTORE PUSH1 0x0 PUSH1 0x40 DUP3 ADD MSTORE PUSH1 0x0 PUSH1 0x60 DUP3 ADD MSTORE PUSH1 0x0 PUSH1 0x80 DUP3 ADD MSTORE PUSH1 0xA SLOAD SWAP1 PUSH9 0x10000000000000000 DUP3 LT ISZERO PUSH3 0x73C JUMPI PUSH1 0x1 DUP3 ADD DUP1 PUSH1 0xA SSTORE DUP3 LT ISZERO PUSH3 0x768 JUMPI PUSH1 0xA PUSH1 0x0 MSTORE DUP1 MLOAD PUSH1 0x5 DUP4 MUL PUSH32 0xC65A7BB8D6351C1CF70C95A316CC6A92839C986682D98BC35F958F4883F9D2A8 SWAP1 DUP2 ADD DUP1 SLOAD PUSH1 0x1 PUSH1 0x1 PUSH1 0xA0 SHL SUB NOT AND PUSH1 0x1 PUSH1 0x1 PUSH1 0xA0 SHL SUB SWAP4 SWAP1 SWAP4 AND SWAP3 SWAP1 SWAP3 OR SWAP1 SWAP2 SSTORE PUSH1 0x20 DUP3 ADD MLOAD DUP1 MLOAD SWAP1 SWAP4 SWAP1 PUSH1 0x1 PUSH1 0x1 PUSH1 0x40 SHL SUB DUP2 GT PUSH3 0x73C JUMPI PUSH1 0x1 PUSH1 0x5 DUP4 MUL DUP5 ADD ADD SLOAD PUSH1 0x1 DUP2 DUP2 SHR SWAP2 AND DUP1 ISZERO PUSH3 0x84E JUMPI JUMPDEST PUSH1 0x20 DUP3 LT EQ PUSH3 0x71B JUMPI PUSH1 0x1F DUP2 GT PUSH3 0x810 JUMPI JUMPDEST POP PUSH1 0x20 PUSH1 0x1F DUP3 GT PUSH1 0x1 EQ PUSH3 0x78A JUMPI SWAP2 DUP2 PUSH1 0x5 SWAP3 PUSH1 0x4 SWAP6 SWAP5 PUSH1 0x80 SWAP8 SWAP9 PUSH1 0x0 SWAP3 PUSH3 0x77E JUMPI JUMPDEST POP POP DUP2 PUSH1 0x1 SHL SWAP2 PUSH1 0x0 NOT SWAP1 PUSH1 0x3 SHL SHR NOT AND OR PUSH1 0x1 DUP4 DUP4 MUL DUP6 ADD ADD SSTORE JUMPDEST PUSH1 0x40 DUP7 ADD MLOAD PUSH1 0x2 DUP4 DUP4 MUL DUP6 ADD ADD SSTORE PUSH1 0x60 DUP7 ADD MLOAD PUSH1 0x3 DUP4 DUP4 MUL DUP6 ADD ADD SSTORE MUL ADD ADD SWAP2 ADD MLOAD ISZERO ISZERO PUSH1 0xFF DUP1 NOT DUP4 SLOAD AND SWAP2 AND OR SWAP1 SSTORE PUSH3 0x448 PUSH3 0xAB9 JUMP JUMPDEST PUSH1 0x0 DUP2 MSTORE PUSH1 0x0 PUSH1 0x20 DUP3 ADD MSTORE PUSH3 0x45D PUSH3 0xAB9 JUMP JUMPDEST PUSH1 0x0 DUP1 DUP3 MSTORE PUSH1 0x20 DUP3 ADD MSTORE PUSH1 0x40 MLOAD SWAP2 PUSH1 0x1 PUSH1 0x1 PUSH1 0x40 SHL SUB PUSH1 0xC0 DUP5 ADD SWAP1 DUP2 GT SWAP1 DUP5 GT OR PUSH3 0x73C JUMPI PUSH1 0xC0 DUP4 ADD PUSH1 0x40 MSTORE PUSH1 0x0 DUP4 MSTORE PUSH1 0x0 PUSH1 0x20 DUP5 ADD MSTORE PUSH3 0x49F PUSH3 0xAD9 JUMP JUMPDEST PUSH1 0x0 DUP2 MSTORE PUSH1 0x40 DUP5 ADD MSTORE PUSH1 0x60 DUP4 ADD MSTORE PUSH1 0x80 DUP3 ADD MSTORE PUSH1 0x0 PUSH1 0xA0 DUP3 ADD MSTORE PUSH1 0xC SLOAD SWAP1 PUSH9 0x10000000000000000 DUP3 LT ISZERO PUSH3 0x73C JUMPI PUSH1 0x1 DUP3 ADD DUP1 PUSH1 0xC SSTORE DUP3 LT ISZERO PUSH3 0x768 JUMPI PUSH1 0xC PUSH1 0x0 MSTORE DUP1 MLOAD PUSH32 0xDF6966C971051C3D54EC59162606531493A51404A002842F56009D7E5CF4A8C7 SWAP1 PUSH1 0x3 DUP2 LT ISZERO PUSH3 0x752 JUMPI PUSH1 0x7 DUP5 MUL DUP3 ADD DUP1 SLOAD PUSH1 0xFF NOT AND PUSH1 0xFF SWAP3 SWAP1 SWAP3 AND SWAP2 SWAP1 SWAP2 OR DUP2 SSTORE PUSH1 0x20 DUP4 ADD MLOAD PUSH1 0x1 DUP3 ADD SSTORE PUSH1 0x40 DUP4 ADD MLOAD DUP1 MLOAD PUSH1 0x2 SWAP1 SWAP3 ADD SWAP2 SWAP1 PUSH1 0x1 PUSH1 0x1 PUSH1 0x40 SHL SUB DUP3 GT PUSH3 0x73C JUMPI DUP3 SLOAD SWAP1 PUSH1 0x1 DUP3 DUP2 SHR SWAP3 AND DUP1 ISZERO PUSH3 0x731 JUMPI JUMPDEST PUSH1 0x20 DUP4 LT EQ PUSH3 0x71B JUMPI DUP2 PUSH1 0x1F DUP5 SWAP4 GT PUSH3 0x6D9 JUMPI JUMPDEST POP PUSH1 0x20 SWAP1 PUSH1 0x1F DUP4 GT PUSH1 0x1 EQ PUSH3 0x66E JUMPI PUSH1 0x0 SWAP3 PUSH3 0x662 JUMPI JUMPDEST POP POP DUP2 PUSH1 0x1 SHL SWAP2 PUSH1 0x0 NOT SWAP1 PUSH1 0x3 SHL SHR NOT AND OR SWAP1 SSTORE JUMPDEST PUSH1 0x60 DUP3 ADD MLOAD PUSH1 0x0 JUMPDEST PUSH1 0x2 DUP2 LT PUSH3 0x63C JUMPI POP POP PUSH1 0x80 DUP3 ADD MLOAD SWAP3 PUSH1 0x0 SWAP4 DUP5 JUMPDEST PUSH1 0x2 DUP2 LT PUSH3 0x614 JUMPI PUSH1 0x7 DUP4 MUL DUP5 ADD PUSH1 0x5 DUP2 ADD DUP8 SWAP1 SSTORE PUSH1 0xA0 DUP7 ADD MLOAD PUSH1 0x6 SWAP2 SWAP1 SWAP2 ADD DUP1 SLOAD PUSH1 0x1 PUSH1 0x1 PUSH1 0xA0 SHL SUB NOT AND PUSH1 0x1 PUSH1 0x1 PUSH1 0xA0 SHL SUB SWAP3 SWAP1 SWAP3 AND SWAP2 SWAP1 SWAP2 OR SWAP1 SSTORE PUSH1 0x40 MLOAD PUSH2 0x449C SWAP1 DUP2 PUSH3 0xB39 DUP3 CODECOPY RETURN JUMPDEST SWAP1 SWAP5 PUSH1 0x20 PUSH1 0x1 SWAP2 PUSH1 0xFF DUP9 MLOAD AND SWAP1 DUP5 PUSH1 0x3 SHL PUSH1 0xFF DUP2 SHL SWAP3 DUP4 SWAP2 SHL AND SWAP2 NOT AND OR SWAP7 ADD SWAP2 ADD PUSH3 0x5C5 JUMP JUMPDEST DUP2 MLOAD PUSH1 0x1 PUSH1 0x1 PUSH1 0xA0 SHL SUB AND PUSH1 0x3 PUSH1 0x7 DUP8 MUL DUP6 ADD DUP4 ADD ADD SSTORE PUSH1 0x20 SWAP1 SWAP2 ADD SWAP1 PUSH1 0x1 ADD PUSH3 0x5AF JUMP JUMPDEST ADD MLOAD SWAP1 POP DUP7 DUP1 PUSH3 0x592 JUMP JUMPDEST PUSH1 0x0 DUP6 DUP2 MSTORE PUSH1 0x20 DUP2 KECCAK256 SWAP4 POP PUSH1 0x1F NOT DUP6 AND SWAP1 JUMPDEST DUP2 DUP2 LT PUSH3 0x6C0 JUMPI POP SWAP1 DUP5 PUSH1 0x1 SWAP6 SWAP5 SWAP4 SWAP3 LT PUSH3 0x6A6 JUMPI JUMPDEST POP POP POP DUP2 SHL ADD SWAP1 SSTORE PUSH3 0x5A7 JUMP JUMPDEST ADD MLOAD PUSH1 0x0 NOT PUSH1 0xF8 DUP5 PUSH1 0x3 SHL AND SHR NOT AND SWAP1 SSTORE DUP7 DUP1 DUP1 PUSH3 0x698 JUMP JUMPDEST SWAP3 SWAP4 PUSH1 0x20 PUSH1 0x1 DUP2 SWAP3 DUP8 DUP7 ADD MLOAD DUP2 SSTORE ADD SWAP6 ADD SWAP4 ADD PUSH3 0x680 JUMP JUMPDEST PUSH3 0x709 SWAP1 DUP6 PUSH1 0x0 MSTORE PUSH1 0x20 PUSH1 0x0 KECCAK256 PUSH1 0x1F DUP6 ADD PUSH1 0x5 SHR DUP2 ADD SWAP2 PUSH1 0x20 DUP7 LT PUSH3 0x710 JUMPI JUMPDEST PUSH1 0x1F ADD PUSH1 0x5 SHR ADD SWAP1 PUSH3 0xB1F JUMP JUMPDEST DUP8 PUSH3 0x579 JUMP JUMPDEST SWAP1 SWAP2 POP DUP2 SWAP1 PUSH3 0x6FB JUMP JUMPDEST PUSH4 0x4E487B71 PUSH1 0xE0 SHL PUSH1 0x0 MSTORE PUSH1 0x22 PUSH1 0x4 MSTORE PUSH1 0x24 PUSH1 0x0 REVERT JUMPDEST SWAP2 PUSH1 0x7F AND SWAP2 PUSH3 0x563 JUMP JUMPDEST PUSH4 0x4E487B71 PUSH1 0xE0 SHL PUSH1 0x0 MSTORE PUSH1 0x41 PUSH1 0x4 MSTORE PUSH1 0x24 PUSH1 0x0 REVERT JUMPDEST PUSH4 0x4E487B71 PUSH1 0xE0 SHL PUSH1 0x0 MSTORE PUSH1 0x21 PUSH1 0x4 MSTORE PUSH1 0x24 PUSH1 0x0 REVERT JUMPDEST PUSH4 0x4E487B71 PUSH1 0xE0 SHL PUSH1 0x0 MSTORE PUSH1 0x32 PUSH1 0x4 MSTORE PUSH1 0x24 PUSH1 0x0 REVERT JUMPDEST ADD MLOAD SWAP1 POP DUP9 DUP1 PUSH3 0x3F2 JUMP JUMPDEST PUSH1 0x1 PUSH1 0x5 DUP5 MUL DUP6 ADD ADD PUSH1 0x0 MSTORE PUSH1 0x20 PUSH1 0x0 KECCAK256 SWAP6 PUSH1 0x0 JUMPDEST PUSH1 0x1F NOT DUP5 AND DUP2 LT PUSH3 0x7F7 JUMPI POP DUP3 PUSH1 0x80 SWAP7 SWAP8 PUSH1 0x4 SWAP7 SWAP6 SWAP4 PUSH1 0x1 SWAP4 PUSH1 0x5 SWAP7 PUSH1 0x1F NOT DUP2 AND LT PUSH3 0x7DD JUMPI JUMPDEST POP POP POP DUP2 SHL ADD PUSH1 0x1 DUP4 DUP4 MUL DUP6 ADD ADD SSTORE PUSH3 0x40E JUMP JUMPDEST ADD MLOAD PUSH1 0x0 NOT PUSH1 0xF8 DUP5 PUSH1 0x3 SHL AND SHR NOT AND SWAP1 SSTORE DUP9 DUP1 DUP1 PUSH3 0x7C8 JUMP JUMPDEST DUP3 DUP3 ADD MLOAD DUP9 SSTORE PUSH1 0x1 SWAP1 SWAP8 ADD SWAP7 PUSH1 0x20 SWAP3 DUP4 ADD SWAP3 ADD PUSH3 0x79F JUMP JUMPDEST PUSH3 0x847 SWAP1 PUSH1 0x1 PUSH1 0x5 DUP6 MUL DUP7 ADD ADD PUSH1 0x0 MSTORE PUSH1 0x20 PUSH1 0x0 KECCAK256 PUSH1 0x1F DUP5 ADD PUSH1 0x5 SHR DUP2 ADD SWAP2 PUSH1 0x20 DUP6 LT PUSH3 0x710 JUMPI PUSH1 0x1F ADD PUSH1 0x5 SHR ADD SWAP1 PUSH3 0xB1F JUMP JUMPDEST DUP6 PUSH3 0x3CD JUMP JUMPDEST SWAP1 PUSH1 0x7F AND SWAP1 PUSH3 0x3B9 JUMP JUMPDEST ADD MLOAD SWAP1 POP DUP8 DUP1 PUSH3 0x2A6 JUMP JUMPDEST SWAP1 PUSH1 0x1F NOT DUP8 AND SWAP2 DUP7 PUSH1 0x0 MSTORE PUSH1 0x20 PUSH1 0x0 KECCAK256 SWAP3 PUSH1 0x0 JUMPDEST DUP2 DUP2 LT PUSH3 0x8BB JUMPI POP SWAP2 PUSH1 0x1 SWAP4 SWAP2 DUP10 PUSH1 0x3 SWAP10 SWAP11 SWAP5 LT PUSH3 0x8A2 JUMPI JUMPDEST POP POP POP DUP2 SHL ADD DUP6 SSTORE PUSH3 0x2BA JUMP JUMPDEST ADD MLOAD PUSH1 0x0 NOT DUP4 DUP10 SHL PUSH1 0xF8 AND SHR NOT AND SWAP1 SSTORE DUP8 DUP1 DUP1 PUSH3 0x894 JUMP JUMPDEST SWAP3 SWAP4 PUSH1 0x20 PUSH1 0x1 DUP2 SWAP3 DUP8 DUP7 ADD MLOAD DUP2 SSTORE ADD SWAP6 ADD SWAP4 ADD PUSH3 0x879 JUMP JUMPDEST PUSH3 0x903 SWAP1 DUP7 PUSH1 0x0 MSTORE PUSH1 0x20 PUSH1 0x0 KECCAK256 PUSH1 0x1F DUP10 ADD PUSH1 0x5 SHR DUP2 ADD SWAP2 PUSH1 0x20 DUP11 LT PUSH3 0x710 JUMPI PUSH1 0x1F ADD PUSH1 0x5 SHR ADD SWAP1 PUSH3 0xB1F JUMP JUMPDEST DUP7 PUSH3 0x286 JUMP JUMPDEST SWAP1 PUSH1 0x7F AND SWAP1 PUSH3 0x272 JUMP JUMPDEST ADD MLOAD SWAP1 POP DUP3 DUP1 PUSH3 0x19C JUMP JUMPDEST PUSH1 0x1F NOT DUP3 AND SWAP3 PUSH1 0x5 PUSH1 0x0 MSTORE PUSH1 0x20 PUSH1 0x0 KECCAK256 SWAP2 PUSH1 0x0 JUMPDEST DUP6 DUP2 LT PUSH3 0x972 JUMPI POP DUP4 PUSH1 0x1 SWAP6 LT PUSH3 0x958 JUMPI JUMPDEST POP POP POP DUP2 SHL ADD PUSH1 0x5 SSTORE PUSH3 0x1B2 JUMP JUMPDEST ADD MLOAD PUSH1 0x0 NOT PUSH1 0xF8 DUP5 PUSH1 0x3 SHL AND SHR NOT AND SWAP1 SSTORE DUP3 DUP1 DUP1 PUSH3 0x949 JUMP JUMPDEST SWAP2 SWAP3 PUSH1 0x20 PUSH1 0x1 DUP2 SWAP3 DUP7 DUP6 ADD MLOAD DUP2 SSTORE ADD SWAP5 ADD SWAP3 ADD PUSH3 0x935 JUMP JUMPDEST PUSH3 0x9BB SWAP1 PUSH1 0x5 PUSH1 0x0 MSTORE PUSH1 0x20 PUSH1 0x0 KECCAK256 PUSH1 0x1F DUP5 ADD PUSH1 0x5 SHR DUP2 ADD SWAP2 PUSH1 0x20 DUP6 LT PUSH3 0x710 JUMPI PUSH1 0x1F ADD PUSH1 0x5 SHR ADD SWAP1 PUSH3 0xB1F JUMP JUMPDEST DUP3 PUSH3 0x180 JUMP JUMPDEST SWAP1 PUSH1 0x7F AND SWAP1 PUSH3 0x16C JUMP JUMPDEST SWAP1 POP DUP3 ADD MLOAD DUP4 PUSH3 0xEA JUMP JUMPDEST PUSH1 0x2 PUSH1 0x0 SWAP1 DUP2 MSTORE PUSH1 0x0 DUP1 MLOAD PUSH1 0x20 PUSH3 0x4FD5 DUP4 CODECOPY DUP2 MLOAD SWAP2 MSTORE SWAP3 POP PUSH1 0x1F NOT DUP5 AND SWAP1 JUMPDEST DUP2 DUP2 LT PUSH3 0xA38 JUMPI POP SWAP1 DUP4 PUSH1 0x1 SWAP5 SWAP4 SWAP3 LT PUSH3 0xA1E JUMPI JUMPDEST POP POP DUP2 SHL ADD PUSH1 0x2 SSTORE PUSH3 0xFF JUMP JUMPDEST DUP5 ADD MLOAD PUSH1 0x0 NOT PUSH1 0xF8 DUP5 PUSH1 0x3 SHL AND SHR NOT AND SWAP1 SSTORE DUP4 DUP1 PUSH3 0xA10 JUMP JUMPDEST SWAP2 SWAP3 PUSH1 0x20 PUSH1 0x1 DUP2 SWAP3 DUP7 DUP10 ADD MLOAD DUP2 SSTORE ADD SWAP5 ADD SWAP3 ADD PUSH3 0x9F9 JUMP JUMPDEST PUSH1 0x2 PUSH1 0x0 MSTORE PUSH3 0xA8C SWAP1 PUSH1 0x0 DUP1 MLOAD PUSH1 0x20 PUSH3 0x4FD5 DUP4 CODECOPY DUP2 MLOAD SWAP2 MSTORE PUSH1 0x1F DUP5 ADD PUSH1 0x5 SHR DUP2 ADD SWAP2 PUSH1 0x20 DUP6 LT PUSH3 0x710 JUMPI PUSH1 0x1F ADD PUSH1 0x5 SHR ADD SWAP1 PUSH3 0xB1F JUMP JUMPDEST DUP3 PUSH3 0xD1 JUMP JUMPDEST SWAP1 PUSH1 0x7F AND SWAP1 PUSH3 0xBD JUMP JUMPDEST DUP1 PUSH1 0x20 DUP1 SWAP3 DUP5 ADD ADD MLOAD DUP3 DUP3 DUP8 ADD ADD MSTORE ADD PUSH3 0x87 JUMP JUMPDEST PUSH1 0x0 DUP1 REVERT JUMPDEST PUSH1 0x40 DUP1 MLOAD SWAP2 SWAP1 DUP3 ADD PUSH1 0x1 PUSH1 0x1 PUSH1 0x40 SHL SUB DUP2 GT DUP4 DUP3 LT OR PUSH3 0x73C JUMPI PUSH1 0x40 MSTORE JUMP JUMPDEST PUSH1 0x40 MLOAD SWAP1 PUSH1 0x20 DUP3 ADD PUSH1 0x1 PUSH1 0x1 PUSH1 0x40 SHL SUB DUP2 GT DUP4 DUP3 LT OR PUSH3 0x73C JUMPI PUSH1 0x40 MSTORE JUMP JUMPDEST PUSH1 0x40 MLOAD SWAP2 SWAP1 PUSH1 0x1F ADD PUSH1 0x1F NOT AND DUP3 ADD PUSH1 0x1 PUSH1 0x1 PUSH1 0x40 SHL SUB DUP2 GT DUP4 DUP3 LT OR PUSH3 0x73C JUMPI PUSH1 0x40 MSTORE JUMP JUMPDEST DUP2 DUP2 LT PUSH3 0xB2B JUMPI POP POP JUMP JUMPDEST PUSH1 0x0 DUP2 SSTORE PUSH1 0x1 ADD PUSH3 0xB1F JUMP INVALID PUSH1 0x80 PUSH1 0x40 MSTORE PUSH1 0x4 CALLDATASIZE LT ISZERO PUSH2 0x12 JUMPI PUSH1 0x0 DUP1 REVERT JUMPDEST PUSH1 0x0 CALLDATALOAD PUSH1 0xE0 SHR DUP1 PUSH3 0xFDD58E EQ PUSH2 0x2E06 JUMPI DUP1 PUSH4 0x15A3792 EQ PUSH2 0x2D1D JUMPI DUP1 PUSH4 0x1FFC9A7 EQ PUSH2 0x2CAF JUMPI DUP1 PUSH4 0x2FE5305 EQ PUSH2 0x2B88 JUMPI DUP1 PUSH4 0x677AA4E EQ PUSH2 0x2B6C JUMPI DUP1 PUSH4 0x9C95E10 EQ PUSH2 0x2B49 JUMPI DUP1 PUSH4 0xDAEA2CD EQ PUSH2 0x2B2D JUMPI DUP1 PUSH4 0xE89341C EQ PUSH2 0x2A7C JUMPI DUP1 PUSH4 0x10898E4C EQ PUSH2 0x2A44 JUMPI DUP1 PUSH4 0x1107AE3D EQ PUSH2 0x2A0A JUMPI DUP1 PUSH4 0x16801D17 EQ PUSH2 0x29C0 JUMPI DUP1 PUSH4 0x18160DDD EQ PUSH2 0x9E3 JUMPI DUP1 PUSH4 0x2711162E EQ PUSH2 0x2986 JUMPI DUP1 PUSH4 0x2CA04522 EQ PUSH2 0x2809 JUMPI DUP1 PUSH4 0x2EB2C2D6 EQ PUSH2 0x23C8 JUMPI DUP1 PUSH4 0x3835E2B5 EQ PUSH2 0x236C JUMPI DUP1 PUSH4 0x4B114691 EQ PUSH2 0x2332 JUMPI DUP1 PUSH4 0x4E1273F4 EQ PUSH2 0x2194 JUMPI DUP1 PUSH4 0x4F558E79 EQ PUSH2 0x2166 JUMPI DUP1 PUSH4 0x5C12CD4B EQ PUSH2 0x212E JUMPI DUP1 PUSH4 0x5C93FC3D EQ PUSH2 0x2045 JUMPI DUP1 PUSH4 0x606D2E96 EQ PUSH2 0x1FBE JUMPI DUP1 PUSH4 0x6C0360EB EQ PUSH2 0x1EDC JUMPI DUP1 PUSH4 0x703730A5 EQ PUSH2 0x1EC0 JUMPI DUP1 PUSH4 0x715018A6 EQ PUSH2 0x1E5E JUMPI DUP1 PUSH4 0x845F433B EQ PUSH2 0x1B6D JUMPI DUP1 PUSH4 0x8DA5CB5B EQ PUSH2 0x1B44 JUMPI DUP1 PUSH4 0x996D7BEA EQ PUSH2 0x1A71 JUMPI DUP1 PUSH4 0x9B09CC87 EQ PUSH2 0x1A1B JUMPI DUP1 PUSH4 0x9E4ECD11 EQ PUSH2 0x19FF JUMPI DUP1 PUSH4 0x9EC40AA3 EQ PUSH2 0x19C7 JUMPI DUP1 PUSH4 0xA1B4F57C EQ PUSH2 0x17AD JUMPI DUP1 PUSH4 0xA22CB465 EQ PUSH2 0x16C0 JUMPI DUP1 PUSH4 0xBA274956 EQ PUSH2 0xAE9 JUMPI DUP1 PUSH4 0xBD85B039 EQ PUSH2 0xABD JUMPI DUP1 PUSH4 0xBF034B69 EQ PUSH2 0xA2E JUMPI DUP1 PUSH4 0xBF103A4D EQ PUSH2 0xA01 JUMPI DUP1 PUSH4 0xC4E41B22 EQ PUSH2 0x9E3 JUMPI DUP1 PUSH4 0xC87B56DD EQ PUSH2 0x8D7 JUMPI DUP1 PUSH4 0xD2198CC5 EQ PUSH2 0x8BB JUMPI DUP1 PUSH4 0xDE96CEFC EQ PUSH2 0x89F JUMPI DUP1 PUSH4 0xE985E9C5 EQ PUSH2 0x849 JUMPI DUP1 PUSH4 0xEFA1C482 EQ PUSH2 0x760 JUMPI DUP1 PUSH4 0xF1DA7339 EQ PUSH2 0x744 JUMPI DUP1 PUSH4 0xF242432A EQ PUSH2 0x37B JUMPI DUP1 PUSH4 0xF2FDE38B EQ PUSH2 0x2AF JUMPI PUSH4 0xF71D96CB EQ PUSH2 0x220 JUMPI PUSH1 0x0 DUP1 REVERT JUMPDEST CALLVALUE PUSH2 0x2AA JUMPI PUSH1 0x20 CALLDATASIZE PUSH1 0x3 NOT ADD SLT PUSH2 0x2AA JUMPI PUSH1 0x4 CALLDATALOAD PUSH1 0xA SLOAD DUP2 LT ISZERO PUSH2 0x2AA JUMPI PUSH1 0xA PUSH1 0x0 MSTORE PUSH1 0x5 PUSH1 0x20 PUSH1 0x0 KECCAK256 SWAP2 MUL ADD PUSH1 0x1 DUP1 PUSH1 0xA0 SHL SUB DUP2 SLOAD AND PUSH2 0x263 PUSH1 0x1 DUP4 ADD PUSH2 0x31E8 JUMP JUMPDEST SWAP2 PUSH1 0x2 DUP2 ADD SLOAD SWAP1 PUSH1 0xFF PUSH1 0x4 PUSH1 0x3 DUP4 ADD SLOAD SWAP3 ADD SLOAD AND SWAP1 PUSH2 0x294 PUSH1 0x40 MLOAD SWAP6 DUP7 SWAP6 DUP7 MSTORE PUSH1 0xA0 PUSH1 0x20 DUP8 ADD MSTORE PUSH1 0xA0 DUP7 ADD SWAP1 PUSH2 0x2E84 JUMP JUMPDEST SWAP3 PUSH1 0x40 DUP6 ADD MSTORE PUSH1 0x60 DUP5 ADD MSTORE ISZERO ISZERO PUSH1 0x80 DUP4 ADD MSTORE SUB SWAP1 RETURN JUMPDEST PUSH1 0x0 DUP1 REVERT JUMPDEST CALLVALUE PUSH2 0x2AA JUMPI PUSH1 0x20 CALLDATASIZE PUSH1 0x3 NOT ADD SLT PUSH2 0x2AA JUMPI PUSH2 0x2C8 PUSH2 0x2E35 JUMP JUMPDEST PUSH2 0x2D0 PUSH2 0x32CC JUMP JUMPDEST PUSH1 0x1 PUSH1 0x1 PUSH1 0xA0 SHL SUB SWAP1 DUP2 AND SWAP1 DUP2 ISZERO PUSH2 0x327 JUMPI PUSH1 0x3 DUP1 SLOAD PUSH1 0x1 PUSH1 0x1 PUSH1 0xA0 SHL SUB NOT DUP2 AND DUP5 OR SWAP1 SWAP2 SSTORE PUSH1 0x40 MLOAD PUSH1 0x0 SWAP4 SWAP1 SWAP3 SWAP1 SWAP2 AND PUSH32 0x8BE0079C531659141344CD1FD0A4F28419497F9722A3DAAFE3B4186F6B6457E0 DUP5 DUP5 LOG3 RETURN JUMPDEST PUSH1 0x40 MLOAD PUSH3 0x461BCD PUSH1 0xE5 SHL DUP2 MSTORE PUSH1 0x20 PUSH1 0x4 DUP3 ADD MSTORE PUSH1 0x26 PUSH1 0x24 DUP3 ADD MSTORE PUSH32 0x4F776E61626C653A206E6577206F776E657220697320746865207A65726F2061 PUSH1 0x44 DUP3 ADD MSTORE PUSH6 0x646472657373 PUSH1 0xD0 SHL PUSH1 0x64 DUP3 ADD MSTORE PUSH1 0x84 SWAP1 REVERT JUMPDEST CALLVALUE PUSH2 0x2AA JUMPI PUSH1 0xA0 CALLDATASIZE PUSH1 0x3 NOT ADD SLT PUSH2 0x2AA JUMPI PUSH2 0x394 PUSH2 0x2E35 JUMP JUMPDEST PUSH2 0x39C PUSH2 0x2E4B JUMP JUMPDEST SWAP1 PUSH1 0x84 DUP1 CALLDATALOAD PUSH1 0x1 PUSH1 0x1 PUSH1 0x40 SHL SUB DUP2 GT PUSH2 0x2AA JUMPI PUSH2 0x3BD SWAP1 CALLDATASIZE SWAP1 PUSH1 0x4 ADD PUSH2 0x2F85 JUMP JUMPDEST PUSH1 0x1 PUSH1 0x1 PUSH1 0xA0 SHL SUB SWAP2 SWAP1 DUP4 DUP4 AND CALLER EQ DUP1 ISZERO PUSH2 0x719 JUMPI JUMPDEST PUSH2 0x3DC SWAP1 PUSH2 0x33EF JUMP JUMPDEST DUP3 DUP6 AND ISZERO PUSH2 0x3EA DUP2 ISZERO PUSH2 0x3452 JUMP JUMPDEST PUSH2 0x3F5 PUSH1 0x44 CALLDATALOAD PUSH2 0x3665 JUMP JUMPDEST PUSH2 0x400 PUSH1 0x64 CALLDATALOAD PUSH2 0x3665 JUMP JUMPDEST SWAP2 DUP6 DUP8 AND ISZERO PUSH2 0x6B9 JUMPI JUMPDEST PUSH2 0x5F9 JUMPI JUMPDEST POP POP PUSH1 0x44 CALLDATALOAD PUSH1 0x0 MSTORE PUSH1 0x20 SWAP5 PUSH1 0x0 DUP7 MSTORE PUSH1 0x40 PUSH1 0x0 KECCAK256 DUP5 DUP7 AND PUSH1 0x0 MSTORE DUP7 MSTORE PUSH1 0x40 PUSH1 0x0 KECCAK256 SLOAD PUSH2 0x43F PUSH1 0x64 CALLDATALOAD DUP3 LT ISZERO PUSH2 0x34AC JUMP JUMPDEST PUSH1 0x44 CALLDATALOAD PUSH1 0x0 MSTORE PUSH1 0x0 DUP8 MSTORE PUSH1 0x40 PUSH1 0x0 KECCAK256 DUP6 DUP8 AND PUSH1 0x0 MSTORE DUP8 MSTORE PUSH1 0x64 CALLDATALOAD SWAP1 SUB PUSH1 0x40 PUSH1 0x0 KECCAK256 SSTORE PUSH1 0x44 CALLDATALOAD PUSH1 0x0 MSTORE PUSH1 0x0 DUP7 MSTORE PUSH1 0x40 PUSH1 0x0 KECCAK256 DUP5 DUP3 AND PUSH1 0x0 MSTORE DUP7 MSTORE PUSH1 0x40 PUSH1 0x0 KECCAK256 PUSH2 0x48A PUSH1 0x64 CALLDATALOAD DUP3 SLOAD PUSH2 0x350B JUMP JUMPDEST SWAP1 SSTORE PUSH1 0x40 MLOAD PUSH1 0x44 CALLDATALOAD DUP2 MSTORE PUSH1 0x64 CALLDATALOAD DUP8 DUP3 ADD MSTORE DUP5 DUP3 AND SWAP1 DUP6 DUP8 AND SWAP1 PUSH32 0xC3D58168C5AE7397731D063D5BBF3D657854427343F4C083240F7AACAA2D0F62 PUSH1 0x40 CALLER SWAP3 LOG4 DUP1 EXTCODESIZE PUSH2 0x4D2 JUMPI JUMPDEST STOP JUMPDEST PUSH1 0xA0 PUSH1 0x0 PUSH2 0x51C SWAP6 DUP9 SWAP6 PUSH1 0x40 MLOAD SWAP8 DUP9 SWAP7 DUP8 SWAP6 DUP7 SWAP4 DUP6 PUSH4 0xF23A6E61 PUSH1 0xE0 SHL SWAP14 DUP15 DUP8 MSTORE CALLER PUSH1 0x4 DUP9 ADD MSTORE AND PUSH1 0x24 DUP7 ADD MSTORE PUSH1 0x44 CALLDATALOAD PUSH1 0x44 DUP7 ADD MSTORE PUSH1 0x64 CALLDATALOAD PUSH1 0x64 DUP7 ADD MSTORE DUP5 ADD MSTORE PUSH1 0xA4 DUP4 ADD SWAP1 PUSH2 0x2E84 JUMP JUMPDEST SUB SWAP4 AND GAS CALL PUSH1 0x0 SWAP2 DUP2 PUSH2 0x5CA JUMPI JUMPDEST POP PUSH2 0x5A0 JUMPI POP POP PUSH1 0x1 SWAP1 PUSH2 0x53C PUSH2 0x3581 JUMP JUMPDEST PUSH4 0x8C379A0 EQ PUSH2 0x56B JUMPI JUMPDEST POP PUSH2 0x54E JUMPI STOP JUMPDEST PUSH1 0x40 MLOAD PUSH3 0x461BCD PUSH1 0xE5 SHL DUP2 MSTORE DUP1 PUSH2 0x567 PUSH1 0x4 DUP3 ADD PUSH2 0x3610 JUMP JUMPDEST SUB SWAP1 REVERT JUMPDEST PUSH2 0x573 PUSH2 0x359F JUMP JUMPDEST SWAP1 DUP2 PUSH2 0x57F JUMPI POP PUSH2 0x547 JUMP JUMPDEST PUSH2 0x567 PUSH1 0x40 MLOAD SWAP3 DUP4 SWAP3 PUSH3 0x461BCD PUSH1 0xE5 SHL DUP5 MSTORE PUSH1 0x4 DUP5 ADD MSTORE PUSH1 0x24 DUP4 ADD SWAP1 PUSH2 0x2E84 JUMP JUMPDEST PUSH1 0x1 PUSH1 0x1 PUSH1 0xE0 SHL SUB NOT AND EQ SWAP1 POP PUSH2 0x4D0 JUMPI PUSH1 0x40 MLOAD PUSH3 0x461BCD PUSH1 0xE5 SHL DUP2 MSTORE DUP1 PUSH2 0x567 PUSH1 0x4 DUP3 ADD PUSH2 0x3538 JUMP JUMPDEST PUSH2 0x5EB SWAP2 SWAP3 POP DUP5 RETURNDATASIZE DUP7 GT PUSH2 0x5F2 JUMPI JUMPDEST PUSH2 0x5E3 DUP2 DUP4 PUSH2 0x2F49 JUMP JUMPDEST DUP2 ADD SWAP1 PUSH2 0x3518 JUMP JUMPDEST SWAP1 DUP5 PUSH2 0x52A JUMP JUMPDEST POP RETURNDATASIZE PUSH2 0x5D9 JUMP JUMPDEST SWAP3 SWAP6 SWAP2 SWAP5 SWAP1 SWAP4 PUSH1 0x0 JUMPDEST DUP5 MLOAD DUP2 LT ISZERO PUSH2 0x6AA JUMPI PUSH2 0x615 DUP2 DUP7 PUSH2 0x33DB JUMP JUMPDEST MLOAD SWAP1 PUSH2 0x621 DUP2 DUP9 PUSH2 0x33DB JUMP JUMPDEST MLOAD DUP3 PUSH1 0x0 MSTORE PUSH1 0x4 PUSH1 0x20 MSTORE PUSH1 0x40 PUSH1 0x0 KECCAK256 SLOAD DUP2 DUP2 LT PUSH2 0x655 JUMPI PUSH2 0x650 SWAP4 PUSH1 0x0 MSTORE PUSH1 0x4 PUSH1 0x20 MSTORE SUB PUSH1 0x40 PUSH1 0x0 KECCAK256 SSTORE PUSH2 0x33A9 JUMP JUMPDEST PUSH2 0x602 JUMP JUMPDEST PUSH1 0x40 MLOAD PUSH3 0x461BCD PUSH1 0xE5 SHL DUP2 MSTORE PUSH1 0x20 PUSH1 0x4 DUP3 ADD MSTORE PUSH1 0x28 PUSH1 0x24 DUP3 ADD MSTORE PUSH32 0x455243313135353A206275726E20616D6F756E74206578636565647320746F74 PUSH1 0x44 DUP3 ADD MSTORE PUSH8 0x616C537570706C79 PUSH1 0xC0 SHL PUSH1 0x64 DUP3 ADD MSTORE DUP12 SWAP1 REVERT JUMPDEST POP SWAP4 POP SWAP4 SWAP1 SWAP5 SWAP2 POP DUP6 DUP1 PUSH2 0x40F JUMP JUMPDEST SWAP6 SWAP3 PUSH1 0x0 SWAP8 SWAP5 SWAP2 SWAP6 SWAP3 SWAP8 JUMPDEST DUP7 MLOAD DUP2 LT ISZERO PUSH2 0x70B JUMPI DUP1 PUSH2 0x6DB PUSH2 0x706 SWAP3 DUP12 PUSH2 0x33DB JUMP JUMPDEST MLOAD PUSH2 0x6E6 DUP3 DUP11 PUSH2 0x33DB JUMP JUMPDEST MLOAD PUSH1 0x0 MSTORE PUSH1 0x4 PUSH1 0x20 MSTORE PUSH2 0x6FF PUSH1 0x40 PUSH1 0x0 KECCAK256 SWAP2 DUP3 SLOAD PUSH2 0x350B JUMP JUMPDEST SWAP1 SSTORE PUSH2 0x33A9 JUMP JUMPDEST PUSH2 0x6C4 JUMP JUMPDEST POP SWAP3 SWAP6 SWAP7 SWAP2 SWAP5 SWAP1 SWAP4 SWAP7 PUSH2 0x40A JUMP JUMPDEST POP DUP3 DUP5 AND PUSH1 0x0 MSTORE PUSH1 0x1 PUSH1 0x20 MSTORE PUSH1 0x40 PUSH1 0x0 KECCAK256 CALLER PUSH1 0x0 MSTORE PUSH1 0x20 MSTORE PUSH2 0x3DC PUSH1 0xFF PUSH1 0x40 PUSH1 0x0 KECCAK256 SLOAD AND SWAP1 POP PUSH2 0x3D3 JUMP JUMPDEST CALLVALUE PUSH2 0x2AA JUMPI PUSH1 0x0 CALLDATASIZE PUSH1 0x3 NOT ADD SLT PUSH2 0x2AA JUMPI PUSH1 0x20 PUSH1 0x40 MLOAD PUSH1 0x4 DUP2 MSTORE RETURN JUMPDEST CALLVALUE PUSH2 0x2AA JUMPI PUSH1 0x0 CALLDATASIZE PUSH1 0x3 NOT ADD SLT PUSH2 0x2AA JUMPI PUSH1 0xA SLOAD PUSH2 0x77D DUP2 PUSH2 0x3088 JUMP JUMPDEST SWAP1 PUSH2 0x78B PUSH1 0x40 MLOAD SWAP3 DUP4 PUSH2 0x2F49 JUMP JUMPDEST DUP1 DUP3 MSTORE PUSH1 0xA PUSH1 0x0 SWAP1 DUP2 MSTORE PUSH1 0x20 SWAP2 DUP3 DUP5 ADD SWAP2 PUSH32 0xC65A7BB8D6351C1CF70C95A316CC6A92839C986682D98BC35F958F4883F9D2A8 DUP4 JUMPDEST DUP4 DUP4 LT PUSH2 0x826 JUMPI POP POP POP POP PUSH1 0x40 MLOAD SWAP2 DUP1 DUP4 ADD SWAP4 DUP2 DUP5 MSTORE MLOAD DUP1 SWAP5 MSTORE PUSH1 0x40 DUP4 ADD SWAP4 PUSH1 0x40 DUP2 PUSH1 0x5 SHL DUP6 ADD ADD SWAP3 SWAP2 PUSH1 0x0 SWAP6 JUMPDEST DUP3 DUP8 LT PUSH2 0x7FA JUMPI DUP6 DUP6 SUB DUP7 RETURN JUMPDEST SWAP1 SWAP2 SWAP3 SWAP4 DUP3 DUP1 PUSH2 0x816 PUSH1 0x1 SWAP4 PUSH1 0x3F NOT DUP11 DUP3 SUB ADD DUP7 MSTORE DUP9 MLOAD PUSH2 0x3131 JUMP JUMPDEST SWAP7 ADD SWAP3 ADD SWAP7 ADD SWAP6 SWAP3 SWAP2 SWAP1 SWAP3 PUSH2 0x7ED JUMP JUMPDEST PUSH1 0x5 DUP7 PUSH1 0x1 SWAP3 PUSH2 0x838 DUP6 SWAP11 SWAP10 SWAP11 PUSH2 0x36B0 JUMP JUMPDEST DUP2 MSTORE ADD SWAP3 ADD SWAP3 ADD SWAP2 SWAP1 SWAP6 SWAP5 SWAP6 PUSH2 0x7BF JUMP JUMPDEST CALLVALUE PUSH2 0x2AA JUMPI PUSH1 0x40 CALLDATASIZE PUSH1 0x3 NOT ADD SLT PUSH2 0x2AA JUMPI PUSH2 0x862 PUSH2 0x2E35 JUMP JUMPDEST PUSH2 0x86A PUSH2 0x2E4B JUMP JUMPDEST SWAP1 PUSH1 0x1 DUP1 PUSH1 0xA0 SHL SUB DUP1 SWAP2 AND PUSH1 0x0 MSTORE PUSH1 0x1 PUSH1 0x20 MSTORE PUSH1 0x40 PUSH1 0x0 KECCAK256 SWAP2 AND PUSH1 0x0 MSTORE PUSH1 0x20 MSTORE PUSH1 0x20 PUSH1 0xFF PUSH1 0x40 PUSH1 0x0 KECCAK256 SLOAD AND PUSH1 0x40 MLOAD SWAP1 ISZERO ISZERO DUP2 MSTORE RETURN JUMPDEST CALLVALUE PUSH2 0x2AA JUMPI PUSH1 0x0 CALLDATASIZE PUSH1 0x3 NOT ADD SLT PUSH2 0x2AA JUMPI PUSH1 0x20 PUSH1 0x40 MLOAD PUSH1 0x1 DUP2 MSTORE RETURN JUMPDEST CALLVALUE PUSH2 0x2AA JUMPI PUSH1 0x0 CALLDATASIZE PUSH1 0x3 NOT ADD SLT PUSH2 0x2AA JUMPI PUSH1 0x20 PUSH1 0x40 MLOAD PUSH1 0x0 DUP2 MSTORE RETURN JUMPDEST CALLVALUE PUSH2 0x2AA JUMPI PUSH1 0x20 DUP1 PUSH1 0x3 NOT CALLDATASIZE ADD SLT PUSH2 0x2AA JUMPI PUSH2 0x8F4 PUSH1 0x4 CALLDATALOAD PUSH2 0x437F JUMP JUMPDEST SWAP1 PUSH1 0x40 MLOAD SWAP2 DUP3 PUSH1 0x0 SWAP2 PUSH1 0x5 SLOAD SWAP3 PUSH2 0x90A DUP5 PUSH2 0x31AE JUMP JUMPDEST PUSH1 0x1 SWAP5 DUP7 DUP7 DUP3 AND SWAP2 DUP3 PUSH1 0x0 EQ PUSH2 0x9BE JUMPI POP POP PUSH1 0x1 EQ PUSH2 0x97C JUMPI JUMPDEST POP SWAP3 PUSH5 0x173539B7B7 PUSH1 0xD9 SHL PUSH1 0x6 SWAP4 SWAP3 DUP6 PUSH1 0x2F PUSH1 0xF8 SHL PUSH2 0x964 SWAP8 MSTORE PUSH2 0x950 DUP3 MLOAD DUP1 SWAP4 DUP11 DUP8 DUP6 ADD SWAP2 ADD PUSH2 0x2E61 JUMP JUMPDEST ADD SWAP2 DUP3 ADD MSTORE SUB PUSH1 0x19 NOT DUP2 ADD DUP6 MSTORE ADD DUP4 PUSH2 0x2F49 JUMP JUMPDEST PUSH2 0x978 PUSH1 0x40 MLOAD SWAP3 DUP3 DUP5 SWAP4 DUP5 MSTORE DUP4 ADD SWAP1 PUSH2 0x2E84 JUMP JUMPDEST SUB SWAP1 RETURN JUMPDEST DUP6 SWAP2 POP PUSH1 0x5 PUSH1 0x0 MSTORE DUP2 PUSH1 0x0 KECCAK256 PUSH1 0x0 SWAP1 JUMPDEST DUP3 DUP3 LT PUSH2 0x9A6 JUMPI POP POP DUP4 ADD ADD PUSH5 0x173539B7B7 PUSH1 0xD9 SHL PUSH2 0x924 JUMP JUMPDEST DUP1 SLOAD DUP10 DUP4 ADD DUP6 ADD MSTORE DUP9 SWAP6 POP DUP8 SWAP4 SWAP1 SWAP2 ADD SWAP1 DUP7 ADD PUSH2 0x98C JUMP JUMPDEST PUSH1 0xFF NOT AND DUP2 DUP8 ADD MSTORE DUP3 ISZERO ISZERO SWAP1 SWAP3 MUL DUP6 ADD SWAP1 SWAP2 ADD SWAP2 POP PUSH5 0x173539B7B7 PUSH1 0xD9 SHL SWAP1 POP PUSH2 0x924 JUMP JUMPDEST CALLVALUE PUSH2 0x2AA JUMPI PUSH1 0x0 CALLDATASIZE PUSH1 0x3 NOT ADD SLT PUSH2 0x2AA JUMPI PUSH1 0x20 PUSH1 0x6 SLOAD PUSH1 0x40 MLOAD SWAP1 DUP2 MSTORE RETURN JUMPDEST CALLVALUE PUSH2 0x2AA JUMPI PUSH1 0x20 CALLDATASIZE PUSH1 0x3 NOT ADD SLT PUSH2 0x2AA JUMPI PUSH1 0x20 PUSH2 0xA24 PUSH2 0xA1F PUSH2 0x2E35 JUMP JUMPDEST PUSH2 0x37A0 JUMP JUMPDEST PUSH1 0x40 MLOAD SWAP1 ISZERO ISZERO DUP2 MSTORE RETURN JUMPDEST CALLVALUE PUSH2 0x2AA JUMPI PUSH1 0x20 CALLDATASIZE PUSH1 0x3 NOT ADD SLT PUSH2 0x2AA JUMPI PUSH1 0x4 CALLDATALOAD PUSH1 0xB SLOAD DUP2 LT ISZERO PUSH2 0x2AA JUMPI PUSH1 0xB PUSH1 0x0 MSTORE PUSH2 0xAA9 SWAP1 PUSH1 0x2 SHL PUSH32 0x175B7A638427703F0DBE7BB9BBF987A2551717B34E79F33B5B1008D1FA01DB9 ADD PUSH2 0xA83 DUP2 PUSH2 0x31E8 JUMP JUMPDEST SWAP1 PUSH1 0x1 DUP2 ADD SLOAD SWAP1 PUSH1 0x3 PUSH1 0x2 DUP3 ADD SLOAD SWAP2 ADD SLOAD SWAP1 PUSH1 0x40 MLOAD SWAP5 DUP6 SWAP5 PUSH1 0x80 DUP7 MSTORE PUSH1 0x80 DUP7 ADD SWAP1 PUSH2 0x2E84 JUMP JUMPDEST SWAP3 PUSH1 0x20 DUP6 ADD MSTORE PUSH1 0x40 DUP5 ADD MSTORE PUSH1 0x60 DUP4 ADD MSTORE SUB SWAP1 RETURN JUMPDEST CALLVALUE PUSH2 0x2AA JUMPI PUSH1 0x20 CALLDATASIZE PUSH1 0x3 NOT ADD SLT PUSH2 0x2AA JUMPI PUSH1 0x4 CALLDATALOAD PUSH1 0x0 MSTORE PUSH1 0x4 PUSH1 0x20 MSTORE PUSH1 0x20 PUSH1 0x40 PUSH1 0x0 KECCAK256 SLOAD PUSH1 0x40 MLOAD SWAP1 DUP2 MSTORE RETURN JUMPDEST CALLVALUE PUSH2 0x2AA JUMPI PUSH1 0x40 CALLDATASIZE PUSH1 0x3 NOT ADD SLT PUSH2 0x2AA JUMPI PUSH1 0x4 CALLDATALOAD PUSH1 0xFF DUP2 AND DUP1 SWAP2 SUB PUSH2 0x2AA JUMPI PUSH1 0x24 SWAP1 DUP2 CALLDATALOAD PUSH1 0x1 PUSH1 0x1 PUSH1 0x40 SHL SUB DUP2 GT PUSH2 0x2AA JUMPI PUSH2 0xB29 SWAP1 CALLDATASIZE SWAP1 PUSH1 0x4 ADD PUSH2 0x2F85 JUMP JUMPDEST SWAP1 PUSH2 0xB33 DUP3 PUSH2 0x39DE JUMP JUMPDEST DUP1 MLOAD PUSH1 0x3 DUP2 LT ISZERO PUSH2 0x1637 JUMPI PUSH1 0x1 SUB PUSH2 0x164C JUMPI DUP1 MLOAD PUSH1 0x3 DUP2 LT ISZERO PUSH2 0x1637 JUMPI PUSH1 0x2 EQ PUSH2 0x15F8 JUMPI PUSH1 0x60 DUP2 ADD SWAP1 DUP2 MLOAD PUSH1 0x1 DUP1 PUSH1 0xA0 SHL SUB DUP2 MLOAD AND CALLER EQ SWAP1 DUP2 ISZERO PUSH2 0x15E1 JUMPI JUMPDEST POP ISZERO PUSH2 0x159D JUMPI PUSH1 0x80 ADD MLOAD DUP2 MLOAD MLOAD PUSH1 0x1 PUSH1 0x1 PUSH1 0xA0 SHL SUB AND CALLER SUB PUSH2 0x1595 JUMPI PUSH1 0x0 SWAP1 JUMPDEST PUSH1 0x2 PUSH1 0xFF DUP4 AND LT ISZERO PUSH2 0x1491 JUMPI PUSH2 0x1FE0 PUSH1 0xFF SWAP3 PUSH1 0x5 SHL AND ADD MLOAD AND PUSH2 0x1551 JUMPI MLOAD MLOAD PUSH1 0x1 PUSH1 0x1 PUSH1 0xA0 SHL SUB AND CALLER SUB PUSH2 0x154A JUMPI PUSH1 0x0 JUMPDEST PUSH1 0x1 DUP3 EQ DUP1 DUP1 ISZERO PUSH2 0x1540 JUMPI JUMPDEST ISZERO PUSH2 0x14FC JUMPI ISZERO PUSH2 0x14F5 JUMPI PUSH1 0x3 PUSH1 0x40 PUSH2 0xBE6 CALLER PUSH2 0x3700 JUMP JUMPDEST ADD MLOAD LT ISZERO JUMPDEST ISZERO PUSH2 0x14A6 JUMPI PUSH1 0x40 MLOAD SWAP2 PUSH2 0xC1C DUP5 MLOAD SWAP4 PUSH1 0x20 DUP2 DUP2 DUP9 ADD SWAP7 PUSH2 0xC0C DUP2 DUP4 DUP11 PUSH2 0x2E61 JUMP JUMPDEST DUP2 ADD PUSH1 0x9 DUP2 MSTORE SUB ADD SWAP1 KECCAK256 SLOAD PUSH2 0x3179 JUMP JUMPDEST POP SWAP1 PUSH1 0x2 PUSH1 0xFF DUP5 AND LT ISZERO PUSH2 0x1491 JUMPI PUSH1 0x1F PUSH1 0x5 PUSH2 0xC52 SWAP4 PUSH1 0x7 DUP7 DUP4 SHR AND ADD ADD SWAP4 AND DUP4 SLOAD SWAP1 PUSH1 0x3 SHL PUSH1 0xFF DUP2 SHL SWAP3 DUP4 SWAP2 SHL AND SWAP2 NOT AND OR SWAP1 JUMP JUMPDEST SWAP1 SSTORE PUSH1 0x80 PUSH2 0xC5F DUP4 PUSH2 0x39DE JUMP JUMPDEST ADD DUP1 MLOAD MLOAD PUSH1 0xFF AND PUSH2 0x1488 JUMPI PUSH1 0xFF PUSH1 0x0 JUMPDEST AND PUSH1 0x2 SUB SWAP1 PUSH1 0xFF DUP3 GT PUSH2 0x120B JUMPI MLOAD PUSH1 0x20 ADD MLOAD PUSH1 0xFF AND PUSH2 0x147E JUMPI PUSH1 0xFF DUP1 PUSH1 0x0 JUMPDEST AND SWAP2 AND SUB PUSH1 0xFF DUP2 GT PUSH2 0x112B JUMPI PUSH1 0xFF AND SWAP1 PUSH1 0x1 DUP3 SUB PUSH2 0x1473 JUMPI PUSH2 0xCBE PUSH1 0x1 SWAP2 JUMPDEST PUSH1 0x40 MLOAD DUP1 SWAP3 DUP2 SWAP3 DUP8 MLOAD SWAP3 DUP4 SWAP2 PUSH2 0x2E61 JUMP JUMPDEST DUP2 ADD SUB SWAP1 KECCAK256 SWAP1 ISZERO ISZERO SWAP1 PUSH32 0x54B82B77E7AE55A8E6C9E89DEBA70C7191DEA2A3B08AE647B380E9F981D6A0F8 PUSH1 0x0 PUSH1 0x40 MLOAD LOG3 ISZERO PUSH2 0xCF5 JUMPI STOP JUMPDEST PUSH2 0xCFE SWAP1 PUSH2 0x39DE JUMP JUMPDEST PUSH1 0x60 DUP2 ADD MLOAD DUP1 MLOAD PUSH1 0x1 PUSH1 0x1 PUSH1 0xA0 SHL SUB AND CALLER EQ SWAP1 DUP2 ISZERO PUSH2 0x145C JUMPI JUMPDEST POP ISZERO PUSH2 0x1404 JUMPI PUSH1 0x80 DUP2 ADD MLOAD PUSH1 0xFF DUP2 MLOAD AND ISZERO ISZERO SWAP1 DUP2 PUSH2 0x13F3 JUMPI JUMPDEST POP ISZERO PUSH2 0x13A5 JUMPI PUSH1 0x1 DUP1 PUSH1 0xA0 SHL SUB PUSH1 0x60 DUP3 ADD MLOAD MLOAD AND PUSH1 0x0 MSTORE PUSH1 0x7 PUSH1 0x20 MSTORE PUSH1 0x40 PUSH1 0x0 KECCAK256 SLOAD PUSH1 0xFF PUSH1 0x80 DUP4 ADD MLOAD MLOAD AND PUSH1 0x60 PUSH2 0xD73 PUSH1 0x1 DUP1 PUSH1 0xA0 SHL SUB DUP3 DUP7 ADD MLOAD MLOAD AND PUSH2 0x3700 JUMP JUMPDEST ADD MLOAD PUSH1 0x60 DUP5 ADD MLOAD MLOAD PUSH1 0x40 SWAP1 PUSH2 0xD90 SWAP1 PUSH1 0x1 PUSH1 0x1 PUSH1 0xA0 SHL SUB AND PUSH2 0x381F JUMP JUMPDEST ADD MLOAD PUSH1 0x60 DUP6 DUP2 ADD MLOAD MLOAD SWAP2 SWAP3 SWAP2 PUSH2 0xDAE SWAP1 PUSH1 0x1 PUSH1 0x1 PUSH1 0xA0 SHL SUB AND PUSH2 0x381F JUMP JUMPDEST ADD MLOAD SWAP3 PUSH1 0x40 MLOAD SWAP5 PUSH2 0xDBE DUP7 PUSH2 0x2F13 JUMP JUMPDEST DUP6 MSTORE PUSH1 0x20 DUP6 ADD MSTORE PUSH1 0x40 DUP5 ADD MSTORE PUSH1 0x60 DUP4 ADD MSTORE PUSH1 0x80 DUP3 ADD MSTORE PUSH1 0x1 DUP1 PUSH1 0xA0 SHL SUB PUSH1 0x20 PUSH1 0x60 DUP5 ADD MLOAD ADD MLOAD AND PUSH1 0x0 MSTORE PUSH1 0x7 PUSH1 0x20 MSTORE PUSH1 0x40 PUSH1 0x0 KECCAK256 SLOAD PUSH1 0xFF PUSH1 0x20 PUSH1 0x80 DUP6 ADD MLOAD ADD MLOAD AND PUSH1 0x60 PUSH2 0xE19 PUSH1 0x1 DUP1 PUSH1 0xA0 SHL SUB PUSH1 0x20 DUP4 DUP9 ADD MLOAD ADD MLOAD AND PUSH2 0x3700 JUMP JUMPDEST ADD MLOAD PUSH1 0x60 DUP6 ADD MLOAD PUSH1 0x20 ADD MLOAD PUSH1 0x40 SWAP1 PUSH2 0xE39 SWAP1 PUSH1 0x1 PUSH1 0x1 PUSH1 0xA0 SHL SUB AND PUSH2 0x381F JUMP JUMPDEST ADD MLOAD PUSH1 0x60 DUP7 DUP2 ADD MLOAD PUSH1 0x20 ADD MLOAD SWAP2 SWAP3 SWAP2 PUSH2 0xE5A SWAP1 PUSH1 0x1 PUSH1 0x1 PUSH1 0xA0 SHL SUB AND PUSH2 0x381F JUMP JUMPDEST ADD MLOAD SWAP3 PUSH1 0x40 MLOAD SWAP5 PUSH2 0xE6A DUP7 PUSH2 0x2F13 JUMP JUMPDEST DUP6 MSTORE PUSH1 0x20 DUP6 ADD MSTORE PUSH1 0x40 DUP5 ADD MSTORE PUSH1 0x60 DUP4 ADD MSTORE PUSH1 0x80 DUP3 ADD MSTORE PUSH1 0x40 MLOAD SWAP2 PUSH2 0xE8D DUP4 PUSH2 0x2EDD JUMP JUMPDEST PUSH1 0x0 DUP4 MSTORE PUSH1 0x0 PUSH1 0x20 DUP5 ADD MSTORE DUP3 PUSH1 0x20 DUP3 ADD MLOAD PUSH1 0x1 DUP2 EQ DUP1 DUP1 SWAP2 PUSH2 0x1397 JUMPI JUMPDEST ISZERO PUSH2 0x1155 JUMPI POP POP POP PUSH1 0x60 DUP2 ADD MLOAD PUSH1 0x40 DUP4 ADD MLOAD GT PUSH2 0x107A JUMPI POP POP PUSH1 0x60 DUP3 ADD MLOAD MLOAD PUSH2 0xEDD SWAP1 DUP4 SWAP1 PUSH1 0x1 PUSH1 0x1 PUSH1 0xA0 SHL SUB AND PUSH2 0x421C JUMP JUMPDEST POP JUMPDEST PUSH1 0x40 MLOAD SWAP1 PUSH1 0x0 DUP3 JUMPDEST PUSH1 0x2 DUP3 LT PUSH2 0x105A JUMPI POP POP POP PUSH1 0x40 PUSH32 0xC6BF860CBC15F7020F73993A671F01BBB1831A8A7A12C126CA735EB632E75775 SWAP2 LOG1 PUSH1 0x0 PUSH1 0x80 DUP3 ADD MLOAD MSTORE PUSH1 0x0 PUSH1 0x20 PUSH1 0x80 DUP4 ADD MLOAD ADD MSTORE PUSH2 0xF38 DUP2 PUSH1 0x40 DUP2 ADD MLOAD PUSH2 0x41B2 JUMP JUMPDEST PUSH1 0x60 DUP2 ADD MLOAD MLOAD PUSH2 0xF50 SWAP1 PUSH1 0x1 PUSH1 0x1 PUSH1 0xA0 SHL SUB AND PUSH2 0x3F96 JUMP JUMPDEST PUSH1 0x1 DUP1 PUSH1 0xA0 SHL SUB PUSH1 0x60 DUP4 ADD MLOAD MLOAD AND PUSH1 0x0 MSTORE PUSH1 0x8 PUSH1 0x20 MSTORE DUP1 PUSH1 0x2 PUSH2 0xF77 PUSH1 0x40 PUSH1 0x0 KECCAK256 SLOAD PUSH2 0x328E JUMP JUMPDEST POP ADD SSTORE PUSH1 0xA SUB PUSH1 0xA DUP2 GT PUSH2 0x1045 JUMPI PUSH1 0x1 DUP1 PUSH1 0xA0 SHL SUB PUSH1 0x60 DUP4 ADD MLOAD MLOAD AND PUSH1 0x0 MSTORE PUSH1 0x8 PUSH1 0x20 MSTORE PUSH1 0x3 PUSH2 0xFAB PUSH1 0x40 PUSH1 0x0 KECCAK256 SLOAD PUSH2 0x328E JUMP JUMPDEST POP ADD SSTORE PUSH1 0x60 DUP2 ADD MLOAD PUSH1 0x20 ADD MLOAD PUSH2 0xFC9 SWAP1 PUSH1 0x1 PUSH1 0x1 PUSH1 0xA0 SHL SUB AND PUSH2 0x3F96 JUMP JUMPDEST PUSH1 0x1 DUP1 PUSH1 0xA0 SHL SUB PUSH1 0x20 PUSH1 0x60 DUP5 ADD MLOAD ADD MLOAD AND PUSH1 0x0 MSTORE PUSH1 0x8 PUSH1 0x20 MSTORE DUP1 PUSH1 0x2 PUSH2 0xFF3 PUSH1 0x40 PUSH1 0x0 KECCAK256 SLOAD PUSH2 0x328E JUMP JUMPDEST POP ADD SSTORE PUSH1 0xA SUB SWAP2 PUSH1 0xA DUP4 GT PUSH2 0x1031 JUMPI POP PUSH1 0x20 PUSH1 0x60 PUSH1 0x1 DUP1 PUSH1 0xA0 SHL SUB SWAP3 ADD MLOAD ADD MLOAD AND PUSH1 0x0 MSTORE PUSH1 0x8 PUSH1 0x20 MSTORE PUSH1 0x3 PUSH2 0x102C PUSH1 0x40 PUSH1 0x0 KECCAK256 SLOAD PUSH2 0x328E JUMP JUMPDEST POP ADD SSTORE STOP JUMPDEST PUSH4 0x4E487B71 PUSH1 0xE0 SHL PUSH1 0x0 SWAP1 DUP2 MSTORE PUSH1 0x11 PUSH1 0x4 MSTORE REVERT JUMPDEST DUP3 PUSH4 0x4E487B71 PUSH1 0xE0 SHL PUSH1 0x0 MSTORE PUSH1 0x11 PUSH1 0x4 MSTORE PUSH1 0x0 REVERT JUMPDEST DUP3 MLOAD PUSH1 0x1 PUSH1 0x1 PUSH1 0xA0 SHL SUB AND DUP2 MSTORE PUSH1 0x20 SWAP3 DUP4 ADD SWAP3 PUSH1 0x1 SWAP3 SWAP1 SWAP3 ADD SWAP2 ADD PUSH2 0xEE7 JUMP JUMPDEST PUSH1 0x60 DUP3 ADD MLOAD PUSH1 0x40 DUP3 ADD MLOAD DUP2 LT PUSH2 0x10B0 JUMPI POP POP POP PUSH1 0x60 DUP3 ADD MLOAD PUSH1 0x20 ADD MLOAD PUSH2 0x10AA SWAP1 DUP4 SWAP1 PUSH1 0x1 PUSH1 0x1 PUSH1 0xA0 SHL SUB AND PUSH2 0x421C JUMP JUMPDEST POP PUSH2 0xEDF JUMP JUMPDEST PUSH1 0x2 SWAP3 SWAP4 POP SWAP1 PUSH2 0x10F1 SWAP2 PUSH2 0x10D3 PUSH1 0x3 PUSH2 0x10C9 DUP5 MLOAD PUSH2 0x32AD JUMP JUMPDEST POP ADD SWAP2 DUP3 SLOAD PUSH2 0x3F89 JUMP JUMPDEST SWAP1 SSTORE PUSH1 0x60 DUP2 ADD MLOAD PUSH2 0x10E9 PUSH1 0x3 PUSH2 0x10C9 DUP8 MLOAD PUSH2 0x32AD JUMP JUMPDEST SWAP1 SSTORE MLOAD PUSH2 0x32AD JUMP JUMPDEST POP ADD DUP1 SLOAD PUSH1 0x2 NOT SWAP3 DUP4 DUP3 ADD SWAP3 SWAP2 DUP4 GT PUSH2 0x1140 JUMPI PUSH1 0x2 SWAP3 PUSH2 0x1112 SWAP3 SSTORE MLOAD PUSH2 0x32AD JUMP JUMPDEST POP ADD DUP1 SLOAD SWAP2 DUP3 ADD SWAP2 DUP3 GT PUSH2 0x112B JUMPI SSTORE PUSH1 0x60 DUP2 ADD MLOAD PUSH2 0xEDF JUMP JUMPDEST DUP4 PUSH4 0x4E487B71 PUSH1 0xE0 SHL PUSH1 0x0 MSTORE PUSH1 0x11 PUSH1 0x4 MSTORE PUSH1 0x0 REVERT JUMPDEST DUP6 PUSH4 0x4E487B71 PUSH1 0xE0 SHL PUSH1 0x0 MSTORE PUSH1 0x11 PUSH1 0x4 MSTORE PUSH1 0x0 REVERT JUMPDEST DUP1 PUSH2 0x1389 JUMPI JUMPDEST ISZERO PUSH2 0x1243 JUMPI POP PUSH2 0x1174 PUSH1 0x40 DUP5 ADD MLOAD PUSH1 0x80 DUP6 ADD MLOAD SWAP1 PUSH2 0x350B JUMP JUMPDEST PUSH1 0x60 DUP4 ADD MLOAD SWAP1 SWAP3 SWAP1 SWAP2 DUP4 DUP4 LT PUSH2 0x11A3 JUMPI POP POP POP PUSH1 0x60 DUP5 ADD MLOAD MLOAD PUSH2 0x10AA SWAP3 POP DUP5 SWAP2 POP PUSH1 0x1 PUSH1 0x1 PUSH1 0xA0 SHL SUB AND PUSH2 0x421C JUMP JUMPDEST PUSH1 0x2 SWAP4 PUSH2 0x11D6 SWAP4 DUP1 PUSH1 0x80 DUP9 ADD MLOAD GT PUSH1 0x0 EQ PUSH2 0x1220 JUMPI POP POP POP PUSH1 0x40 DUP5 ADD MLOAD JUMPDEST PUSH1 0x3 PUSH2 0x11CD DUP7 MLOAD PUSH2 0x32AD JUMP JUMPDEST POP ADD SSTORE MLOAD PUSH2 0x32AD JUMP JUMPDEST POP ADD DUP1 SLOAD PUSH1 0x2 NOT DUP2 ADD SWAP3 SWAP1 DUP4 GT PUSH2 0x1140 JUMPI PUSH1 0x2 SWAP3 PUSH2 0x11F5 SWAP3 SSTORE MLOAD PUSH2 0x32AD JUMP JUMPDEST POP ADD DUP1 SLOAD SWAP1 PUSH1 0x3 DUP3 ADD DUP1 SWAP3 GT PUSH2 0x120B JUMPI SSTORE PUSH2 0xEDF JUMP JUMPDEST DUP5 PUSH4 0x4E487B71 PUSH1 0xE0 SHL PUSH1 0x0 MSTORE PUSH1 0x11 PUSH1 0x4 MSTORE PUSH1 0x0 REVERT JUMPDEST PUSH2 0x1229 SWAP2 PUSH2 0x3F89 JUMP JUMPDEST PUSH1 0x60 DUP9 ADD MLOAD PUSH1 0x20 ADD MLOAD PUSH1 0x1 PUSH1 0x1 PUSH1 0xA0 SHL SUB AND SWAP1 SWAP2 MSTORE PUSH2 0x11C1 JUMP JUMPDEST PUSH1 0x2 EQ DUP1 DUP1 PUSH2 0x137B JUMPI JUMPDEST ISZERO PUSH2 0x1317 JUMPI POP PUSH2 0x1266 PUSH1 0x40 DUP4 ADD MLOAD PUSH1 0x80 DUP5 ADD MLOAD SWAP1 PUSH2 0x350B JUMP JUMPDEST PUSH1 0x60 DUP5 ADD MLOAD SWAP1 SWAP3 SWAP1 SWAP2 DUP4 DUP4 LT PUSH2 0x1298 JUMPI POP POP POP PUSH1 0x60 DUP5 ADD MLOAD PUSH1 0x20 ADD MLOAD PUSH2 0x10AA SWAP3 POP DUP5 SWAP2 POP PUSH1 0x1 PUSH1 0x1 PUSH1 0xA0 SHL SUB AND PUSH2 0x421C JUMP JUMPDEST PUSH1 0x2 SWAP4 PUSH2 0x12C2 SWAP4 DUP1 PUSH1 0x80 DUP6 ADD MLOAD GT PUSH1 0x0 EQ PUSH2 0x12F7 JUMPI POP POP POP PUSH1 0x40 DUP2 ADD MLOAD JUMPDEST PUSH1 0x3 PUSH2 0x11CD DUP4 MLOAD PUSH2 0x32AD JUMP JUMPDEST POP ADD DUP1 SLOAD SWAP2 PUSH1 0x3 DUP4 ADD DUP1 SWAP4 GT PUSH2 0x1140 JUMPI PUSH1 0x2 SWAP3 PUSH2 0x12E0 SWAP3 SSTORE MLOAD PUSH2 0x32AD JUMP JUMPDEST POP ADD DUP1 SLOAD PUSH1 0x2 NOT DUP2 ADD SWAP2 SWAP1 DUP3 GT PUSH2 0x120B JUMPI SSTORE PUSH2 0xEDF JUMP JUMPDEST PUSH2 0x1300 SWAP2 PUSH2 0x3F89 JUMP JUMPDEST PUSH1 0x60 DUP9 ADD MLOAD MLOAD PUSH1 0x1 PUSH1 0x1 PUSH1 0xA0 SHL SUB AND SWAP1 SWAP2 MSTORE PUSH2 0x12B6 JUMP JUMPDEST SWAP1 POP DUP1 PUSH2 0x136D JUMPI JUMPDEST PUSH2 0x132B JUMPI JUMPDEST POP POP PUSH2 0xEDF JUMP JUMPDEST PUSH2 0x1337 PUSH1 0x2 SWAP2 MLOAD PUSH2 0x32AD JUMP JUMPDEST POP ADD DUP1 SLOAD SWAP2 PUSH1 0x3 DUP4 ADD DUP1 SWAP4 GT PUSH2 0x1140 JUMPI PUSH1 0x2 SWAP3 PUSH2 0x1355 SWAP3 SSTORE MLOAD PUSH2 0x32AD JUMP JUMPDEST POP ADD DUP1 SLOAD SWAP1 PUSH1 0x3 DUP3 ADD DUP1 SWAP3 GT PUSH2 0x120B JUMPI SSTORE DUP4 DUP1 PUSH2 0x1324 JUMP JUMPDEST POP PUSH1 0x2 PUSH1 0x20 DUP4 ADD MLOAD EQ PUSH2 0x131F JUMP JUMPDEST POP PUSH1 0x1 PUSH1 0x20 DUP6 ADD MLOAD EQ PUSH2 0x124D JUMP JUMPDEST POP PUSH1 0x2 PUSH1 0x20 DUP6 ADD MLOAD EQ PUSH2 0x115B JUMP JUMPDEST POP PUSH1 0x1 PUSH1 0x20 DUP7 ADD MLOAD EQ PUSH2 0xEAA JUMP JUMPDEST PUSH1 0x40 MLOAD PUSH3 0x461BCD PUSH1 0xE5 SHL DUP2 MSTORE PUSH1 0x20 PUSH1 0x4 DUP3 ADD MSTORE PUSH1 0x21 DUP2 DUP5 ADD MSTORE PUSH32 0x506C6179657273207374696C6C206E65656420746F206D616B652061206D6F76 PUSH1 0x44 DUP3 ADD MSTORE PUSH1 0x65 PUSH1 0xF8 SHL PUSH1 0x64 DUP3 ADD MSTORE PUSH1 0x84 SWAP1 REVERT JUMPDEST PUSH1 0xFF SWAP2 POP PUSH1 0x20 ADD MLOAD AND ISZERO ISZERO DUP4 PUSH2 0xD31 JUMP JUMPDEST PUSH1 0x40 MLOAD PUSH3 0x461BCD PUSH1 0xE5 SHL DUP2 MSTORE PUSH1 0x20 PUSH1 0x4 DUP3 ADD MSTORE PUSH1 0x2B DUP2 DUP5 ADD MSTORE PUSH32 0x4F6E6C7920706C617965727320696E207468697320626174746C652063616E20 PUSH1 0x44 DUP3 ADD MSTORE PUSH11 0x6D616B652061206D6F7665 PUSH1 0xA8 SHL PUSH1 0x64 DUP3 ADD MSTORE PUSH1 0x84 SWAP1 REVERT JUMPDEST PUSH1 0x20 ADD MLOAD PUSH1 0x1 PUSH1 0x1 PUSH1 0xA0 SHL SUB AND CALLER EQ SWAP1 POP DUP4 PUSH2 0xD18 JUMP JUMPDEST PUSH2 0xCBE PUSH1 0x0 SWAP2 PUSH2 0xCAD JUMP JUMPDEST PUSH1 0xFF DUP1 PUSH1 0x1 PUSH2 0xC8E JUMP JUMPDEST PUSH1 0xFF PUSH1 0x1 PUSH2 0xC6F JUMP JUMPDEST DUP6 PUSH4 0x4E487B71 PUSH1 0xE0 SHL PUSH1 0x0 MSTORE PUSH1 0x32 PUSH1 0x4 MSTORE PUSH1 0x0 REVERT JUMPDEST PUSH1 0x40 MLOAD PUSH3 0x461BCD PUSH1 0xE5 SHL DUP2 MSTORE PUSH1 0x20 PUSH1 0x4 DUP3 ADD MSTORE PUSH1 0x22 DUP2 DUP7 ADD MSTORE PUSH32 0x4D616E61206E6F742073756666696369656E7420666F722061747461636B696E PUSH1 0x44 DUP3 ADD MSTORE PUSH2 0x6721 PUSH1 0xF0 SHL PUSH1 0x64 DUP3 ADD MSTORE PUSH1 0x84 SWAP1 REVERT JUMPDEST PUSH1 0x1 PUSH2 0xBEB JUMP JUMPDEST PUSH1 0x40 MLOAD PUSH3 0x461BCD PUSH1 0xE5 SHL DUP2 MSTORE PUSH1 0x20 PUSH1 0x4 DUP3 ADD MSTORE PUSH1 0x1F DUP2 DUP8 ADD MSTORE PUSH32 0x43686F6963652073686F756C64206265206569746865722031206F7220322100 PUSH1 0x44 DUP3 ADD MSTORE PUSH1 0x64 SWAP1 REVERT JUMPDEST POP PUSH1 0x2 DUP4 EQ PUSH2 0xBCF JUMP JUMPDEST PUSH1 0x1 PUSH2 0xBC3 JUMP JUMPDEST PUSH1 0x40 MLOAD PUSH3 0x461BCD PUSH1 0xE5 SHL DUP2 MSTORE PUSH1 0x20 PUSH1 0x4 DUP3 ADD MSTORE PUSH1 0x1D DUP2 DUP7 ADD MSTORE PUSH32 0x596F75206861766520616C7265616479206D6164652061206D6F766521000000 PUSH1 0x44 DUP3 ADD MSTORE PUSH1 0x64 SWAP1 REVERT JUMPDEST PUSH1 0x1 SWAP1 PUSH2 0xB92 JUMP JUMPDEST PUSH1 0x40 MLOAD PUSH3 0x461BCD PUSH1 0xE5 SHL DUP2 MSTORE PUSH1 0x20 PUSH1 0x4 DUP3 ADD MSTORE PUSH1 0x1A DUP2 DUP8 ADD MSTORE PUSH32 0x596F7520617265206E6F7420696E207468697320626174746C65000000000000 PUSH1 0x44 DUP3 ADD MSTORE PUSH1 0x64 SWAP1 REVERT JUMPDEST PUSH1 0x20 ADD MLOAD PUSH1 0x1 PUSH1 0x1 PUSH1 0xA0 SHL SUB AND CALLER EQ SWAP1 POP DUP7 PUSH2 0xB72 JUMP JUMPDEST PUSH1 0x40 MLOAD PUSH3 0x461BCD PUSH1 0xE5 SHL DUP2 MSTORE PUSH1 0x20 PUSH1 0x4 DUP3 ADD MSTORE PUSH1 0x18 DUP2 DUP7 ADD MSTORE PUSH24 0x10985D1D1B19481A185CC8185B1C9958591E48195B991959 PUSH1 0x42 SHL PUSH1 0x44 DUP3 ADD MSTORE PUSH1 0x64 SWAP1 REVERT JUMPDEST DUP5 PUSH4 0x4E487B71 PUSH1 0xE0 SHL PUSH1 0x0 MSTORE PUSH1 0x21 PUSH1 0x4 MSTORE PUSH1 0x0 REVERT JUMPDEST PUSH1 0x40 MLOAD PUSH3 0x461BCD PUSH1 0xE5 SHL DUP2 MSTORE PUSH1 0x20 PUSH1 0x4 DUP3 ADD MSTORE PUSH1 0x41 DUP2 DUP7 ADD MSTORE PUSH32 0x426174746C65206E6F7420737461727465642E20506C656173652074656C6C20 PUSH1 0x44 DUP3 ADD MSTORE PUSH32 0x616E6F7468657220706C6179657220746F206A6F696E2074686520626174746C PUSH1 0x64 DUP3 ADD MSTORE PUSH1 0x65 PUSH1 0xF8 SHL PUSH1 0x84 DUP3 ADD MSTORE PUSH1 0xA4 SWAP1 REVERT JUMPDEST CALLVALUE PUSH2 0x2AA JUMPI PUSH1 0x40 CALLDATASIZE PUSH1 0x3 NOT ADD SLT PUSH2 0x2AA JUMPI PUSH2 0x16D9 PUSH2 0x2E35 JUMP JUMPDEST PUSH1 0x24 CALLDATALOAD SWAP1 DUP2 ISZERO ISZERO SWAP1 DUP2 DUP4 SUB PUSH2 0x2AA JUMPI PUSH1 0x1 PUSH1 0x1 PUSH1 0xA0 SHL SUB AND SWAP2 CALLER DUP4 EQ PUSH2 0x1756 JUMPI PUSH2 0x1728 SWAP1 CALLER PUSH1 0x0 MSTORE PUSH1 0x1 PUSH1 0x20 MSTORE PUSH1 0x40 PUSH1 0x0 KECCAK256 DUP5 PUSH1 0x0 MSTORE PUSH1 0x20 MSTORE PUSH1 0x40 PUSH1 0x0 KECCAK256 SWAP1 PUSH1 0xFF DUP1 NOT DUP4 SLOAD AND SWAP2 ISZERO ISZERO AND OR SWAP1 SSTORE JUMP JUMPDEST PUSH1 0x40 MLOAD SWAP1 DUP2 MSTORE PUSH32 0x17307EAB39AB6107E8899845AD3D59BD9653F200F220920489CA2B5937696C31 PUSH1 0x20 CALLER SWAP3 LOG3 STOP JUMPDEST PUSH1 0x40 MLOAD PUSH3 0x461BCD PUSH1 0xE5 SHL DUP2 MSTORE PUSH1 0x20 PUSH1 0x4 DUP3 ADD MSTORE PUSH1 0x29 PUSH1 0x24 DUP3 ADD MSTORE PUSH32 0x455243313135353A2073657474696E6720617070726F76616C20737461747573 PUSH1 0x44 DUP3 ADD MSTORE PUSH9 0x103337B91039B2B633 PUSH1 0xB9 SHL PUSH1 0x64 DUP3 ADD MSTORE PUSH1 0x84 SWAP1 REVERT JUMPDEST CALLVALUE PUSH2 0x2AA JUMPI PUSH1 0x20 DUP1 PUSH1 0x3 NOT CALLDATASIZE ADD SLT PUSH2 0x2AA JUMPI PUSH1 0x4 CALLDATALOAD PUSH1 0x1 PUSH1 0x1 PUSH1 0x40 SHL SUB DUP2 GT PUSH2 0x2AA JUMPI PUSH2 0x17DE SWAP1 CALLDATASIZE SWAP1 PUSH1 0x4 ADD PUSH2 0x2F85 JUMP JUMPDEST SWAP1 PUSH2 0x17E7 PUSH2 0x38CF JUMP JUMPDEST POP PUSH2 0x17F1 DUP3 PUSH2 0x39DE JUMP JUMPDEST SWAP2 DUP3 MLOAD PUSH1 0x3 DUP2 LT ISZERO PUSH2 0x19B1 JUMPI PUSH2 0x1972 JUMPI PUSH1 0x60 DUP4 ADD DUP1 MLOAD MLOAD SWAP1 SWAP2 PUSH1 0x1 PUSH1 0x1 PUSH1 0xA0 SHL SUB SWAP2 DUP3 AND CALLER EQ PUSH2 0x1923 JUMPI PUSH1 0x80 PUSH2 0x1826 CALLER PUSH2 0x3700 JUMP JUMPDEST ADD MLOAD PUSH2 0x18EA JUMPI DUP5 PUSH2 0x1840 SWAP2 PUSH1 0x1 DUP3 MSTORE CALLER DUP7 DUP7 MLOAD ADD MSTORE PUSH2 0x41B2 JUMP JUMPDEST DUP1 DUP3 MLOAD MLOAD AND PUSH1 0x0 MSTORE PUSH1 0x7 DUP4 MSTORE PUSH1 0x4 PUSH2 0x185C PUSH1 0x40 PUSH1 0x0 KECCAK256 SLOAD PUSH2 0x32AD JUMP JUMPDEST POP ADD PUSH1 0xFF NOT SWAP1 PUSH1 0x1 DUP3 DUP3 SLOAD AND OR SWAP1 SSTORE DUP2 DUP5 DUP5 MLOAD ADD MLOAD AND PUSH1 0x0 MSTORE PUSH1 0x7 DUP5 MSTORE PUSH1 0x1 PUSH1 0x4 PUSH2 0x188B PUSH1 0x40 PUSH1 0x0 KECCAK256 SLOAD PUSH2 0x32AD JUMP JUMPDEST POP ADD SWAP2 DUP3 SLOAD AND OR SWAP1 SSTORE PUSH1 0x40 DUP5 ADD MLOAD SWAP2 MLOAD MLOAD AND PUSH32 0x24187B16C217A79F8D8E6252B542EC6E278FA91304ACD9CFD866F2BBF00BD08 PUSH1 0x40 MLOAD DUP5 DUP2 MSTORE DUP1 PUSH2 0x18D3 CALLER SWAP6 DUP8 DUP4 ADD SWAP1 PUSH2 0x2E84 JUMP JUMPDEST SUB SWAP1 LOG3 PUSH2 0x978 PUSH1 0x40 MLOAD SWAP3 DUP3 DUP5 SWAP4 DUP5 MSTORE DUP4 ADD SWAP1 PUSH2 0x2FD9 JUMP JUMPDEST PUSH1 0x40 MLOAD PUSH3 0x461BCD PUSH1 0xE5 SHL DUP2 MSTORE PUSH1 0x4 DUP2 ADD DUP6 SWAP1 MSTORE PUSH1 0x11 PUSH1 0x24 DUP3 ADD MSTORE PUSH17 0x416C726561647920696E20626174746C65 PUSH1 0x78 SHL PUSH1 0x44 DUP3 ADD MSTORE PUSH1 0x64 SWAP1 REVERT JUMPDEST PUSH1 0x40 MLOAD PUSH3 0x461BCD PUSH1 0xE5 SHL DUP2 MSTORE PUSH1 0x4 DUP2 ADD DUP6 SWAP1 MSTORE PUSH1 0x21 PUSH1 0x24 DUP3 ADD MSTORE PUSH32 0x4F6E6C7920706C617965722074776F2063616E206A6F696E206120626174746C PUSH1 0x44 DUP3 ADD MSTORE PUSH1 0x65 PUSH1 0xF8 SHL PUSH1 0x64 DUP3 ADD MSTORE PUSH1 0x84 SWAP1 REVERT JUMPDEST PUSH1 0x40 MLOAD PUSH3 0x461BCD PUSH1 0xE5 SHL DUP2 MSTORE PUSH1 0x4 DUP2 ADD DUP4 SWAP1 MSTORE PUSH1 0x17 PUSH1 0x24 DUP3 ADD MSTORE PUSH23 0x426174746C6520616C7265616479207374617274656421 PUSH1 0x48 SHL PUSH1 0x44 DUP3 ADD MSTORE PUSH1 0x64 SWAP1 REVERT JUMPDEST PUSH4 0x4E487B71 PUSH1 0xE0 SHL PUSH1 0x0 MSTORE PUSH1 0x21 PUSH1 0x4 MSTORE PUSH1 0x24 PUSH1 0x0 REVERT JUMPDEST CALLVALUE PUSH2 0x2AA JUMPI PUSH1 0x20 CALLDATASIZE PUSH1 0x3 NOT ADD SLT PUSH2 0x2AA JUMPI PUSH1 0x4 CALLDATALOAD PUSH1 0x1 PUSH1 0x1 PUSH1 0x40 SHL SUB DUP2 GT PUSH2 0x2AA JUMPI PUSH2 0x19FA PUSH2 0x4D0 SWAP2 CALLDATASIZE SWAP1 PUSH1 0x4 ADD PUSH2 0x2F85 JUMP JUMPDEST PUSH2 0x3ABA JUMP JUMPDEST CALLVALUE PUSH2 0x2AA JUMPI PUSH1 0x0 CALLDATASIZE PUSH1 0x3 NOT ADD SLT PUSH2 0x2AA JUMPI PUSH1 0x20 PUSH1 0x40 MLOAD PUSH1 0x5 DUP2 MSTORE RETURN JUMPDEST CALLVALUE PUSH2 0x2AA JUMPI PUSH1 0x20 CALLDATASIZE PUSH1 0x3 NOT ADD SLT PUSH2 0x2AA JUMPI PUSH1 0x4 CALLDATALOAD PUSH1 0x1 PUSH1 0x1 PUSH1 0x40 SHL SUB DUP2 GT PUSH2 0x2AA JUMPI PUSH1 0x80 PUSH2 0x1A57 PUSH2 0x1A52 PUSH1 0x40 SWAP4 CALLDATASIZE SWAP1 PUSH1 0x4 ADD PUSH2 0x2F85 JUMP JUMPDEST PUSH2 0x39DE JUMP JUMPDEST ADD MLOAD PUSH1 0xFF PUSH1 0x20 DUP2 DUP4 MLOAD AND SWAP3 ADD MLOAD AND DUP3 MLOAD SWAP2 DUP3 MSTORE PUSH1 0x20 DUP3 ADD MSTORE RETURN JUMPDEST CALLVALUE PUSH2 0x2AA JUMPI PUSH1 0x20 CALLDATASIZE PUSH1 0x3 NOT ADD SLT PUSH2 0x2AA JUMPI PUSH1 0x4 CALLDATALOAD PUSH1 0x1 PUSH1 0x1 PUSH1 0x40 SHL SUB DUP2 GT PUSH2 0x2AA JUMPI PUSH2 0x1A52 PUSH2 0x1AA4 SWAP2 CALLDATASIZE SWAP1 PUSH1 0x4 ADD PUSH2 0x2F85 JUMP JUMPDEST PUSH1 0x60 DUP2 ADD SWAP1 DUP2 MLOAD PUSH1 0x1 DUP1 PUSH1 0xA0 SHL SUB SWAP1 DUP2 DUP2 MLOAD AND CALLER EQ SWAP1 DUP2 ISZERO PUSH2 0x1B34 JUMPI JUMPDEST POP ISZERO PUSH2 0x1AEF JUMPI DUP3 MLOAD MLOAD DUP2 AND CALLER DUP2 SUB PUSH2 0x1AE3 JUMPI POP PUSH1 0x20 PUSH2 0x4D0 SWAP4 MLOAD ADD MLOAD AND PUSH2 0x421C JUMP JUMPDEST SWAP1 POP PUSH2 0x4D0 SWAP3 POP PUSH2 0x421C JUMP JUMPDEST PUSH1 0x40 MLOAD PUSH3 0x461BCD PUSH1 0xE5 SHL DUP2 MSTORE PUSH1 0x20 PUSH1 0x4 DUP3 ADD MSTORE PUSH1 0x1B PUSH1 0x24 DUP3 ADD MSTORE PUSH32 0x596F7520617265206E6F7420696E207468697320626174746C65210000000000 PUSH1 0x44 DUP3 ADD MSTORE PUSH1 0x64 SWAP1 REVERT JUMPDEST PUSH1 0x20 ADD MLOAD DUP3 AND CALLER EQ SWAP1 POP DUP5 PUSH2 0x1AC1 JUMP JUMPDEST CALLVALUE PUSH2 0x2AA JUMPI PUSH1 0x0 CALLDATASIZE PUSH1 0x3 NOT ADD SLT PUSH2 0x2AA JUMPI PUSH1 0x3 SLOAD PUSH1 0x40 MLOAD PUSH1 0x1 PUSH1 0x1 PUSH1 0xA0 SHL SUB SWAP1 SWAP2 AND DUP2 MSTORE PUSH1 0x20 SWAP1 RETURN JUMPDEST CALLVALUE PUSH2 0x2AA JUMPI PUSH1 0x40 CALLDATASIZE PUSH1 0x3 NOT ADD SLT PUSH2 0x2AA JUMPI PUSH1 0x1 PUSH1 0x1 PUSH1 0x40 SHL SUB PUSH1 0x4 CALLDATALOAD DUP2 DUP2 GT PUSH2 0x2AA JUMPI PUSH2 0x1B9E SWAP1 CALLDATASIZE SWAP1 PUSH1 0x4 ADD PUSH2 0x2F85 JUMP JUMPDEST PUSH1 0x24 CALLDATALOAD DUP3 DUP2 GT PUSH2 0x2AA JUMPI PUSH2 0x1BB6 SWAP1 CALLDATASIZE SWAP1 PUSH1 0x4 ADD PUSH2 0x2F85 JUMP JUMPDEST PUSH2 0x1BBF CALLER PUSH2 0x368A JUMP JUMPDEST PUSH2 0x1E1D JUMPI PUSH1 0xA SLOAD PUSH1 0x40 MLOAD PUSH2 0x1BD2 DUP2 PUSH2 0x2F13 JUMP JUMPDEST CALLER DUP2 MSTORE PUSH1 0x20 SWAP5 DUP6 DUP3 ADD DUP6 DUP2 MSTORE PUSH1 0x40 DUP4 ADD PUSH1 0xA DUP2 MSTORE PUSH1 0x60 DUP5 ADD SWAP2 PUSH1 0x19 DUP4 MSTORE PUSH1 0x80 DUP6 ADD SWAP4 PUSH1 0x0 DUP6 MSTORE PUSH1 0x1 PUSH1 0x40 SHL DUP8 LT ISZERO PUSH2 0x1DF1 JUMPI PUSH1 0x1 DUP8 ADD PUSH1 0xA SSTORE PUSH2 0x1C14 DUP8 PUSH2 0x32AD JUMP JUMPDEST SWAP7 SWAP1 SWAP7 PUSH2 0x1E07 JUMPI MLOAD DUP7 SLOAD PUSH1 0x1 PUSH1 0x1 PUSH1 0xA0 SHL SUB NOT AND PUSH1 0x1 PUSH1 0x1 PUSH1 0xA0 SHL SUB SWAP2 SWAP1 SWAP2 AND OR DUP7 SSTORE SWAP1 MLOAD DUP1 MLOAD PUSH1 0x1 DUP8 ADD SWAP3 SWAP1 SWAP2 SWAP1 DUP3 GT PUSH2 0x1DF1 JUMPI PUSH2 0x1C53 DUP4 SLOAD PUSH2 0x31AE JUMP JUMPDEST DUP12 PUSH1 0x1F DUP3 GT PUSH2 0x1DB5 JUMPI JUMPDEST POP POP DUP11 SWAP1 PUSH1 0x1F DUP4 GT PUSH1 0x1 EQ PUSH2 0x1D19 JUMPI SWAP5 PUSH2 0x1CE3 SWAP5 PUSH2 0x1CF6 SWAP9 SWAP5 DUP5 PUSH1 0x4 SWAP6 PUSH2 0x1D09 SWAP14 SWAP11 SWAP6 PUSH32 0x81EF79D1CDA814A60C0FC60792E648A06D9C6BAE67176346D1CC8B63030BFCCD SWAP16 SWAP14 SWAP11 PUSH1 0x0 SWAP3 PUSH2 0x1D0E JUMPI JUMPDEST POP POP DUP2 PUSH1 0x1 SHL SWAP2 PUSH1 0x0 NOT SWAP1 PUSH1 0x3 SHL SHR NOT AND OR SWAP1 SSTORE JUMPDEST MLOAD PUSH1 0x2 DUP6 ADD SSTORE MLOAD PUSH1 0x3 DUP5 ADD SSTORE MLOAD ISZERO ISZERO SWAP2 ADD SWAP1 PUSH1 0xFF DUP1 NOT DUP4 SLOAD AND SWAP2 ISZERO ISZERO AND OR SWAP1 SSTORE JUMP JUMPDEST CALLER PUSH1 0x0 MSTORE PUSH1 0x7 DUP8 MSTORE PUSH1 0x40 PUSH1 0x0 KECCAK256 SSTORE PUSH2 0x3ABA JUMP JUMPDEST PUSH1 0x40 MLOAD SWAP2 DUP3 SWAP2 DUP6 DUP4 MSTORE CALLER SWAP6 DUP4 ADD SWAP1 PUSH2 0x2E84 JUMP JUMPDEST SUB SWAP1 LOG2 STOP JUMPDEST ADD MLOAD SWAP1 POP CODESIZE DUP1 PUSH2 0x1CAC JUMP JUMPDEST PUSH1 0x0 DUP5 DUP2 MSTORE DUP13 DUP2 KECCAK256 SWAP3 SWAP2 SWAP1 PUSH1 0x1F NOT DUP6 AND SWAP1 DUP15 JUMPDEST DUP3 DUP3 LT PUSH2 0x1D9D JUMPI POP POP SWAP5 PUSH1 0x1 DUP6 PUSH2 0x1D09 SWAP14 SWAP11 SWAP6 PUSH32 0x81EF79D1CDA814A60C0FC60792E648A06D9C6BAE67176346D1CC8B63030BFCCD SWAP16 SWAP14 SWAP11 SWAP6 PUSH2 0x1CE3 SWAP11 SWAP6 PUSH1 0x4 SWAP10 PUSH2 0x1CF6 SWAP16 SWAP12 LT PUSH2 0x1D84 JUMPI JUMPDEST POP POP POP DUP2 SHL ADD SWAP1 SSTORE PUSH2 0x1CC1 JUMP JUMPDEST ADD MLOAD PUSH1 0x0 NOT PUSH1 0xF8 DUP5 PUSH1 0x3 SHL AND SHR NOT AND SWAP1 SSTORE CODESIZE DUP1 DUP1 PUSH2 0x1D77 JUMP JUMPDEST DUP1 PUSH1 0x1 DUP7 SWAP8 DUP3 SWAP5 SWAP8 DUP8 ADD MLOAD DUP2 SSTORE ADD SWAP7 ADD SWAP5 ADD SWAP1 PUSH2 0x1D2C JUMP JUMPDEST PUSH2 0x1DE0 SWAP2 DUP6 PUSH1 0x0 MSTORE DUP2 PUSH1 0x0 KECCAK256 SWAP1 PUSH1 0x1F DUP7 ADD PUSH1 0x5 SHR DUP3 ADD SWAP3 DUP7 LT PUSH2 0x1DE7 JUMPI JUMPDEST PUSH1 0x1F ADD PUSH1 0x5 SHR ADD SWAP1 PUSH2 0x3A57 JUMP JUMPDEST DUP12 DUP12 PUSH2 0x1C5D JUMP JUMPDEST SWAP1 SWAP2 POP DUP2 SWAP1 PUSH2 0x1DD3 JUMP JUMPDEST PUSH4 0x4E487B71 PUSH1 0xE0 SHL PUSH1 0x0 MSTORE PUSH1 0x41 PUSH1 0x4 MSTORE PUSH1 0x24 PUSH1 0x0 REVERT JUMPDEST PUSH4 0x4E487B71 PUSH1 0xE0 SHL PUSH1 0x0 MSTORE PUSH1 0x0 PUSH1 0x4 MSTORE PUSH1 0x24 PUSH1 0x0 REVERT JUMPDEST PUSH1 0x40 MLOAD PUSH3 0x461BCD PUSH1 0xE5 SHL DUP2 MSTORE PUSH1 0x20 PUSH1 0x4 DUP3 ADD MSTORE PUSH1 0x19 PUSH1 0x24 DUP3 ADD MSTORE PUSH25 0x141B185E595C88185B1C9958591E481C9959DA5CDD195C9959 PUSH1 0x3A SHL PUSH1 0x44 DUP3 ADD MSTORE PUSH1 0x64 SWAP1 REVERT JUMPDEST CALLVALUE PUSH2 0x2AA JUMPI PUSH1 0x0 CALLDATASIZE PUSH1 0x3 NOT ADD SLT PUSH2 0x2AA JUMPI PUSH2 0x1E77 PUSH2 0x32CC JUMP JUMPDEST PUSH1 0x3 DUP1 SLOAD PUSH1 0x1 PUSH1 0x1 PUSH1 0xA0 SHL SUB NOT DUP2 AND SWAP1 SWAP2 SSTORE PUSH1 0x40 MLOAD PUSH1 0x0 SWAP2 DUP3 SWAP1 PUSH1 0x1 PUSH1 0x1 PUSH1 0xA0 SHL SUB AND PUSH32 0x8BE0079C531659141344CD1FD0A4F28419497F9722A3DAAFE3B4186F6B6457E0 DUP3 DUP5 LOG3 RETURN JUMPDEST CALLVALUE PUSH2 0x2AA JUMPI PUSH1 0x0 CALLDATASIZE PUSH1 0x3 NOT ADD SLT PUSH2 0x2AA JUMPI PUSH1 0x20 PUSH1 0x40 MLOAD PUSH1 0x2 DUP2 MSTORE RETURN JUMPDEST CALLVALUE PUSH2 0x2AA JUMPI PUSH1 0x0 CALLDATASIZE PUSH1 0x3 NOT ADD SLT PUSH2 0x2AA JUMPI PUSH1 0x40 MLOAD PUSH1 0x0 SWAP1 PUSH1 0x5 SLOAD PUSH2 0x1EFF DUP2 PUSH2 0x31AE JUMP JUMPDEST DUP1 DUP4 MSTORE PUSH1 0x1 SWAP2 DUP1 DUP4 AND SWAP1 DUP2 ISZERO PUSH2 0x1F96 JUMPI POP PUSH1 0x1 EQ PUSH2 0x1F3C JUMPI JUMPDEST PUSH2 0x978 DUP4 PUSH2 0x1F28 DUP2 DUP8 SUB DUP3 PUSH2 0x2F49 JUMP JUMPDEST PUSH1 0x40 MLOAD SWAP2 DUP3 SWAP2 PUSH1 0x20 DUP4 MSTORE PUSH1 0x20 DUP4 ADD SWAP1 PUSH2 0x2E84 JUMP JUMPDEST PUSH1 0x5 PUSH1 0x0 SWAP1 DUP2 MSTORE PUSH1 0x20 SWAP5 POP SWAP2 PUSH32 0x36B6384B5ECA791C62761152D0C79BB0604C104A5FB6F4EB0703F3154BB3DB0 JUMPDEST DUP3 DUP5 LT PUSH2 0x1F83 JUMPI POP POP POP DUP2 ADD SWAP1 SWAP2 ADD SWAP1 PUSH2 0x1F28 DUP2 PUSH2 0x1F18 JUMP JUMPDEST DUP1 SLOAD DUP6 DUP6 ADD DUP8 ADD MSTORE SWAP3 DUP6 ADD SWAP3 DUP2 ADD PUSH2 0x1F6A JUMP JUMPDEST PUSH2 0x978 SWAP6 POP PUSH2 0x1F28 SWAP4 POP PUSH1 0x20 SWAP2 POP SWAP2 DUP5 SWAP3 PUSH1 0xFF NOT AND DUP3 DUP5 ADD MSTORE ISZERO ISZERO PUSH1 0x5 SHL DUP3 ADD ADD SWAP4 POP PUSH2 0x1F18 JUMP JUMPDEST CALLVALUE PUSH2 0x2AA JUMPI PUSH1 0x20 CALLDATASIZE PUSH1 0x3 NOT ADD SLT PUSH2 0x2AA JUMPI PUSH1 0x4 CALLDATALOAD PUSH1 0xC SLOAD DUP2 LT ISZERO PUSH2 0x2AA JUMPI PUSH2 0x2025 SWAP1 PUSH1 0xC PUSH1 0x0 MSTORE PUSH1 0x7 PUSH1 0x20 PUSH1 0x0 KECCAK256 SWAP2 MUL ADD PUSH1 0xFF DUP2 SLOAD AND SWAP1 PUSH2 0x203B PUSH1 0x1 DUP3 ADD SLOAD SWAP2 PUSH2 0x200A PUSH1 0x2 DUP3 ADD PUSH2 0x31E8 JUMP JUMPDEST SWAP1 PUSH1 0x6 PUSH1 0x1 DUP1 PUSH1 0xA0 SHL SUB SWAP2 ADD SLOAD AND SWAP3 PUSH1 0x40 MLOAD SWAP6 DUP7 DUP1 SWAP7 PUSH2 0x2FCC JUMP JUMPDEST PUSH1 0x20 DUP6 ADD MSTORE PUSH1 0x80 PUSH1 0x40 DUP6 ADD MSTORE PUSH1 0x80 DUP5 ADD SWAP1 PUSH2 0x2E84 JUMP JUMPDEST SWAP1 PUSH1 0x60 DUP4 ADD MSTORE SUB SWAP1 RETURN JUMPDEST CALLVALUE PUSH2 0x2AA JUMPI PUSH1 0x0 CALLDATASIZE PUSH1 0x3 NOT ADD SLT PUSH2 0x2AA JUMPI PUSH1 0xC SLOAD PUSH2 0x2062 DUP2 PUSH2 0x3088 JUMP JUMPDEST SWAP1 PUSH2 0x2070 PUSH1 0x40 MLOAD SWAP3 DUP4 PUSH2 0x2F49 JUMP JUMPDEST DUP1 DUP3 MSTORE PUSH1 0xC PUSH1 0x0 SWAP1 DUP2 MSTORE PUSH1 0x20 SWAP2 DUP3 DUP5 ADD SWAP2 PUSH32 0xDF6966C971051C3D54EC59162606531493A51404A002842F56009D7E5CF4A8C7 DUP4 JUMPDEST DUP4 DUP4 LT PUSH2 0x210B JUMPI POP POP POP POP PUSH1 0x40 MLOAD SWAP2 DUP1 DUP4 ADD SWAP4 DUP2 DUP5 MSTORE MLOAD DUP1 SWAP5 MSTORE PUSH1 0x40 DUP4 ADD SWAP4 PUSH1 0x40 DUP2 PUSH1 0x5 SHL DUP6 ADD ADD SWAP3 SWAP2 PUSH1 0x0 SWAP6 JUMPDEST DUP3 DUP8 LT PUSH2 0x20DF JUMPI DUP6 DUP6 SUB DUP7 RETURN JUMPDEST SWAP1 SWAP2 SWAP3 SWAP4 DUP3 DUP1 PUSH2 0x20FB PUSH1 0x1 SWAP4 PUSH1 0x3F NOT DUP11 DUP3 SUB ADD DUP7 MSTORE DUP9 MLOAD PUSH2 0x2FD9 JUMP JUMPDEST SWAP7 ADD SWAP3 ADD SWAP7 ADD SWAP6 SWAP3 SWAP2 SWAP1 SWAP3 PUSH2 0x20D2 JUMP JUMPDEST PUSH1 0x7 DUP7 PUSH1 0x1 SWAP3 PUSH2 0x211D DUP6 SWAP11 SWAP10 SWAP11 PUSH2 0x391E JUMP JUMPDEST DUP2 MSTORE ADD SWAP3 ADD SWAP3 ADD SWAP2 SWAP1 SWAP6 SWAP5 SWAP6 PUSH2 0x20A4 JUMP JUMPDEST CALLVALUE PUSH2 0x2AA JUMPI PUSH1 0x20 CALLDATASIZE PUSH1 0x3 NOT ADD SLT PUSH2 0x2AA JUMPI PUSH2 0x978 PUSH2 0x2152 PUSH2 0x214D PUSH2 0x2E35 JUMP JUMPDEST PUSH2 0x3700 JUMP JUMPDEST PUSH1 0x40 MLOAD SWAP2 DUP3 SWAP2 PUSH1 0x20 DUP4 MSTORE PUSH1 0x20 DUP4 ADD SWAP1 PUSH2 0x3131 JUMP JUMPDEST CALLVALUE PUSH2 0x2AA JUMPI PUSH1 0x20 CALLDATASIZE PUSH1 0x3 NOT ADD SLT PUSH2 0x2AA JUMPI PUSH1 0x4 CALLDATALOAD PUSH1 0x0 MSTORE PUSH1 0x4 PUSH1 0x20 MSTORE PUSH1 0x20 PUSH1 0x40 PUSH1 0x0 KECCAK256 SLOAD ISZERO ISZERO PUSH1 0x40 MLOAD SWAP1 DUP2 MSTORE RETURN JUMPDEST CALLVALUE PUSH2 0x2AA JUMPI PUSH1 0x40 CALLDATASIZE PUSH1 0x3 NOT ADD SLT PUSH2 0x2AA JUMPI PUSH1 0x4 CALLDATALOAD PUSH1 0x1 PUSH1 0x1 PUSH1 0x40 SHL SUB DUP1 DUP3 GT PUSH2 0x2AA JUMPI CALLDATASIZE PUSH1 0x23 DUP4 ADD SLT ISZERO PUSH2 0x2AA JUMPI DUP2 PUSH1 0x4 ADD CALLDATALOAD SWAP1 PUSH2 0x21D1 DUP3 PUSH2 0x3088 JUMP JUMPDEST SWAP3 PUSH2 0x21DF PUSH1 0x40 MLOAD SWAP5 DUP6 PUSH2 0x2F49 JUMP JUMPDEST DUP3 DUP5 MSTORE PUSH1 0x20 SWAP3 PUSH1 0x24 DUP5 DUP7 ADD SWAP2 PUSH1 0x5 SHL DUP4 ADD ADD SWAP2 CALLDATASIZE DUP4 GT PUSH2 0x2AA JUMPI PUSH1 0x24 ADD SWAP1 JUMPDEST DUP3 DUP3 LT PUSH2 0x2313 JUMPI POP POP POP PUSH1 0x24 CALLDATALOAD SWAP1 DUP2 GT PUSH2 0x2AA JUMPI PUSH2 0x2220 SWAP1 CALLDATASIZE SWAP1 PUSH1 0x4 ADD PUSH2 0x309F JUMP JUMPDEST DUP3 MLOAD DUP2 MLOAD SUB PUSH2 0x22BC JUMPI DUP3 MLOAD SWAP3 PUSH2 0x2235 DUP5 PUSH2 0x3088 JUMP JUMPDEST SWAP4 PUSH2 0x2243 PUSH1 0x40 MLOAD SWAP6 DUP7 PUSH2 0x2F49 JUMP JUMPDEST DUP1 DUP6 MSTORE PUSH2 0x2252 PUSH1 0x1F NOT SWAP2 PUSH2 0x3088 JUMP JUMPDEST ADD CALLDATASIZE DUP5 DUP7 ADD CALLDATACOPY PUSH1 0x0 JUMPDEST DUP2 MLOAD DUP2 LT ISZERO PUSH2 0x22A5 JUMPI PUSH2 0x22A0 SWAP1 PUSH2 0x2290 PUSH1 0x1 PUSH1 0x1 PUSH1 0xA0 SHL SUB PUSH2 0x227D DUP4 DUP7 PUSH2 0x33DB JUMP JUMPDEST MLOAD AND PUSH2 0x2289 DUP4 DUP8 PUSH2 0x33DB JUMP JUMPDEST MLOAD SWAP1 PUSH2 0x3324 JUMP JUMPDEST PUSH2 0x229A DUP3 DUP9 PUSH2 0x33DB JUMP JUMPDEST MSTORE PUSH2 0x33A9 JUMP JUMPDEST PUSH2 0x225B JUMP JUMPDEST POP POP POP PUSH2 0x978 PUSH1 0x40 MLOAD SWAP3 DUP3 DUP5 SWAP4 DUP5 MSTORE DUP4 ADD SWAP1 PUSH2 0x30FD JUMP JUMPDEST PUSH1 0x40 MLOAD PUSH3 0x461BCD PUSH1 0xE5 SHL DUP2 MSTORE PUSH1 0x4 DUP2 ADD DUP4 SWAP1 MSTORE PUSH1 0x29 PUSH1 0x24 DUP3 ADD MSTORE PUSH32 0x455243313135353A206163636F756E747320616E6420696473206C656E677468 PUSH1 0x44 DUP3 ADD MSTORE PUSH9 0x40DAD2E6DAC2E8C6D PUSH1 0xBB SHL PUSH1 0x64 DUP3 ADD MSTORE PUSH1 0x84 SWAP1 REVERT JUMPDEST DUP2 CALLDATALOAD PUSH1 0x1 PUSH1 0x1 PUSH1 0xA0 SHL SUB DUP2 AND DUP2 SUB PUSH2 0x2AA JUMPI DUP2 MSTORE SWAP1 DUP5 ADD SWAP1 DUP5 ADD PUSH2 0x21FE JUMP JUMPDEST CALLVALUE PUSH2 0x2AA JUMPI PUSH1 0x20 CALLDATASIZE PUSH1 0x3 NOT ADD SLT PUSH2 0x2AA JUMPI PUSH1 0x1 PUSH1 0x1 PUSH1 0xA0 SHL SUB PUSH2 0x2353 PUSH2 0x2E35 JUMP JUMPDEST AND PUSH1 0x0 MSTORE PUSH1 0x7 PUSH1 0x20 MSTORE PUSH1 0x20 PUSH1 0x40 PUSH1 0x0 KECCAK256 SLOAD PUSH1 0x40 MLOAD SWAP1 DUP2 MSTORE RETURN JUMPDEST CALLVALUE PUSH2 0x2AA JUMPI PUSH1 0x20 CALLDATASIZE PUSH1 0x3 NOT ADD SLT PUSH2 0x2AA JUMPI PUSH1 0x4 CALLDATALOAD PUSH1 0x1 PUSH1 0x1 PUSH1 0x40 SHL SUB DUP2 GT PUSH2 0x2AA JUMPI PUSH2 0x23B5 PUSH1 0x20 PUSH2 0x23A2 DUP2 SWAP4 CALLDATASIZE SWAP1 PUSH1 0x4 ADD PUSH2 0x2F85 JUMP JUMPDEST DUP2 PUSH1 0x40 MLOAD SWAP4 DUP3 DUP6 DUP1 SWAP5 MLOAD SWAP4 DUP5 SWAP3 ADD PUSH2 0x2E61 JUMP JUMPDEST DUP2 ADD PUSH1 0x9 DUP2 MSTORE SUB ADD SWAP1 KECCAK256 SLOAD PUSH1 0x40 MLOAD SWAP1 DUP2 MSTORE RETURN JUMPDEST CALLVALUE PUSH2 0x2AA JUMPI PUSH1 0x3 NOT PUSH1 0xA0 CALLDATASIZE DUP3 ADD SLT PUSH2 0x2AA JUMPI PUSH2 0x23E2 PUSH2 0x2E35 JUMP JUMPDEST SWAP1 PUSH2 0x23EB PUSH2 0x2E4B JUMP JUMPDEST SWAP1 PUSH1 0x1 PUSH1 0x1 PUSH1 0x40 SHL SUB PUSH1 0x44 DUP1 CALLDATALOAD DUP3 DUP2 GT PUSH2 0x2AA JUMPI PUSH2 0x240D SWAP1 CALLDATASIZE SWAP1 PUSH1 0x4 ADD PUSH2 0x309F JUMP JUMPDEST SWAP1 PUSH1 0x64 SWAP1 DUP2 CALLDATALOAD DUP5 DUP2 GT PUSH2 0x2AA JUMPI PUSH2 0x2428 SWAP1 CALLDATASIZE SWAP1 PUSH1 0x4 ADD PUSH2 0x309F JUMP JUMPDEST SWAP5 PUSH1 0x84 SWAP5 DUP6 CALLDATALOAD SWAP1 DUP2 GT PUSH2 0x2AA JUMPI PUSH2 0x2443 SWAP1 CALLDATASIZE SWAP1 PUSH1 0x4 ADD PUSH2 0x2F85 JUMP JUMPDEST PUSH1 0x1 PUSH1 0x1 PUSH1 0xA0 SHL SUB SWAP9 DUP10 AND SWAP9 SWAP1 SWAP2 SWAP1 CALLER DUP11 EQ DUP1 ISZERO PUSH2 0x27E0 JUMPI JUMPDEST PUSH2 0x2465 SWAP1 PUSH2 0x33EF JUMP JUMPDEST DUP6 MLOAD DUP9 MLOAD SUB PUSH2 0x278D JUMPI DUP9 AND SWAP6 DUP7 ISZERO PUSH2 0x247D DUP2 ISZERO PUSH2 0x3452 JUMP JUMPDEST DUP11 ISZERO PUSH2 0x274A JUMPI JUMPDEST PUSH2 0x2685 JUMPI JUMPDEST PUSH1 0x0 JUMPDEST DUP7 MLOAD DUP2 LT ISZERO PUSH2 0x251C JUMPI DUP1 PUSH2 0x24A3 PUSH2 0x2517 SWAP3 DUP10 PUSH2 0x33DB JUMP JUMPDEST MLOAD DUP13 PUSH2 0x24AF DUP4 DUP14 PUSH2 0x33DB JUMP JUMPDEST MLOAD SWAP2 DUP1 PUSH1 0x0 MSTORE DUP3 PUSH1 0x20 SWAP3 PUSH1 0x0 DUP5 MSTORE PUSH1 0x40 PUSH1 0x0 KECCAK256 DUP2 PUSH1 0x0 MSTORE DUP5 MSTORE PUSH1 0x40 PUSH1 0x0 KECCAK256 SLOAD SWAP1 PUSH2 0x24DB DUP4 DUP4 LT ISZERO PUSH2 0x34AC JUMP JUMPDEST DUP4 PUSH1 0x0 MSTORE PUSH1 0x0 DUP6 MSTORE PUSH1 0x40 PUSH1 0x0 KECCAK256 SWAP1 PUSH1 0x0 MSTORE DUP5 MSTORE SUB PUSH1 0x40 PUSH1 0x0 KECCAK256 SSTORE PUSH1 0x0 MSTORE PUSH1 0x0 DUP2 MSTORE PUSH1 0x40 PUSH1 0x0 KECCAK256 SWAP1 DUP12 PUSH1 0x0 MSTORE MSTORE PUSH2 0x6FF PUSH1 0x40 PUSH1 0x0 KECCAK256 SWAP2 DUP3 SLOAD PUSH2 0x350B JUMP JUMPDEST PUSH2 0x248C JUMP JUMPDEST POP SWAP1 SWAP2 SWAP3 SWAP4 SWAP7 DUP10 SWAP9 DUP8 DUP11 PUSH1 0x40 MLOAD PUSH1 0x40 DUP2 MSTORE PUSH32 0x4A39DC06D4C0DBC64B70AF90FD698A233A518AA5D07E595D983B8C0526C8F7FB PUSH2 0x255B PUSH1 0x40 DUP4 ADD DUP13 PUSH2 0x30FD JUMP JUMPDEST SWAP2 DUP1 DUP4 SUB PUSH1 0x20 DUP3 ADD MSTORE DUP1 PUSH2 0x2570 CALLER SWAP5 DUP10 PUSH2 0x30FD JUMP JUMPDEST SUB SWAP1 LOG4 EXTCODESIZE PUSH2 0x257A JUMPI STOP JUMPDEST PUSH1 0x40 MLOAD SWAP8 DUP9 SWAP7 DUP8 SWAP7 PUSH4 0xBC197C81 PUSH1 0xE0 SHL SWAP12 DUP13 DUP10 MSTORE CALLER PUSH1 0x4 DUP11 ADD MSTORE PUSH1 0x24 DUP10 ADD MSTORE DUP8 ADD PUSH1 0xA0 SWAP1 MSTORE PUSH1 0xA4 DUP8 ADD PUSH2 0x25AC SWAP2 PUSH2 0x30FD JUMP JUMPDEST SWAP1 DUP5 DUP8 DUP4 SUB ADD SWAP1 DUP8 ADD MSTORE PUSH2 0x25BF SWAP2 PUSH2 0x30FD JUMP JUMPDEST SWAP2 DUP5 DUP4 SUB ADD SWAP1 DUP5 ADD MSTORE PUSH2 0x25D1 SWAP2 PUSH2 0x2E84 JUMP JUMPDEST SUB DUP2 GAS PUSH1 0x20 SWAP5 PUSH1 0x0 SWAP2 CALL PUSH1 0x0 SWAP2 DUP2 PUSH2 0x2665 JUMPI JUMPDEST POP PUSH2 0x263D JUMPI POP POP PUSH1 0x1 PUSH2 0x25F5 PUSH2 0x3581 JUMP JUMPDEST PUSH4 0x8C379A0 EQ PUSH2 0x2606 JUMPI JUMPDEST PUSH2 0x54E JUMPI STOP JUMPDEST PUSH2 0x260E PUSH2 0x359F JUMP JUMPDEST DUP1 PUSH2 0x2619 JUMPI POP PUSH2 0x2600 JUMP JUMPDEST PUSH1 0x40 MLOAD PUSH3 0x461BCD PUSH1 0xE5 SHL DUP2 MSTORE PUSH1 0x20 PUSH1 0x4 DUP3 ADD MSTORE SWAP1 DUP2 SWAP1 PUSH2 0x567 SWAP1 PUSH1 0x24 DUP4 ADD SWAP1 PUSH2 0x2E84 JUMP JUMPDEST PUSH1 0x1 PUSH1 0x1 PUSH1 0xE0 SHL SUB NOT AND EQ PUSH2 0x4D0 JUMPI PUSH1 0x40 MLOAD PUSH3 0x461BCD PUSH1 0xE5 SHL DUP2 MSTORE DUP1 PUSH2 0x567 PUSH1 0x4 DUP3 ADD PUSH2 0x3538 JUMP JUMPDEST PUSH2 0x267E SWAP2 SWAP3 POP PUSH1 0x20 RETURNDATASIZE DUP2 GT PUSH2 0x5F2 JUMPI PUSH2 0x5E3 DUP2 DUP4 PUSH2 0x2F49 JUMP JUMPDEST SWAP1 DUP4 PUSH2 0x25E4 JUMP JUMPDEST SWAP7 SWAP5 SWAP4 SWAP9 SWAP3 SWAP6 SWAP1 SWAP8 SWAP2 PUSH1 0x0 JUMPDEST DUP6 MLOAD DUP2 LT ISZERO PUSH2 0x273B JUMPI PUSH2 0x26A4 DUP2 DUP8 PUSH2 0x33DB JUMP JUMPDEST MLOAD PUSH2 0x26AF DUP3 DUP10 PUSH2 0x33DB JUMP JUMPDEST MLOAD SWAP1 DUP1 PUSH1 0x0 MSTORE PUSH1 0x20 PUSH1 0x4 DUP2 MSTORE PUSH1 0x40 PUSH1 0x0 KECCAK256 SLOAD SWAP2 DUP4 DUP4 LT PUSH2 0x26E8 JUMPI PUSH2 0x26E3 SWAP5 SWAP4 SWAP3 SWAP2 PUSH1 0x4 SWAP2 PUSH1 0x0 MSTORE MSTORE SUB PUSH1 0x40 PUSH1 0x0 KECCAK256 SSTORE PUSH2 0x33A9 JUMP JUMPDEST PUSH2 0x2691 JUMP JUMPDEST POP DUP12 SWAP1 PUSH8 0x616C537570706C79 PUSH1 0xC0 SHL DUP16 PUSH32 0x455243313135353A206275726E20616D6F756E74206578636565647320746F74 DUP15 PUSH1 0x40 MLOAD SWAP5 PUSH3 0x461BCD PUSH1 0xE5 SHL DUP7 MSTORE PUSH1 0x4 DUP7 ADD MSTORE PUSH1 0x28 PUSH1 0x24 DUP7 ADD MSTORE DUP5 ADD MSTORE DUP3 ADD MSTORE REVERT JUMPDEST POP SWAP2 SWAP8 SWAP1 SWAP6 SWAP3 SWAP9 SWAP4 SWAP5 SWAP7 PUSH2 0x2489 JUMP JUMPDEST SWAP9 SWAP6 SWAP10 SWAP7 SWAP5 SWAP4 SWAP3 SWAP2 SWAP1 PUSH1 0x0 JUMPDEST DUP12 MLOAD DUP2 LT ISZERO PUSH2 0x277E JUMPI DUP1 DUP13 PUSH2 0x6E6 DUP3 PUSH2 0x2772 PUSH2 0x2779 SWAP6 DUP16 PUSH2 0x33DB JUMP JUMPDEST MLOAD SWAP3 PUSH2 0x33DB JUMP JUMPDEST PUSH2 0x2756 JUMP JUMPDEST POP SWAP1 SWAP2 SWAP3 SWAP4 SWAP5 SWAP7 SWAP10 SWAP6 SWAP9 PUSH2 0x2484 JUMP JUMPDEST PUSH1 0x40 MLOAD PUSH3 0x461BCD PUSH1 0xE5 SHL DUP2 MSTORE PUSH1 0x20 PUSH1 0x4 DUP3 ADD MSTORE PUSH1 0x28 PUSH1 0x24 DUP3 ADD MSTORE PUSH32 0x455243313135353A2069647320616E6420616D6F756E7473206C656E67746820 DUP2 DUP7 ADD MSTORE PUSH8 0xDAD2E6DAC2E8C6D PUSH1 0xC3 SHL DUP2 DUP8 ADD MSTORE DUP8 SWAP1 REVERT JUMPDEST POP DUP10 PUSH1 0x0 MSTORE PUSH1 0x1 PUSH1 0x20 MSTORE PUSH1 0x40 PUSH1 0x0 KECCAK256 CALLER PUSH1 0x0 MSTORE PUSH1 0x20 MSTORE PUSH2 0x2465 PUSH1 0xFF PUSH1 0x40 PUSH1 0x0 KECCAK256 SLOAD AND SWAP1 POP PUSH2 0x245C JUMP JUMPDEST CALLVALUE PUSH2 0x2AA JUMPI PUSH1 0x20 DUP1 PUSH1 0x3 NOT CALLDATASIZE ADD SLT PUSH2 0x2AA JUMPI PUSH1 0x4 CALLDATALOAD PUSH1 0x1 PUSH1 0x1 PUSH1 0x40 SHL SUB DUP2 GT PUSH2 0x2AA JUMPI PUSH2 0x283A SWAP1 CALLDATASIZE SWAP1 PUSH1 0x4 ADD PUSH2 0x2F85 JUMP JUMPDEST SWAP1 PUSH2 0x2843 PUSH2 0x38CF JUMP JUMPDEST POP PUSH2 0x2855 PUSH2 0x2850 CALLER PUSH2 0x368A JUMP JUMPDEST PUSH2 0x3A6E JUMP JUMPDEST PUSH2 0x285E DUP3 PUSH2 0x389E JUMP JUMPDEST PUSH2 0x2949 JUMPI DUP1 PUSH1 0x40 MLOAD DUP2 DUP2 ADD SWAP1 DUP3 DUP3 MSTORE PUSH2 0x288C DUP2 PUSH2 0x287E PUSH1 0x40 DUP3 ADD DUP9 PUSH2 0x2E84 JUMP JUMPDEST SUB PUSH1 0x1F NOT DUP2 ADD DUP4 MSTORE DUP3 PUSH2 0x2F49 JUMP JUMPDEST MLOAD SWAP1 KECCAK256 SWAP3 PUSH1 0x40 MLOAD PUSH2 0x289C DUP2 PUSH2 0x2EDD JUMP JUMPDEST CALLER DUP2 MSTORE PUSH1 0x0 DUP4 DUP3 ADD MSTORE PUSH1 0x40 MLOAD SWAP1 PUSH2 0x28B2 DUP3 PUSH2 0x2EDD JUMP JUMPDEST PUSH1 0x0 DUP3 MSTORE PUSH1 0x0 DUP5 DUP4 ADD MSTORE PUSH1 0x40 MLOAD SWAP6 PUSH2 0x28C9 DUP8 PUSH2 0x2EF8 JUMP JUMPDEST PUSH1 0x0 DUP8 MSTORE DUP5 DUP8 ADD MSTORE DUP3 PUSH1 0x40 DUP8 ADD MSTORE PUSH1 0x60 DUP7 ADD MSTORE PUSH1 0x80 DUP6 ADD MSTORE PUSH1 0x0 PUSH1 0xA0 DUP6 ADD MSTORE PUSH2 0x2904 PUSH1 0xC SLOAD SWAP3 DUP4 SWAP3 DUP2 PUSH1 0x40 MLOAD SWAP4 DUP3 DUP6 DUP1 SWAP5 MLOAD SWAP4 DUP5 SWAP3 ADD PUSH2 0x2E61 JUMP JUMPDEST DUP2 ADD PUSH1 0x9 DUP2 MSTORE SUB ADD SWAP1 KECCAK256 SSTORE PUSH1 0x1 PUSH1 0x40 SHL DUP2 LT ISZERO PUSH2 0x1DF1 JUMPI DUP3 PUSH2 0x292F DUP3 PUSH1 0x1 PUSH2 0x2935 SWAP5 ADD PUSH1 0xC SSTORE PUSH2 0x3179 JUMP JUMPDEST SWAP1 PUSH2 0x3FE2 JUMP JUMPDEST PUSH2 0x978 PUSH1 0x40 MLOAD SWAP3 DUP3 DUP5 SWAP4 DUP5 MSTORE DUP4 ADD SWAP1 PUSH2 0x2FD9 JUMP JUMPDEST PUSH1 0x64 SWAP1 PUSH1 0x40 MLOAD SWAP1 PUSH3 0x461BCD PUSH1 0xE5 SHL DUP3 MSTORE PUSH1 0x4 DUP3 ADD MSTORE PUSH1 0x16 PUSH1 0x24 DUP3 ADD MSTORE PUSH22 0x426174746C6520616C72656164792065786973747321 PUSH1 0x50 SHL PUSH1 0x44 DUP3 ADD MSTORE REVERT JUMPDEST CALLVALUE PUSH2 0x2AA JUMPI PUSH1 0x20 CALLDATASIZE PUSH1 0x3 NOT ADD SLT PUSH2 0x2AA JUMPI PUSH1 0x1 PUSH1 0x1 PUSH1 0xA0 SHL SUB PUSH2 0x29A7 PUSH2 0x2E35 JUMP JUMPDEST AND PUSH1 0x0 MSTORE PUSH1 0x8 PUSH1 0x20 MSTORE PUSH1 0x20 PUSH1 0x40 PUSH1 0x0 KECCAK256 SLOAD PUSH1 0x40 MLOAD SWAP1 DUP2 MSTORE RETURN JUMPDEST CALLVALUE PUSH2 0x2AA JUMPI PUSH1 0x20 CALLDATASIZE PUSH1 0x3 NOT ADD SLT PUSH2 0x2AA JUMPI PUSH1 0x4 CALLDATALOAD PUSH1 0x1 PUSH1 0x1 PUSH1 0x40 SHL SUB DUP2 GT PUSH2 0x2AA JUMPI PUSH2 0x29F6 PUSH2 0x1A52 PUSH2 0x978 SWAP3 CALLDATASIZE SWAP1 PUSH1 0x4 ADD PUSH2 0x2F85 JUMP JUMPDEST PUSH1 0x40 MLOAD SWAP2 DUP3 SWAP2 PUSH1 0x20 DUP4 MSTORE PUSH1 0x20 DUP4 ADD SWAP1 PUSH2 0x2FD9 JUMP JUMPDEST CALLVALUE PUSH2 0x2AA JUMPI PUSH1 0x20 CALLDATASIZE PUSH1 0x3 NOT ADD SLT PUSH2 0x2AA JUMPI PUSH1 0x4 CALLDATALOAD PUSH1 0x1 PUSH1 0x1 PUSH1 0x40 SHL SUB DUP2 GT PUSH2 0x2AA JUMPI PUSH2 0xA24 PUSH2 0x2A3F PUSH1 0x20 SWAP3 CALLDATASIZE SWAP1 PUSH1 0x4 ADD PUSH2 0x2F85 JUMP JUMPDEST PUSH2 0x389E JUMP JUMPDEST CALLVALUE PUSH2 0x2AA JUMPI PUSH1 0x20 CALLDATASIZE PUSH1 0x3 NOT ADD SLT PUSH2 0x2AA JUMPI PUSH2 0x978 PUSH2 0x2A68 PUSH2 0x2A63 PUSH2 0x2E35 JUMP JUMPDEST PUSH2 0x381F JUMP JUMPDEST PUSH1 0x40 MLOAD SWAP2 DUP3 SWAP2 PUSH1 0x20 DUP4 MSTORE PUSH1 0x20 DUP4 ADD SWAP1 PUSH2 0x2EA9 JUMP JUMPDEST CALLVALUE PUSH2 0x2AA JUMPI PUSH1 0x20 DUP1 PUSH1 0x3 NOT CALLDATASIZE ADD SLT PUSH2 0x2AA JUMPI PUSH1 0x40 MLOAD SWAP1 PUSH1 0x0 DUP3 PUSH1 0x2 SLOAD SWAP2 PUSH2 0x2AA2 DUP4 PUSH2 0x31AE JUMP JUMPDEST SWAP3 DUP4 DUP4 MSTORE PUSH1 0x1 SWAP1 DUP6 DUP3 DUP3 AND SWAP2 DUP3 PUSH1 0x0 EQ PUSH2 0x2B0D JUMPI POP POP PUSH1 0x1 EQ PUSH2 0x2ACD JUMPI JUMPDEST POP PUSH2 0x964 SWAP3 POP SUB DUP4 PUSH2 0x2F49 JUMP JUMPDEST DUP5 SWAP2 POP PUSH1 0x2 PUSH1 0x0 MSTORE DUP2 PUSH1 0x0 KECCAK256 SWAP1 PUSH1 0x0 SWAP2 JUMPDEST DUP6 DUP4 LT PUSH2 0x2AF5 JUMPI POP POP PUSH2 0x964 SWAP4 POP DUP3 ADD ADD DUP6 PUSH2 0x2AC0 JUMP JUMPDEST DUP1 SLOAD DUP4 DUP10 ADD DUP6 ADD MSTORE DUP8 SWAP5 POP DUP7 SWAP4 SWAP1 SWAP3 ADD SWAP2 DUP2 ADD PUSH2 0x2ADE JUMP JUMPDEST PUSH1 0xFF NOT AND DUP6 DUP3 ADD MSTORE PUSH2 0x964 SWAP6 ISZERO ISZERO PUSH1 0x5 SHL DUP6 ADD ADD SWAP3 POP DUP8 SWAP2 POP PUSH2 0x2AC0 SWAP1 POP JUMP JUMPDEST CALLVALUE PUSH2 0x2AA JUMPI PUSH1 0x0 CALLDATASIZE PUSH1 0x3 NOT ADD SLT PUSH2 0x2AA JUMPI PUSH1 0x20 PUSH1 0x40 MLOAD PUSH1 0xA DUP2 MSTORE RETURN JUMPDEST CALLVALUE PUSH2 0x2AA JUMPI PUSH1 0x20 CALLDATASIZE PUSH1 0x3 NOT ADD SLT PUSH2 0x2AA JUMPI PUSH1 0x20 PUSH2 0xA24 PUSH2 0x2B67 PUSH2 0x2E35 JUMP JUMPDEST PUSH2 0x368A JUMP JUMPDEST CALLVALUE PUSH2 0x2AA JUMPI PUSH1 0x0 CALLDATASIZE PUSH1 0x3 NOT ADD SLT PUSH2 0x2AA JUMPI PUSH1 0x20 PUSH1 0x40 MLOAD PUSH1 0x3 DUP2 MSTORE RETURN JUMPDEST CALLVALUE PUSH2 0x2AA JUMPI PUSH1 0x20 DUP1 PUSH1 0x3 NOT CALLDATASIZE ADD SLT PUSH2 0x2AA JUMPI PUSH1 0x1 PUSH1 0x1 PUSH1 0x40 SHL SUB PUSH1 0x4 CALLDATALOAD DUP2 DUP2 GT PUSH2 0x2AA JUMPI PUSH2 0x2BBA SWAP1 CALLDATASIZE SWAP1 PUSH1 0x4 ADD PUSH2 0x2F85 JUMP JUMPDEST SWAP2 PUSH2 0x2BC3 PUSH2 0x32CC JUMP JUMPDEST DUP3 MLOAD SWAP2 DUP3 GT PUSH2 0x1DF1 JUMPI PUSH2 0x2BD7 PUSH1 0x2 SLOAD PUSH2 0x31AE JUMP JUMPDEST PUSH1 0x1F DUP2 GT PUSH2 0x2C7E JUMPI JUMPDEST POP DUP1 PUSH1 0x1F DUP4 GT PUSH1 0x1 EQ PUSH2 0x2C1A JUMPI POP DUP2 SWAP3 PUSH1 0x0 SWAP3 PUSH2 0x2C0F JUMPI JUMPDEST POP POP DUP2 PUSH1 0x1 SHL SWAP2 PUSH1 0x0 NOT SWAP1 PUSH1 0x3 SHL SHR NOT AND OR PUSH1 0x2 SSTORE STOP JUMPDEST ADD MLOAD SWAP1 POP DUP3 DUP1 PUSH2 0x2BF8 JUMP JUMPDEST SWAP1 PUSH1 0x1F NOT DUP4 AND SWAP4 PUSH1 0x2 PUSH1 0x0 MSTORE DUP3 PUSH1 0x0 KECCAK256 SWAP3 PUSH1 0x0 SWAP1 JUMPDEST DUP7 DUP3 LT PUSH2 0x2C66 JUMPI POP POP DUP4 PUSH1 0x1 SWAP6 LT PUSH2 0x2C4D JUMPI JUMPDEST POP POP POP DUP2 SHL ADD PUSH1 0x2 SSTORE STOP JUMPDEST ADD MLOAD PUSH1 0x0 NOT PUSH1 0xF8 DUP5 PUSH1 0x3 SHL AND SHR NOT AND SWAP1 SSTORE DUP3 DUP1 DUP1 PUSH2 0x2C42 JUMP JUMPDEST DUP1 PUSH1 0x1 DUP6 SWAP7 DUP3 SWAP5 SWAP7 DUP7 ADD MLOAD DUP2 SSTORE ADD SWAP6 ADD SWAP4 ADD SWAP1 PUSH2 0x2C2F JUMP JUMPDEST PUSH2 0x2CA9 SWAP1 PUSH1 0x2 PUSH1 0x0 MSTORE DUP3 PUSH1 0x0 KECCAK256 PUSH1 0x1F DUP6 ADD PUSH1 0x5 SHR DUP2 ADD SWAP2 DUP5 DUP7 LT PUSH2 0x1DE7 JUMPI PUSH1 0x1F ADD PUSH1 0x5 SHR ADD SWAP1 PUSH2 0x3A57 JUMP JUMPDEST DUP4 PUSH2 0x2BE0 JUMP JUMPDEST CALLVALUE PUSH2 0x2AA JUMPI PUSH1 0x20 CALLDATASIZE PUSH1 0x3 NOT ADD SLT PUSH2 0x2AA JUMPI PUSH1 0x4 CALLDATALOAD PUSH4 0xFFFFFFFF PUSH1 0xE0 SHL DUP2 AND DUP1 SWAP2 SUB PUSH2 0x2AA JUMPI PUSH1 0x20 SWAP1 PUSH4 0x6CDB3D13 PUSH1 0xE1 SHL DUP2 EQ SWAP1 DUP2 ISZERO PUSH2 0x2D0C JUMPI JUMPDEST DUP2 ISZERO PUSH2 0x2CFB JUMPI JUMPDEST POP PUSH1 0x40 MLOAD SWAP1 ISZERO ISZERO DUP2 MSTORE RETURN JUMPDEST PUSH4 0x1FFC9A7 PUSH1 0xE0 SHL EQ SWAP1 POP DUP3 PUSH2 0x2CF0 JUMP JUMPDEST PUSH4 0x3A24D07 PUSH1 0xE2 SHL DUP2 EQ SWAP2 POP PUSH2 0x2CE9 JUMP JUMPDEST CALLVALUE PUSH2 0x2AA JUMPI PUSH1 0x0 CALLDATASIZE PUSH1 0x3 NOT ADD SLT PUSH2 0x2AA JUMPI PUSH1 0xB SLOAD PUSH2 0x2D3A DUP2 PUSH2 0x3088 JUMP JUMPDEST SWAP1 PUSH2 0x2D48 PUSH1 0x40 MLOAD SWAP3 DUP4 PUSH2 0x2F49 JUMP JUMPDEST DUP1 DUP3 MSTORE PUSH1 0xB PUSH1 0x0 SWAP1 DUP2 MSTORE PUSH1 0x20 SWAP2 DUP3 DUP5 ADD SWAP2 PUSH32 0x175B7A638427703F0DBE7BB9BBF987A2551717B34E79F33B5B1008D1FA01DB9 DUP4 JUMPDEST DUP4 DUP4 LT PUSH2 0x2DE3 JUMPI POP POP POP POP PUSH1 0x40 MLOAD SWAP2 DUP1 DUP4 ADD SWAP4 DUP2 DUP5 MSTORE MLOAD DUP1 SWAP5 MSTORE PUSH1 0x40 DUP4 ADD SWAP4 PUSH1 0x40 DUP2 PUSH1 0x5 SHL DUP6 ADD ADD SWAP3 SWAP2 PUSH1 0x0 SWAP6 JUMPDEST DUP3 DUP8 LT PUSH2 0x2DB7 JUMPI DUP6 DUP6 SUB DUP7 RETURN JUMPDEST SWAP1 SWAP2 SWAP3 SWAP4 DUP3 DUP1 PUSH2 0x2DD3 PUSH1 0x1 SWAP4 PUSH1 0x3F NOT DUP11 DUP3 SUB ADD DUP7 MSTORE DUP9 MLOAD PUSH2 0x2EA9 JUMP JUMPDEST SWAP7 ADD SWAP3 ADD SWAP7 ADD SWAP6 SWAP3 SWAP2 SWAP1 SWAP3 PUSH2 0x2DAA JUMP JUMPDEST PUSH1 0x4 DUP7 PUSH1 0x1 SWAP3 PUSH2 0x2DF5 DUP6 SWAP11 SWAP10 SWAP11 PUSH2 0x37E6 JUMP JUMPDEST DUP2 MSTORE ADD SWAP3 ADD SWAP3 ADD SWAP2 SWAP1 SWAP6 SWAP5 SWAP6 PUSH2 0x2D7C JUMP JUMPDEST CALLVALUE PUSH2 0x2AA JUMPI PUSH1 0x40 CALLDATASIZE PUSH1 0x3 NOT ADD SLT PUSH2 0x2AA JUMPI PUSH1 0x20 PUSH2 0x2E2D PUSH2 0x2E24 PUSH2 0x2E35 JUMP JUMPDEST PUSH1 0x24 CALLDATALOAD SWAP1 PUSH2 0x3324 JUMP JUMPDEST PUSH1 0x40 MLOAD SWAP1 DUP2 MSTORE RETURN JUMPDEST PUSH1 0x4 CALLDATALOAD SWAP1 PUSH1 0x1 PUSH1 0x1 PUSH1 0xA0 SHL SUB DUP3 AND DUP3 SUB PUSH2 0x2AA JUMPI JUMP JUMPDEST PUSH1 0x24 CALLDATALOAD SWAP1 PUSH1 0x1 PUSH1 0x1 PUSH1 0xA0 SHL SUB DUP3 AND DUP3 SUB PUSH2 0x2AA JUMPI JUMP JUMPDEST PUSH1 0x0 JUMPDEST DUP4 DUP2 LT PUSH2 0x2E74 JUMPI POP POP PUSH1 0x0 SWAP2 ADD MSTORE JUMP JUMPDEST DUP2 DUP2 ADD MLOAD DUP4 DUP3 ADD MSTORE PUSH1 0x20 ADD PUSH2 0x2E64 JUMP JUMPDEST SWAP1 PUSH1 0x20 SWAP2 PUSH2 0x2E9D DUP2 MLOAD DUP1 SWAP3 DUP2 DUP6 MSTORE DUP6 DUP1 DUP7 ADD SWAP2 ADD PUSH2 0x2E61 JUMP JUMPDEST PUSH1 0x1F ADD PUSH1 0x1F NOT AND ADD ADD SWAP1 JUMP JUMPDEST SWAP1 PUSH1 0x60 DUP1 PUSH2 0x2EC0 DUP5 MLOAD PUSH1 0x80 DUP6 MSTORE PUSH1 0x80 DUP6 ADD SWAP1 PUSH2 0x2E84 JUMP JUMPDEST SWAP4 PUSH1 0x20 DUP2 ADD MLOAD PUSH1 0x20 DUP6 ADD MSTORE PUSH1 0x40 DUP2 ADD MLOAD PUSH1 0x40 DUP6 ADD MSTORE ADD MLOAD SWAP2 ADD MSTORE SWAP1 JUMP JUMPDEST PUSH1 0x40 DUP2 ADD SWAP1 DUP2 LT PUSH1 0x1 PUSH1 0x1 PUSH1 0x40 SHL SUB DUP3 GT OR PUSH2 0x1DF1 JUMPI PUSH1 0x40 MSTORE JUMP JUMPDEST PUSH1 0xC0 DUP2 ADD SWAP1 DUP2 LT PUSH1 0x1 PUSH1 0x1 PUSH1 0x40 SHL SUB DUP3 GT OR PUSH2 0x1DF1 JUMPI PUSH1 0x40 MSTORE JUMP JUMPDEST PUSH1 0xA0 DUP2 ADD SWAP1 DUP2 LT PUSH1 0x1 PUSH1 0x1 PUSH1 0x40 SHL SUB DUP3 GT OR PUSH2 0x1DF1 JUMPI PUSH1 0x40 MSTORE JUMP JUMPDEST PUSH1 0x80 DUP2 ADD SWAP1 DUP2 LT PUSH1 0x1 PUSH1 0x1 PUSH1 0x40 SHL SUB DUP3 GT OR PUSH2 0x1DF1 JUMPI PUSH1 0x40 MSTORE JUMP JUMPDEST SWAP1 PUSH1 0x1F DUP1 NOT SWAP2 ADD AND DUP2 ADD SWAP1 DUP2 LT PUSH1 0x1 PUSH1 0x1 PUSH1 0x40 SHL SUB DUP3 GT OR PUSH2 0x1DF1 JUMPI PUSH1 0x40 MSTORE JUMP JUMPDEST PUSH1 0x1 PUSH1 0x1 PUSH1 0x40 SHL SUB DUP2 GT PUSH2 0x1DF1 JUMPI PUSH1 0x1F ADD PUSH1 0x1F NOT AND PUSH1 0x20 ADD SWAP1 JUMP JUMPDEST DUP2 PUSH1 0x1F DUP3 ADD SLT ISZERO PUSH2 0x2AA JUMPI DUP1 CALLDATALOAD SWAP1 PUSH2 0x2F9C DUP3 PUSH2 0x2F6A JUMP JUMPDEST SWAP3 PUSH2 0x2FAA PUSH1 0x40 MLOAD SWAP5 DUP6 PUSH2 0x2F49 JUMP JUMPDEST DUP3 DUP5 MSTORE PUSH1 0x20 DUP4 DUP4 ADD ADD GT PUSH2 0x2AA JUMPI DUP2 PUSH1 0x0 SWAP3 PUSH1 0x20 DUP1 SWAP4 ADD DUP4 DUP7 ADD CALLDATACOPY DUP4 ADD ADD MSTORE SWAP1 JUMP JUMPDEST SWAP1 PUSH1 0x3 DUP3 LT ISZERO PUSH2 0x19B1 JUMPI MSTORE JUMP JUMPDEST SWAP1 PUSH2 0x2FE5 DUP2 DUP4 MLOAD PUSH2 0x2FCC JUMP JUMPDEST PUSH1 0x20 SWAP2 DUP3 DUP2 ADD MLOAD DUP4 DUP4 ADD MSTORE PUSH2 0x3009 PUSH1 0x40 DUP3 ADD MLOAD PUSH2 0x100 DUP1 PUSH1 0x40 DUP7 ADD MSTORE DUP5 ADD SWAP1 PUSH2 0x2E84 JUMP JUMPDEST SWAP3 PUSH1 0x60 DUP3 ADD MLOAD PUSH1 0x60 DUP5 ADD PUSH1 0x0 SWAP1 JUMPDEST DUP4 PUSH1 0x2 DUP4 LT PUSH2 0x306A JUMPI POP POP POP POP PUSH1 0x80 DUP3 ADD MLOAD SWAP1 PUSH1 0x0 PUSH1 0xA0 DUP6 ADD JUMPDEST PUSH1 0x2 DUP3 LT PUSH2 0x3052 JUMPI POP POP POP POP PUSH1 0xE0 SWAP1 PUSH1 0xA0 PUSH1 0x1 DUP1 DUP3 SHL SUB SWAP2 ADD MLOAD AND SWAP2 ADD MSTORE SWAP1 JUMP JUMPDEST DUP3 DUP1 PUSH1 0x1 SWAP3 PUSH1 0xFF DUP8 MLOAD AND DUP2 MSTORE ADD SWAP5 ADD SWAP2 ADD SWAP1 SWAP3 PUSH2 0x3031 JUMP JUMPDEST DUP4 MLOAD PUSH1 0x1 PUSH1 0x1 PUSH1 0xA0 SHL SUB AND DUP3 MSTORE SWAP3 DUP4 ADD SWAP3 PUSH1 0x1 SWAP3 SWAP1 SWAP3 ADD SWAP2 ADD PUSH2 0x3017 JUMP JUMPDEST PUSH1 0x1 PUSH1 0x1 PUSH1 0x40 SHL SUB DUP2 GT PUSH2 0x1DF1 JUMPI PUSH1 0x5 SHL PUSH1 0x20 ADD SWAP1 JUMP JUMPDEST DUP2 PUSH1 0x1F DUP3 ADD SLT ISZERO PUSH2 0x2AA JUMPI DUP1 CALLDATALOAD SWAP2 PUSH2 0x30B6 DUP4 PUSH2 0x3088 JUMP JUMPDEST SWAP3 PUSH2 0x30C4 PUSH1 0x40 MLOAD SWAP5 DUP6 PUSH2 0x2F49 JUMP JUMPDEST DUP1 DUP5 MSTORE PUSH1 0x20 SWAP3 DUP4 DUP1 DUP7 ADD SWAP3 PUSH1 0x5 SHL DUP3 ADD ADD SWAP3 DUP4 GT PUSH2 0x2AA JUMPI DUP4 ADD SWAP1 JUMPDEST DUP3 DUP3 LT PUSH2 0x30EE JUMPI POP POP POP POP SWAP1 JUMP JUMPDEST DUP2 CALLDATALOAD DUP2 MSTORE SWAP1 DUP4 ADD SWAP1 DUP4 ADD PUSH2 0x30E0 JUMP JUMPDEST SWAP1 DUP2 MLOAD DUP1 DUP3 MSTORE PUSH1 0x20 DUP1 DUP1 SWAP4 ADD SWAP4 ADD SWAP2 PUSH1 0x0 JUMPDEST DUP3 DUP2 LT PUSH2 0x311D JUMPI POP POP POP POP SWAP1 JUMP JUMPDEST DUP4 MLOAD DUP6 MSTORE SWAP4 DUP2 ADD SWAP4 SWAP3 DUP2 ADD SWAP3 PUSH1 0x1 ADD PUSH2 0x310F JUMP JUMPDEST SWAP1 PUSH1 0x1 DUP1 PUSH1 0xA0 SHL SUB DUP3 MLOAD AND DUP2 MSTORE PUSH1 0x80 DUP1 PUSH2 0x315A PUSH1 0x20 DUP6 ADD MLOAD PUSH1 0xA0 PUSH1 0x20 DUP7 ADD MSTORE PUSH1 0xA0 DUP6 ADD SWAP1 PUSH2 0x2E84 JUMP JUMPDEST SWAP4 PUSH1 0x40 DUP2 ADD MLOAD PUSH1 0x40 DUP6 ADD MSTORE PUSH1 0x60 DUP2 ADD MLOAD PUSH1 0x60 DUP6 ADD MSTORE ADD MLOAD ISZERO ISZERO SWAP2 ADD MSTORE SWAP1 JUMP JUMPDEST PUSH1 0xC SLOAD DUP2 LT ISZERO PUSH2 0x3198 JUMPI PUSH1 0xC PUSH1 0x0 MSTORE PUSH1 0x7 PUSH1 0x20 PUSH1 0x0 KECCAK256 SWAP2 MUL ADD SWAP1 PUSH1 0x0 SWAP1 JUMP JUMPDEST PUSH4 0x4E487B71 PUSH1 0xE0 SHL PUSH1 0x0 MSTORE PUSH1 0x32 PUSH1 0x4 MSTORE PUSH1 0x24 PUSH1 0x0 REVERT JUMPDEST SWAP1 PUSH1 0x1 DUP3 DUP2 SHR SWAP3 AND DUP1 ISZERO PUSH2 0x31DE JUMPI JUMPDEST PUSH1 0x20 DUP4 LT EQ PUSH2 0x31C8 JUMPI JUMP JUMPDEST PUSH4 0x4E487B71 PUSH1 0xE0 SHL PUSH1 0x0 MSTORE PUSH1 0x22 PUSH1 0x4 MSTORE PUSH1 0x24 PUSH1 0x0 REVERT JUMPDEST SWAP2 PUSH1 0x7F AND SWAP2 PUSH2 0x31BD JUMP JUMPDEST SWAP1 PUSH1 0x40 MLOAD SWAP2 DUP3 PUSH1 0x0 DUP3 SLOAD SWAP3 PUSH2 0x31FC DUP5 PUSH2 0x31AE JUMP JUMPDEST SWAP1 DUP2 DUP5 MSTORE PUSH1 0x1 SWAP5 DUP6 DUP2 AND SWAP1 DUP2 PUSH1 0x0 EQ PUSH2 0x326B JUMPI POP PUSH1 0x1 EQ PUSH2 0x3228 JUMPI JUMPDEST POP POP PUSH2 0x3226 SWAP3 POP SUB DUP4 PUSH2 0x2F49 JUMP JUMPDEST JUMP JUMPDEST SWAP1 SWAP4 SWAP2 POP PUSH1 0x0 MSTORE PUSH1 0x20 SWAP1 DUP2 PUSH1 0x0 KECCAK256 SWAP4 PUSH1 0x0 SWAP2 JUMPDEST DUP2 DUP4 LT PUSH2 0x3253 JUMPI POP POP PUSH2 0x3226 SWAP4 POP DUP3 ADD ADD CODESIZE DUP1 PUSH2 0x3218 JUMP JUMPDEST DUP6 SLOAD DUP9 DUP5 ADD DUP6 ADD MSTORE SWAP5 DUP6 ADD SWAP5 DUP8 SWAP5 POP SWAP2 DUP4 ADD SWAP2 PUSH2 0x323B JUMP JUMPDEST SWAP2 POP POP PUSH2 0x3226 SWAP5 POP PUSH1 0x20 SWAP3 POP PUSH1 0xFF NOT AND DUP3 DUP5 ADD MSTORE ISZERO ISZERO PUSH1 0x5 SHL DUP3 ADD ADD CODESIZE DUP1 PUSH2 0x3218 JUMP JUMPDEST PUSH1 0xB SLOAD DUP2 LT ISZERO PUSH2 0x3198 JUMPI PUSH1 0xB PUSH1 0x0 MSTORE PUSH1 0x20 PUSH1 0x0 KECCAK256 SWAP1 PUSH1 0x2 SHL ADD SWAP1 PUSH1 0x0 SWAP1 JUMP JUMPDEST PUSH1 0xA SLOAD DUP2 LT ISZERO PUSH2 0x3198 JUMPI PUSH1 0xA PUSH1 0x0 MSTORE PUSH1 0x5 PUSH1 0x20 PUSH1 0x0 KECCAK256 SWAP2 MUL ADD SWAP1 PUSH1 0x0 SWAP1 JUMP JUMPDEST PUSH1 0x3 SLOAD PUSH1 0x1 PUSH1 0x1 PUSH1 0xA0 SHL SUB AND CALLER SUB PUSH2 0x32E0 JUMPI JUMP JUMPDEST PUSH1 0x64 PUSH1 0x40 MLOAD PUSH3 0x461BCD PUSH1 0xE5 SHL DUP2 MSTORE PUSH1 0x20 PUSH1 0x4 DUP3 ADD MSTORE PUSH1 0x20 PUSH1 0x24 DUP3 ADD MSTORE PUSH32 0x4F776E61626C653A2063616C6C6572206973206E6F7420746865206F776E6572 PUSH1 0x44 DUP3 ADD MSTORE REVERT JUMPDEST PUSH1 0x1 PUSH1 0x1 PUSH1 0xA0 SHL SUB AND SWAP1 DUP2 ISZERO PUSH2 0x3351 JUMPI PUSH1 0x0 MSTORE PUSH1 0x0 PUSH1 0x20 MSTORE PUSH1 0x40 PUSH1 0x0 KECCAK256 SWAP1 PUSH1 0x0 MSTORE PUSH1 0x20 MSTORE PUSH1 0x40 PUSH1 0x0 KECCAK256 SLOAD SWAP1 JUMP JUMPDEST PUSH1 0x40 MLOAD PUSH3 0x461BCD PUSH1 0xE5 SHL DUP2 MSTORE PUSH1 0x20 PUSH1 0x4 DUP3 ADD MSTORE PUSH1 0x2A PUSH1 0x24 DUP3 ADD MSTORE PUSH32 0x455243313135353A2061646472657373207A65726F206973206E6F7420612076 PUSH1 0x44 DUP3 ADD MSTORE PUSH10 0x30B634B21037BBB732B9 PUSH1 0xB1 SHL PUSH1 0x64 DUP3 ADD MSTORE PUSH1 0x84 SWAP1 REVERT JUMPDEST PUSH1 0x0 NOT DUP2 EQ PUSH2 0x33B8 JUMPI PUSH1 0x1 ADD SWAP1 JUMP JUMPDEST PUSH4 0x4E487B71 PUSH1 0xE0 SHL PUSH1 0x0 MSTORE PUSH1 0x11 PUSH1 0x4 MSTORE PUSH1 0x24 PUSH1 0x0 REVERT JUMPDEST DUP1 MLOAD ISZERO PUSH2 0x3198 JUMPI PUSH1 0x20 ADD SWAP1 JUMP JUMPDEST DUP1 MLOAD DUP3 LT ISZERO PUSH2 0x3198 JUMPI PUSH1 0x20 SWAP2 PUSH1 0x5 SHL ADD ADD SWAP1 JUMP JUMPDEST ISZERO PUSH2 0x33F6 JUMPI JUMP JUMPDEST PUSH1 0x40 MLOAD PUSH3 0x461BCD PUSH1 0xE5 SHL DUP2 MSTORE PUSH1 0x20 PUSH1 0x4 DUP3 ADD MSTORE PUSH1 0x2E PUSH1 0x24 DUP3 ADD MSTORE PUSH32 0x455243313135353A2063616C6C6572206973206E6F7420746F6B656E206F776E PUSH1 0x44 DUP3 ADD MSTORE PUSH14 0x195C881BDC88185C1C1C9BDD9959 PUSH1 0x92 SHL PUSH1 0x64 DUP3 ADD MSTORE PUSH1 0x84 SWAP1 REVERT JUMPDEST ISZERO PUSH2 0x3459 JUMPI JUMP JUMPDEST PUSH1 0x40 MLOAD PUSH3 0x461BCD PUSH1 0xE5 SHL DUP2 MSTORE PUSH1 0x20 PUSH1 0x4 DUP3 ADD MSTORE PUSH1 0x25 PUSH1 0x24 DUP3 ADD MSTORE PUSH32 0x455243313135353A207472616E7366657220746F20746865207A65726F206164 PUSH1 0x44 DUP3 ADD MSTORE PUSH5 0x6472657373 PUSH1 0xD8 SHL PUSH1 0x64 DUP3 ADD MSTORE PUSH1 0x84 SWAP1 REVERT JUMPDEST ISZERO PUSH2 0x34B3 JUMPI JUMP JUMPDEST PUSH1 0x40 MLOAD PUSH3 0x461BCD PUSH1 0xE5 SHL DUP2 MSTORE PUSH1 0x20 PUSH1 0x4 DUP3 ADD MSTORE PUSH1 0x2A PUSH1 0x24 DUP3 ADD MSTORE PUSH32 0x455243313135353A20696E73756666696369656E742062616C616E636520666F PUSH1 0x44 DUP3 ADD MSTORE PUSH10 0x39103A3930B739B332B9 PUSH1 0xB1 SHL PUSH1 0x64 DUP3 ADD MSTORE PUSH1 0x84 SWAP1 REVERT JUMPDEST SWAP2 SWAP1 DUP3 ADD DUP1 SWAP3 GT PUSH2 0x33B8 JUMPI JUMP JUMPDEST SWAP1 DUP2 PUSH1 0x20 SWAP2 SUB SLT PUSH2 0x2AA JUMPI MLOAD PUSH1 0x1 PUSH1 0x1 PUSH1 0xE0 SHL SUB NOT DUP2 AND DUP2 SUB PUSH2 0x2AA JUMPI SWAP1 JUMP JUMPDEST PUSH1 0x80 SWAP1 PUSH1 0x20 DUP2 MSTORE PUSH1 0x28 PUSH1 0x20 DUP3 ADD MSTORE PUSH32 0x455243313135353A204552433131353552656365697665722072656A65637465 PUSH1 0x40 DUP3 ADD MSTORE PUSH8 0x6420746F6B656E73 PUSH1 0xC0 SHL PUSH1 0x60 DUP3 ADD MSTORE ADD SWAP1 JUMP JUMPDEST PUSH1 0x0 SWAP1 PUSH1 0x3 RETURNDATASIZE GT PUSH2 0x358E JUMPI JUMP JUMPDEST SWAP1 POP PUSH1 0x4 PUSH1 0x0 DUP1 RETURNDATACOPY PUSH1 0x0 MLOAD PUSH1 0xE0 SHR SWAP1 JUMP JUMPDEST PUSH1 0x0 PUSH1 0x44 RETURNDATASIZE LT PUSH2 0x35FC JUMPI PUSH1 0x40 MLOAD PUSH1 0x3 NOT SWAP2 RETURNDATASIZE DUP4 ADD PUSH1 0x4 DUP4 RETURNDATACOPY DUP2 MLOAD PUSH1 0x1 PUSH1 0x1 PUSH1 0x40 SHL SUB SWAP2 DUP3 DUP3 GT RETURNDATASIZE PUSH1 0x24 DUP5 ADD GT OR PUSH2 0x35FF JUMPI DUP2 DUP5 ADD SWAP5 DUP6 MLOAD SWAP4 DUP5 GT PUSH2 0x3607 JUMPI RETURNDATASIZE DUP6 ADD ADD PUSH1 0x20 DUP5 DUP8 ADD ADD GT PUSH2 0x35FF JUMPI POP PUSH2 0x35FC SWAP3 SWAP2 ADD PUSH1 0x20 ADD SWAP1 PUSH2 0x2F49 JUMP JUMPDEST SWAP1 JUMP JUMPDEST SWAP5 SWAP4 POP POP POP POP JUMP JUMPDEST POP SWAP5 SWAP4 POP POP POP POP JUMP JUMPDEST PUSH1 0x80 SWAP1 PUSH1 0x20 DUP2 MSTORE PUSH1 0x34 PUSH1 0x20 DUP3 ADD MSTORE PUSH32 0x455243313135353A207472616E7366657220746F206E6F6E2D45524331313535 PUSH1 0x40 DUP3 ADD MSTORE PUSH20 0x2932B1B2B4BB32B91034B6B83632B6B2B73A32B9 PUSH1 0x61 SHL PUSH1 0x60 DUP3 ADD MSTORE ADD SWAP1 JUMP JUMPDEST PUSH1 0x40 MLOAD SWAP1 PUSH2 0x3672 DUP3 PUSH2 0x2EDD JUMP JUMPDEST PUSH1 0x1 DUP3 MSTORE PUSH1 0x20 CALLDATASIZE DUP2 DUP5 ADD CALLDATACOPY PUSH2 0x3686 DUP3 PUSH2 0x33CE JUMP JUMPDEST MSTORE SWAP1 JUMP JUMPDEST PUSH1 0x1 PUSH1 0x1 PUSH1 0xA0 SHL SUB AND PUSH1 0x0 SWAP1 DUP2 MSTORE PUSH1 0x7 PUSH1 0x20 MSTORE PUSH1 0x40 SWAP1 KECCAK256 SLOAD PUSH2 0x36AB JUMPI PUSH1 0x0 SWAP1 JUMP JUMPDEST PUSH1 0x1 SWAP1 JUMP JUMPDEST SWAP1 PUSH1 0x40 MLOAD PUSH2 0x36BD DUP2 PUSH2 0x2F13 JUMP JUMPDEST PUSH1 0x80 PUSH1 0xFF PUSH1 0x4 DUP4 SWAP6 PUSH1 0x1 DUP1 PUSH1 0xA0 SHL SUB DUP2 SLOAD AND DUP6 MSTORE PUSH2 0x36DD PUSH1 0x1 DUP3 ADD PUSH2 0x31E8 JUMP JUMPDEST PUSH1 0x20 DUP7 ADD MSTORE PUSH1 0x2 DUP2 ADD SLOAD PUSH1 0x40 DUP7 ADD MSTORE PUSH1 0x3 DUP2 ADD SLOAD PUSH1 0x60 DUP7 ADD MSTORE ADD SLOAD AND ISZERO ISZERO SWAP2 ADD MSTORE JUMP JUMPDEST PUSH1 0x80 PUSH1 0x40 MLOAD PUSH2 0x370E DUP2 PUSH2 0x2F13 JUMP JUMPDEST PUSH1 0x0 SWAP2 DUP2 DUP4 DUP1 SWAP4 MSTORE PUSH1 0x60 PUSH1 0x20 DUP3 ADD MSTORE DUP3 PUSH1 0x40 DUP3 ADD MSTORE DUP3 PUSH1 0x60 DUP3 ADD MSTORE ADD MSTORE PUSH2 0x3734 DUP3 PUSH2 0x368A JUMP JUMPDEST ISZERO PUSH2 0x3763 JUMPI PUSH1 0x1 PUSH1 0x1 PUSH1 0xA0 SHL SUB SWAP1 SWAP2 AND DUP2 MSTORE PUSH1 0x7 PUSH1 0x20 MSTORE PUSH1 0x40 SWAP1 KECCAK256 SLOAD PUSH2 0x35FC SWAP1 PUSH2 0x375D SWAP1 PUSH2 0x32AD JUMP JUMPDEST POP PUSH2 0x36B0 JUMP JUMPDEST PUSH1 0x40 MLOAD PUSH3 0x461BCD PUSH1 0xE5 SHL DUP2 MSTORE PUSH1 0x20 PUSH1 0x4 DUP3 ADD MSTORE PUSH1 0x15 PUSH1 0x24 DUP3 ADD MSTORE PUSH21 0x506C6179657220646F65736E277420657869737421 PUSH1 0x58 SHL PUSH1 0x44 DUP3 ADD MSTORE PUSH1 0x64 SWAP1 REVERT JUMPDEST PUSH1 0x1 PUSH1 0x1 PUSH1 0xA0 SHL SUB AND PUSH1 0x0 SWAP1 DUP2 MSTORE PUSH1 0x8 PUSH1 0x20 MSTORE PUSH1 0x40 SWAP1 KECCAK256 SLOAD PUSH2 0x36AB JUMPI PUSH1 0x0 SWAP1 JUMP JUMPDEST PUSH1 0x40 MLOAD SWAP1 PUSH2 0x37CE DUP3 PUSH2 0x2F2E JUMP JUMPDEST PUSH1 0x0 PUSH1 0x60 DUP4 DUP2 DUP2 MSTORE DUP3 PUSH1 0x20 DUP3 ADD MSTORE DUP3 PUSH1 0x40 DUP3 ADD MSTORE ADD MSTORE JUMP JUMPDEST SWAP1 PUSH1 0x40 MLOAD PUSH2 0x37F3 DUP2 PUSH2 0x2F2E JUMP JUMPDEST PUSH1 0x60 PUSH1 0x3 DUP3 SWAP5 PUSH2 0x3802 DUP2 PUSH2 0x31E8 JUMP JUMPDEST DUP5 MSTORE PUSH1 0x1 DUP2 ADD SLOAD PUSH1 0x20 DUP6 ADD MSTORE PUSH1 0x2 DUP2 ADD SLOAD PUSH1 0x40 DUP6 ADD MSTORE ADD SLOAD SWAP2 ADD MSTORE JUMP JUMPDEST PUSH2 0x3827 PUSH2 0x37C1 JUMP JUMPDEST POP PUSH2 0x3831 DUP2 PUSH2 0x37A0 JUMP JUMPDEST ISZERO PUSH2 0x385D JUMPI PUSH1 0x1 DUP1 PUSH1 0xA0 SHL SUB AND PUSH1 0x0 MSTORE PUSH1 0x8 PUSH1 0x20 MSTORE PUSH2 0x35FC PUSH2 0x3857 PUSH1 0x40 PUSH1 0x0 KECCAK256 SLOAD PUSH2 0x328E JUMP JUMPDEST POP PUSH2 0x37E6 JUMP JUMPDEST PUSH1 0x40 MLOAD PUSH3 0x461BCD PUSH1 0xE5 SHL DUP2 MSTORE PUSH1 0x20 PUSH1 0x4 DUP3 ADD MSTORE PUSH1 0x19 PUSH1 0x24 DUP3 ADD MSTORE PUSH25 0x47616D6520746F6B656E20646F65736E277420657869737421 PUSH1 0x38 SHL PUSH1 0x44 DUP3 ADD MSTORE PUSH1 0x64 SWAP1 REVERT JUMPDEST PUSH1 0x20 PUSH2 0x38B7 SWAP2 DUP2 PUSH1 0x40 MLOAD SWAP4 DUP3 DUP6 DUP1 SWAP5 MLOAD SWAP4 DUP5 SWAP3 ADD PUSH2 0x2E61 JUMP JUMPDEST DUP2 ADD PUSH1 0x9 DUP2 MSTORE SUB ADD SWAP1 KECCAK256 SLOAD ISZERO PUSH1 0x0 EQ PUSH2 0x36AB JUMPI PUSH1 0x0 SWAP1 JUMP JUMPDEST PUSH1 0x40 SWAP1 PUSH1 0x0 PUSH1 0xA0 DUP4 MLOAD PUSH2 0x38E1 DUP2 PUSH2 0x2EF8 JUMP JUMPDEST DUP1 SWAP5 DUP4 DUP3 MSTORE DUP4 PUSH1 0x20 DUP4 ADD MSTORE PUSH1 0x60 DUP2 DUP4 ADD MSTORE DUP1 MLOAD PUSH2 0x38FD DUP2 PUSH2 0x2EDD JUMP JUMPDEST DUP2 CALLDATASIZE DUP3 CALLDATACOPY PUSH1 0x60 DUP4 ADD MSTORE DUP1 MLOAD SWAP1 PUSH2 0x3912 DUP3 PUSH2 0x2EDD JUMP JUMPDEST CALLDATASIZE DUP3 CALLDATACOPY PUSH1 0x80 DUP3 ADD MSTORE ADD MSTORE JUMP JUMPDEST SWAP1 PUSH1 0x40 MLOAD PUSH2 0x392B DUP2 PUSH2 0x2EF8 JUMP JUMPDEST DUP1 SWAP3 PUSH1 0xFF DUP2 SLOAD AND PUSH1 0x3 DUP2 LT ISZERO PUSH2 0x19B1 JUMPI DUP3 MSTORE PUSH1 0x1 DUP1 DUP3 ADD SLOAD SWAP1 PUSH1 0x20 SWAP2 DUP3 DUP6 ADD MSTORE PUSH1 0x2 SWAP1 PUSH2 0x3959 DUP3 DUP6 ADD PUSH2 0x31E8 JUMP JUMPDEST PUSH1 0x40 DUP7 ADD MSTORE PUSH1 0x40 MLOAD SWAP2 DUP3 PUSH1 0x3 DUP7 ADD PUSH1 0x0 SWAP2 JUMPDEST DUP4 DUP4 LT PUSH2 0x39C2 JUMPI POP POP POP POP POP SWAP1 DUP2 PUSH2 0x3985 PUSH1 0xA0 SWAP5 SWAP4 PUSH2 0x2EDD JUMP JUMPDEST PUSH1 0x60 DUP6 ADD MSTORE PUSH1 0x40 MLOAD SWAP1 PUSH1 0xFF PUSH1 0x5 DUP5 ADD SLOAD DUP2 DUP2 AND DUP5 MSTORE PUSH1 0x8 SHR AND SWAP1 DUP3 ADD MSTORE PUSH2 0x39AB DUP2 PUSH2 0x2EDD JUMP JUMPDEST PUSH1 0x80 DUP5 ADD MSTORE PUSH1 0x6 ADD SLOAD PUSH1 0x0 NOT PUSH1 0x1 DUP4 SHL ADD AND SWAP2 ADD MSTORE JUMP JUMPDEST DUP2 SLOAD PUSH1 0x1 PUSH1 0x1 PUSH1 0xA0 SHL SUB AND DUP2 MSTORE SWAP2 DUP5 ADD SWAP2 SWAP1 DUP5 ADD SWAP1 DUP7 ADD PUSH2 0x396B JUMP JUMPDEST PUSH2 0x39E6 PUSH2 0x38CF JUMP JUMPDEST POP PUSH2 0x39F0 DUP2 PUSH2 0x389E JUMP JUMPDEST ISZERO PUSH2 0x3A1A JUMPI PUSH2 0x3A14 PUSH2 0xC0C PUSH1 0x20 PUSH2 0x35FC SWAP4 DUP2 PUSH1 0x40 MLOAD SWAP4 DUP3 DUP6 DUP1 SWAP5 MLOAD SWAP4 DUP5 SWAP3 ADD PUSH2 0x2E61 JUMP JUMPDEST POP PUSH2 0x391E JUMP JUMPDEST PUSH1 0x40 MLOAD PUSH3 0x461BCD PUSH1 0xE5 SHL DUP2 MSTORE PUSH1 0x20 PUSH1 0x4 DUP3 ADD MSTORE PUSH1 0x15 PUSH1 0x24 DUP3 ADD MSTORE PUSH21 0x426174746C6520646F65736E277420657869737421 PUSH1 0x58 SHL PUSH1 0x44 DUP3 ADD MSTORE PUSH1 0x64 SWAP1 REVERT JUMPDEST DUP2 DUP2 LT PUSH2 0x3A62 JUMPI POP POP JUMP JUMPDEST PUSH1 0x0 DUP2 SSTORE PUSH1 0x1 ADD PUSH2 0x3A57 JUMP JUMPDEST ISZERO PUSH2 0x3A75 JUMPI JUMP JUMPDEST PUSH1 0x40 MLOAD PUSH3 0x461BCD PUSH1 0xE5 SHL DUP2 MSTORE PUSH1 0x20 PUSH1 0x4 DUP3 ADD MSTORE PUSH1 0x1C PUSH1 0x24 DUP3 ADD MSTORE PUSH32 0x506C6561736520526567697374657220506C6179657220466972737400000000 PUSH1 0x44 DUP3 ADD MSTORE PUSH1 0x64 SWAP1 REVERT JUMPDEST PUSH1 0x80 PUSH2 0x3AC5 CALLER PUSH2 0x3700 JUMP JUMPDEST ADD MLOAD PUSH2 0x3F4C JUMPI PUSH2 0x3AD7 PUSH2 0x2850 CALLER PUSH2 0x368A JUMP JUMPDEST PUSH2 0x3ADF PUSH2 0x37C1 JUMP JUMPDEST POP PUSH2 0x3AE9 CALLER PUSH2 0x3F96 JUMP JUMPDEST DUP1 PUSH1 0xA SUB SWAP1 PUSH1 0xA DUP3 GT PUSH2 0x33B8 JUMPI PUSH1 0x40 SWAP1 DUP2 MLOAD PUSH1 0x20 SWAP1 DUP2 DUP2 ADD SWAP1 TIMESTAMP DUP3 MSTORE CALLER PUSH1 0x60 SHL DUP6 DUP3 ADD MSTORE PUSH1 0x34 DUP2 MSTORE PUSH1 0x60 DUP2 ADD SWAP7 PUSH1 0x1 PUSH1 0x1 PUSH1 0x40 SHL SUB SWAP3 DUP3 DUP10 LT DUP5 DUP11 GT OR PUSH2 0x1DF1 JUMPI PUSH1 0xFF PUSH1 0x64 PUSH1 0x6 SWAP3 DUP12 DUP11 MSTORE DUP6 MLOAD SWAP1 KECCAK256 MOD AND MOD PUSH1 0xFF DUP2 AND SWAP2 DUP3 ISZERO PUSH2 0x3F36 JUMPI JUMPDEST PUSH1 0xFF SWAP3 POP PUSH2 0x3B54 DUP11 PUSH2 0x2F2E JUMP JUMPDEST DUP10 MSTORE AND SWAP7 PUSH1 0x80 DUP3 ADD SWAP2 DUP9 DUP4 MSTORE PUSH1 0xC0 PUSH1 0xA0 DUP3 ADD SWAP2 DUP8 DUP4 MSTORE ADD SWAP1 DUP9 DUP3 MSTORE PUSH1 0xB SLOAD SWAP4 PUSH1 0x1 PUSH1 0x40 SHL DUP6 LT ISZERO PUSH2 0x1DF1 JUMPI PUSH1 0x1 SWAP6 DUP7 DUP7 ADD PUSH1 0xB SSTORE PUSH2 0x3B91 DUP7 PUSH2 0x328E JUMP JUMPDEST SWAP6 SWAP1 SWAP6 PUSH2 0x1E07 JUMPI MLOAD DUP1 MLOAD SWAP2 DUP3 GT PUSH2 0x1DF1 JUMPI PUSH2 0x3BAC DUP7 SLOAD PUSH2 0x31AE JUMP JUMPDEST PUSH1 0x1F DUP2 GT PUSH2 0x3F06 JUMPI JUMPDEST POP DUP9 SWAP1 PUSH1 0x1F DUP4 GT PUSH1 0x1 EQ PUSH2 0x3E9E JUMPI PUSH1 0x3 SWAP6 SWAP5 SWAP4 SWAP3 SWAP2 PUSH1 0x0 SWAP2 DUP4 PUSH2 0x3E93 JUMPI JUMPDEST POP POP PUSH1 0x0 NOT DUP3 DUP8 SHL SHR NOT AND SWAP1 DUP9 SHL OR DUP6 SSTORE JUMPDEST MLOAD DUP7 DUP6 ADD SSTORE MLOAD PUSH1 0x2 DUP5 ADD SSTORE MLOAD SWAP2 ADD SSTORE CALLER PUSH1 0x0 MSTORE PUSH1 0x8 DUP4 MSTORE DUP5 PUSH1 0x0 KECCAK256 SSTORE DUP4 MLOAD PUSH2 0x3C0C DUP2 PUSH2 0x2EDD JUMP JUMPDEST PUSH1 0x3 DUP2 MSTORE PUSH3 0x30783 PUSH1 0xEC SHL DUP4 DUP3 ADD MSTORE CALLER ISZERO PUSH2 0x3E45 JUMPI PUSH2 0x3C2A DUP8 PUSH2 0x3665 JUMP JUMPDEST DUP3 DUP7 MLOAD SWAP2 PUSH2 0x3C37 DUP4 PUSH2 0x2EDD JUMP JUMPDEST DUP2 DUP4 MSTORE DUP6 CALLDATASIZE DUP2 DUP6 ADD CALLDATACOPY DUP2 PUSH2 0x3C4A DUP5 PUSH2 0x33CE JUMP JUMPDEST MSTORE PUSH1 0x0 DUP3 JUMPDEST PUSH2 0x3E01 JUMPI JUMPDEST POP POP POP POP DUP7 PUSH1 0x0 MSTORE PUSH1 0x0 DUP4 MSTORE DUP5 PUSH1 0x0 KECCAK256 CALLER PUSH1 0x0 MSTORE DUP4 MSTORE DUP5 PUSH1 0x0 KECCAK256 DUP1 SLOAD SWAP1 DUP4 DUP3 ADD DUP1 SWAP3 GT PUSH2 0x33B8 JUMPI SSTORE DUP5 MLOAD DUP8 DUP2 MSTORE DUP3 DUP5 DUP3 ADD MSTORE PUSH1 0x0 CALLER SWAP2 PUSH32 0xC3D58168C5AE7397731D063D5BBF3D657854427343F4C083240F7AACAA2D0F62 DUP9 CALLER SWAP3 LOG4 CALLER EXTCODESIZE PUSH2 0x3CF9 JUMPI JUMPDEST POP POP PUSH2 0x3CC3 PUSH1 0x6 SLOAD PUSH2 0x33A9 JUMP JUMPDEST PUSH1 0x6 SSTORE DUP3 MLOAD SWAP5 DUP6 MSTORE DUP5 ADD MSTORE DUP3 ADD MSTORE PUSH32 0xCA8AB07E9ED17D119729FC652DD24DF9D8430CA862DDA4631925B5B4B99DA362 PUSH1 0x60 CALLER SWAP3 LOG2 JUMP JUMPDEST DUP5 MLOAD DUP4 DUP2 DUP1 PUSH2 0x3D37 PUSH4 0xF23A6E61 PUSH1 0xE0 SHL SWAP6 DUP7 DUP4 MSTORE CALLER PUSH1 0x4 DUP5 ADD MSTORE PUSH1 0x0 PUSH1 0x24 DUP5 ADD MSTORE DUP13 PUSH1 0x44 DUP5 ADD MSTORE DUP8 PUSH1 0x64 DUP5 ADD MSTORE PUSH1 0xA0 PUSH1 0x84 DUP5 ADD MSTORE PUSH1 0xA4 DUP4 ADD SWAP1 PUSH2 0x2E84 JUMP JUMPDEST SUB DUP2 PUSH1 0x0 CALLER GAS CALL PUSH1 0x0 SWAP2 DUP2 PUSH2 0x3DE2 JUMPI JUMPDEST POP PUSH2 0x3DB9 JUMPI POP POP PUSH2 0x3D56 PUSH2 0x3581 JUMP JUMPDEST PUSH4 0x8C379A0 EQ PUSH2 0x3D85 JUMPI JUMPDEST PUSH2 0x3D6D JUMPI JUMPDEST CODESIZE DUP1 PUSH2 0x3CB6 JUMP JUMPDEST DUP3 MLOAD PUSH3 0x461BCD PUSH1 0xE5 SHL DUP2 MSTORE DUP1 PUSH2 0x567 PUSH1 0x4 DUP3 ADD PUSH2 0x3610 JUMP JUMPDEST PUSH2 0x3D8D PUSH2 0x359F JUMP JUMPDEST DUP1 PUSH2 0x3D98 JUMPI POP PUSH2 0x3D61 JUMP JUMPDEST DUP3 PUSH2 0x567 DUP7 MLOAD SWAP3 DUP4 SWAP3 PUSH3 0x461BCD PUSH1 0xE5 SHL DUP5 MSTORE PUSH1 0x4 DUP5 ADD MSTORE PUSH1 0x24 DUP4 ADD SWAP1 PUSH2 0x2E84 JUMP JUMPDEST PUSH1 0x1 PUSH1 0x1 PUSH1 0xE0 SHL SUB NOT AND EQ SWAP1 POP PUSH2 0x3D66 JUMPI DUP3 MLOAD PUSH3 0x461BCD PUSH1 0xE5 SHL DUP2 MSTORE DUP1 PUSH2 0x567 PUSH1 0x4 DUP3 ADD PUSH2 0x3538 JUMP JUMPDEST PUSH2 0x3DFA SWAP2 SWAP3 POP DUP6 RETURNDATASIZE DUP8 GT PUSH2 0x5F2 JUMPI PUSH2 0x5E3 DUP2 DUP4 PUSH2 0x2F49 JUMP JUMPDEST SWAP1 CODESIZE PUSH2 0x3D47 JUMP JUMPDEST DUP2 MLOAD DUP2 LT ISZERO PUSH2 0x3E40 JUMPI DUP1 PUSH2 0x3E18 PUSH2 0x3E3A SWAP3 DUP7 PUSH2 0x33DB JUMP JUMPDEST MLOAD PUSH2 0x3E23 DUP3 DUP6 PUSH2 0x33DB JUMP JUMPDEST MLOAD PUSH1 0x0 MSTORE PUSH1 0x4 DUP10 MSTORE PUSH2 0x6FF DUP12 PUSH1 0x0 KECCAK256 SWAP2 DUP3 SLOAD PUSH2 0x350B JUMP JUMPDEST DUP3 PUSH2 0x3C4F JUMP JUMPDEST PUSH2 0x3C54 JUMP JUMPDEST DUP5 MLOAD PUSH3 0x461BCD PUSH1 0xE5 SHL DUP2 MSTORE PUSH1 0x4 DUP2 ADD DUP5 SWAP1 MSTORE PUSH1 0x21 PUSH1 0x24 DUP3 ADD MSTORE PUSH32 0x455243313135353A206D696E7420746F20746865207A65726F20616464726573 PUSH1 0x44 DUP3 ADD MSTORE PUSH1 0x73 PUSH1 0xF8 SHL PUSH1 0x64 DUP3 ADD MSTORE PUSH1 0x84 SWAP1 REVERT JUMPDEST ADD MLOAD SWAP1 POP CODESIZE DUP1 PUSH2 0x3BD3 JUMP JUMPDEST SWAP5 SWAP4 SWAP3 SWAP2 DUP9 SWAP2 PUSH1 0x1F NOT DUP3 AND SWAP1 DUP9 PUSH1 0x0 MSTORE DUP12 PUSH1 0x0 KECCAK256 SWAP2 PUSH1 0x0 JUMPDEST DUP14 DUP3 DUP3 LT PUSH2 0x3EF0 JUMPI POP POP SWAP8 DUP4 PUSH1 0x3 SWAP10 LT PUSH2 0x3ED8 JUMPI JUMPDEST POP POP POP DUP2 SHL ADD DUP6 SSTORE PUSH2 0x3BE5 JUMP JUMPDEST ADD MLOAD PUSH1 0x0 NOT DUP4 DUP10 SHL PUSH1 0xF8 AND SHR NOT AND SWAP1 SSTORE CODESIZE DUP1 DUP1 PUSH2 0x3ECB JUMP JUMPDEST DUP4 DUP12 ADD MLOAD DUP6 SSTORE DUP14 SWAP7 SWAP1 SWAP5 ADD SWAP4 SWAP3 DUP4 ADD SWAP3 ADD PUSH2 0x3EB6 JUMP JUMPDEST PUSH2 0x3F30 SWAP1 DUP8 PUSH1 0x0 MSTORE DUP11 PUSH1 0x0 KECCAK256 PUSH1 0x1F DUP6 ADD PUSH1 0x5 SHR DUP2 ADD SWAP2 DUP13 DUP7 LT PUSH2 0x1DE7 JUMPI PUSH1 0x1F ADD PUSH1 0x5 SHR ADD SWAP1 PUSH2 0x3A57 JUMP JUMPDEST CODESIZE PUSH2 0x3BB5 JUMP JUMPDEST SWAP1 POP PUSH1 0xFF DUP3 EQ PUSH2 0x33B8 JUMPI PUSH1 0x1 PUSH1 0xFF SWAP3 ADD SWAP1 PUSH2 0x3B47 JUMP JUMPDEST PUSH1 0x40 MLOAD PUSH3 0x461BCD PUSH1 0xE5 SHL DUP2 MSTORE PUSH1 0x20 PUSH1 0x4 DUP3 ADD MSTORE PUSH1 0x15 PUSH1 0x24 DUP3 ADD MSTORE PUSH21 0x506C6179657220697320696E206120626174746C65 PUSH1 0x58 SHL PUSH1 0x44 DUP3 ADD MSTORE PUSH1 0x64 SWAP1 REVERT JUMPDEST SWAP2 SWAP1 DUP3 SUB SWAP2 DUP3 GT PUSH2 0x33B8 JUMPI JUMP JUMPDEST PUSH1 0xA SWAP1 PUSH1 0x40 MLOAD PUSH1 0x20 DUP2 ADD SWAP2 DIFFICULTY DUP4 MSTORE TIMESTAMP PUSH1 0x40 DUP4 ADD MSTORE PUSH12 0xFFFFFFFFFFFFFFFFFFFFFFFF NOT SWAP1 PUSH1 0x60 SHL AND PUSH1 0x60 DUP3 ADD MSTORE PUSH1 0x54 DUP2 MSTORE PUSH2 0x3FCF DUP2 PUSH2 0x2F2E JUMP JUMPDEST MLOAD SWAP1 KECCAK256 MOD DUP1 ISZERO PUSH2 0x3FDC JUMPI SWAP1 JUMP JUMPDEST POP PUSH1 0x5 SWAP1 JUMP JUMPDEST SWAP3 SWAP2 SWAP1 PUSH2 0x1E07 JUMPI DUP1 MLOAD SWAP3 PUSH1 0x3 DUP1 DUP6 LT ISZERO PUSH2 0x19B1 JUMPI PUSH1 0xFF NOT DUP3 SLOAD AND PUSH1 0xFF DUP1 SWAP7 AND OR DUP3 SSTORE PUSH1 0x20 SWAP1 DUP2 DUP5 ADD MLOAD SWAP1 PUSH1 0x1 SWAP2 DUP3 DUP6 ADD SSTORE PUSH1 0x2 SWAP1 DUP2 DUP6 ADD PUSH1 0x40 DUP8 ADD MLOAD DUP1 MLOAD SWAP1 PUSH1 0x1 PUSH1 0x1 PUSH1 0x40 SHL SUB DUP3 GT PUSH2 0x1DF1 JUMPI DUP2 SWAP1 PUSH2 0x403B DUP5 SLOAD PUSH2 0x31AE JUMP JUMPDEST PUSH1 0x1F DUP2 GT PUSH2 0x4182 JUMPI JUMPDEST POP DUP8 SWAP1 PUSH1 0x1F DUP4 GT PUSH1 0x1 EQ PUSH2 0x4120 JUMPI PUSH1 0x0 SWAP3 PUSH2 0x4115 JUMPI JUMPDEST POP POP PUSH1 0x0 NOT DUP3 DUP6 SHL SHR NOT AND SWAP1 DUP6 SHL OR SWAP1 SSTORE JUMPDEST PUSH1 0x60 DUP7 ADD MLOAD PUSH1 0x0 JUMPDEST DUP4 DUP2 LT PUSH2 0x40F9 JUMPI POP POP POP SWAP1 PUSH1 0x80 DUP6 ADD MLOAD SWAP2 PUSH1 0x0 SWAP4 DUP5 JUMPDEST DUP3 DUP2 LT PUSH2 0x40C9 JUMPI POP POP POP POP POP PUSH1 0x5 DUP3 ADD SSTORE PUSH1 0xA0 SWAP1 SWAP2 ADD MLOAD PUSH1 0x6 SWAP2 SWAP1 SWAP2 ADD DUP1 SLOAD PUSH1 0x1 PUSH1 0x1 PUSH1 0xA0 SHL SUB NOT AND PUSH1 0x1 PUSH1 0x1 PUSH1 0xA0 SHL SUB SWAP3 SWAP1 SWAP3 AND SWAP2 SWAP1 SWAP2 OR SWAP1 SSTORE SWAP1 POP JUMP JUMPDEST SWAP1 SWAP2 SWAP3 DUP3 PUSH2 0x40ED DUP7 SWAP8 DUP5 DUP14 DUP6 SWAP10 MLOAD AND SWAP2 SWAP1 PUSH1 0x3 SHL PUSH1 0xFF DUP2 SHL SWAP3 DUP4 SWAP2 SHL AND SWAP2 NOT AND OR SWAP1 JUMP JUMPDEST SWAP7 ADD SWAP5 SWAP4 SWAP3 SWAP2 ADD PUSH2 0x408A JUMP JUMPDEST DUP2 MLOAD PUSH1 0x1 PUSH1 0x1 PUSH1 0xA0 SHL SUB AND DUP8 DUP3 ADD DUP5 ADD SSTORE SWAP1 DUP6 ADD SWAP1 DUP5 ADD PUSH2 0x4074 JUMP JUMPDEST ADD MLOAD SWAP1 POP CODESIZE DUP1 PUSH2 0x405A JUMP JUMPDEST SWAP1 DUP8 SWAP4 POP PUSH1 0x1F NOT DUP4 AND SWAP2 DUP6 PUSH1 0x0 MSTORE DUP10 PUSH1 0x0 KECCAK256 SWAP3 PUSH1 0x0 JUMPDEST DUP12 DUP3 DUP3 LT PUSH2 0x416C JUMPI POP POP DUP5 GT PUSH2 0x4154 JUMPI JUMPDEST POP POP POP DUP2 SHL ADD SWAP1 SSTORE PUSH2 0x406C JUMP JUMPDEST ADD MLOAD PUSH1 0x0 NOT DUP4 DUP8 SHL PUSH1 0xF8 AND SHR NOT AND SWAP1 SSTORE CODESIZE DUP1 DUP1 PUSH2 0x4147 JUMP JUMPDEST DUP4 DUP6 ADD MLOAD DUP7 SSTORE DUP12 SWAP8 SWAP1 SWAP6 ADD SWAP5 SWAP4 DUP5 ADD SWAP4 ADD PUSH2 0x4136 JUMP JUMPDEST PUSH2 0x41AC SWAP1 DUP6 PUSH1 0x0 MSTORE DUP10 PUSH1 0x0 KECCAK256 PUSH1 0x1F DUP6 ADD PUSH1 0x5 SHR DUP2 ADD SWAP2 DUP12 DUP7 LT PUSH2 0x1DE7 JUMPI PUSH1 0x1F ADD PUSH1 0x5 SHR ADD SWAP1 PUSH2 0x3A57 JUMP JUMPDEST CODESIZE PUSH2 0x4044 JUMP JUMPDEST SWAP1 PUSH2 0x41BC DUP3 PUSH2 0x389E JUMP JUMPDEST ISZERO PUSH2 0x41E0 JUMPI PUSH2 0x292F PUSH2 0xC0C PUSH1 0x20 PUSH2 0x3226 SWAP5 DUP2 PUSH1 0x40 MLOAD SWAP4 DUP3 DUP6 DUP1 SWAP5 MLOAD SWAP4 DUP5 SWAP3 ADD PUSH2 0x2E61 JUMP JUMPDEST PUSH1 0x40 MLOAD PUSH3 0x461BCD PUSH1 0xE5 SHL DUP2 MSTORE PUSH1 0x20 PUSH1 0x4 DUP3 ADD MSTORE PUSH1 0x14 PUSH1 0x24 DUP3 ADD MSTORE PUSH20 0x10985D1D1B1948191BD95CDB89DD08195E1A5CDD PUSH1 0x62 SHL PUSH1 0x44 DUP3 ADD MSTORE PUSH1 0x64 SWAP1 REVERT JUMPDEST PUSH2 0x4224 PUSH2 0x38CF JUMP JUMPDEST POP DUP2 MLOAD PUSH1 0x3 DUP2 LT ISZERO PUSH2 0x19B1 JUMPI PUSH1 0x2 EQ PUSH2 0x4343 JUMPI PUSH1 0x2 DUP3 MSTORE PUSH1 0x1 DUP1 PUSH1 0xA0 SHL SUB DUP1 SWAP2 AND DUP1 PUSH1 0xA0 DUP5 ADD MSTORE PUSH32 0xAE6E5EAFB6CD1CB4B139E7A0B9140AA182EE7D50E99F50D660156F79212ACBC0 PUSH1 0x40 DUP5 ADD SWAP3 PUSH2 0x427C DUP6 DUP6 MLOAD PUSH2 0x41B2 JUMP JUMPDEST DUP1 PUSH1 0x60 DUP7 ADD DUP2 DUP2 MLOAD MLOAD AND PUSH1 0x0 MSTORE PUSH1 0x7 PUSH1 0x20 MSTORE PUSH1 0xA PUSH1 0x2 PUSH2 0x4302 PUSH1 0x40 PUSH1 0x0 KECCAK256 SLOAD DUP6 PUSH1 0x20 DUP7 MLOAD ADD MLOAD AND PUSH1 0x0 MSTORE PUSH1 0x40 PUSH1 0x0 KECCAK256 SLOAD SWAP1 DUP5 DUP5 PUSH2 0x42DF PUSH1 0x4 PUSH2 0x42BD DUP6 PUSH2 0x32AD JUMP JUMPDEST POP ADD SWAP4 PUSH1 0xFF NOT SWAP5 DUP6 DUP2 SLOAD AND SWAP1 SSTORE PUSH1 0x19 PUSH1 0x3 PUSH2 0x42D7 DUP4 PUSH2 0x32AD JUMP JUMPDEST POP ADD SSTORE PUSH2 0x32AD JUMP JUMPDEST POP ADD SSTORE PUSH1 0x4 PUSH2 0x42ED DUP4 PUSH2 0x32AD JUMP JUMPDEST POP ADD SWAP1 DUP2 SLOAD AND SWAP1 SSTORE PUSH1 0x19 PUSH1 0x3 PUSH2 0x42D7 DUP4 PUSH2 0x32AD JUMP JUMPDEST POP ADD SSTORE MLOAD DUP1 MLOAD DUP3 AND DUP6 DUP2 SUB PUSH2 0x433A JUMPI POP PUSH1 0x20 ADD MLOAD AND SWAP4 JUMPDEST MLOAD SWAP4 PUSH2 0x4334 PUSH1 0x40 MLOAD SWAP3 DUP4 SWAP3 PUSH1 0x20 DUP5 MSTORE AND SWAP6 PUSH1 0x20 DUP4 ADD SWAP1 PUSH2 0x2E84 JUMP JUMPDEST SUB SWAP1 LOG3 SWAP1 JUMP JUMPDEST SWAP2 POP POP SWAP4 PUSH2 0x4319 JUMP JUMPDEST PUSH1 0x40 MLOAD PUSH3 0x461BCD PUSH1 0xE5 SHL DUP2 MSTORE PUSH1 0x20 PUSH1 0x4 DUP3 ADD MSTORE PUSH1 0x14 PUSH1 0x24 DUP3 ADD MSTORE PUSH20 0x10985D1D1B1948185B1C9958591E48195B991959 PUSH1 0x62 SHL PUSH1 0x44 DUP3 ADD MSTORE PUSH1 0x64 SWAP1 REVERT JUMPDEST DUP1 ISZERO PUSH2 0x4448 JUMPI SWAP1 PUSH1 0x0 SWAP1 DUP3 DUP1 JUMPDEST PUSH2 0x442E JUMPI POP PUSH2 0x439A DUP3 PUSH2 0x2F6A JUMP JUMPDEST SWAP2 PUSH2 0x43A8 PUSH1 0x40 MLOAD SWAP4 DUP5 PUSH2 0x2F49 JUMP JUMPDEST DUP1 DUP4 MSTORE PUSH1 0x1F NOT PUSH2 0x43B7 DUP3 PUSH2 0x2F6A JUMP JUMPDEST ADD CALLDATASIZE PUSH1 0x20 DUP6 ADD CALLDATACOPY SWAP3 JUMPDEST DUP4 DUP2 ISZERO PUSH2 0x4427 JUMPI PUSH1 0x0 NOT SWAP2 DUP3 DUP7 ADD SWAP6 DUP7 GT PUSH2 0x33B8 JUMPI DUP6 PUSH1 0xA DUP1 DUP4 DIV DUP1 SWAP6 DIV DUP2 GT DUP6 ISZERO ISZERO AND PUSH2 0x33B8 JUMPI PUSH2 0x43F8 PUSH1 0xFF SWAP4 DUP5 SWAP3 DUP8 MUL SWAP1 PUSH2 0x3F89 JUMP JUMPDEST AND PUSH1 0x30 ADD SWAP2 DUP3 GT PUSH2 0x33B8 JUMPI DUP6 MLOAD GT ISZERO PUSH2 0x3198 JUMPI PUSH1 0xF8 SHL PUSH1 0x1 PUSH1 0x1 PUSH1 0xF8 SHL SUB NOT AND PUSH1 0x0 BYTE SWAP1 DUP5 ADD PUSH1 0x1F ADD MSTORE8 PUSH2 0x43C0 JUMP JUMPDEST POP POP SWAP2 POP SWAP1 JUMP JUMPDEST SWAP2 PUSH2 0x443D PUSH1 0xA SWAP2 SWAP5 SWAP3 SWAP5 PUSH2 0x33A9 JUMP JUMPDEST SWAP3 DIV DUP1 SWAP4 SWAP2 SWAP4 PUSH2 0x438C JUMP JUMPDEST POP PUSH1 0x40 MLOAD PUSH2 0x4455 DUP2 PUSH2 0x2EDD JUMP JUMPDEST PUSH1 0x1 DUP2 MSTORE PUSH1 0x3 PUSH1 0xFC SHL PUSH1 0x20 DUP3 ADD MSTORE SWAP1 JUMP INVALID LOG2 PUSH5 0x6970667358 0x22 SLT KECCAK256 0xC 0xB8 PUSH1 0x26 0x23 PUSH25 0xA834DEC91A8EB6AB466EE95F627D29CC17B3CB868F47B3F4FA NUMBER PUSH5 0x736F6C6343 STOP ADDMOD LT STOP CALLER BLOCKHASH JUMPI DUP8 STATICCALL SLT 0xA8 0x23 0xE0 CALLCODE 0xB7 PUSH4 0x1CC41B3B 0xA8 DUP3 DUP12 CALLER 0x21 0xCA DUP2 GT GT STATICCALL PUSH22 0xCD3AA3BB5ACE00000000000000000000000000000000 "},"methodIdentifiers":{"CELESTION()":"9e4ecd11","DEVIL()":"d2198cc5","FIREBIRD()":"703730a5","GRIFFIN()":"de96cefc","KAMO()":"0677aa4e","KUKULKAN()":"f1da7339","MAX_ATTACK_DEFEND_STRENGTH()":"0daea2cd","attackOrDefendChoice(uint8,string)":"ba274956","balanceOf(address,uint256)":"00fdd58e","balanceOfBatch(address[],uint256[])":"4e1273f4","baseURI()":"6c0360eb","battleInfo(string)":"3835e2b5","battles(uint256)":"606d2e96","createBattle(string)":"2ca04522","createRandomGameToken(string)":"9ec40aa3","exists(uint256)":"4f558e79","gameTokens(uint256)":"bf034b69","getAllBattles()":"5c93fc3d","getAllPlayerTokens()":"015a3792","getAllPlayers()":"efa1c482","getBattle(string)":"16801d17","getBattleMoves(string)":"9b09cc87","getPlayer(address)":"5c12cd4b","getPlayerToken(address)":"10898e4c","getTotalSupply()":"c4e41b22","isApprovedForAll(address,address)":"e985e9c5","isBattle(string)":"1107ae3d","isPlayer(address)":"09c95e10","isPlayerToken(address)":"bf103a4d","joinBattle(string)":"a1b4f57c","owner()":"8da5cb5b","playerInfo(address)":"4b114691","playerTokenInfo(address)":"2711162e","players(uint256)":"f71d96cb","quitBattle(string)":"996d7bea","registerPlayer(string,string)":"845f433b","renounceOwnership()":"715018a6","safeBatchTransferFrom(address,address,uint256[],uint256[],bytes)":"2eb2c2d6","safeTransferFrom(address,address,uint256,uint256,bytes)":"f242432a","setApprovalForAll(address,bool)":"a22cb465","setURI(string)":"02fe5305","supportsInterface(bytes4)":"01ffc9a7","tokenURI(uint256)":"c87b56dd","totalSupply()":"18160ddd","totalSupply(uint256)":"bd85b039","transferOwnership(address)":"f2fde38b","uri(uint256)":"0e89341c"}}}}}